{
	"contracts/MyCoin.sol": {
		"Mycoin": {
			"abi": [
				{
					"inputs": [
						{
							"internalType": "uint256",
							"name": "",
							"type": "uint256"
						}
					],
					"name": "arr",
					"outputs": [
						{
							"internalType": "uint256",
							"name": "",
							"type": "uint256"
						}
					],
					"stateMutability": "view",
					"type": "function"
				},
				{
					"inputs": [
						{
							"internalType": "uint256",
							"name": "",
							"type": "uint256"
						}
					],
					"name": "arr1",
					"outputs": [
						{
							"internalType": "uint256",
							"name": "",
							"type": "uint256"
						}
					],
					"stateMutability": "view",
					"type": "function"
				},
				{
					"inputs": [],
					"name": "readd",
					"outputs": [
						{
							"internalType": "uint256",
							"name": "",
							"type": "uint256"
						}
					],
					"stateMutability": "view",
					"type": "function"
				},
				{
					"inputs": [
						{
							"internalType": "uint256",
							"name": "index",
							"type": "uint256"
						},
						{
							"internalType": "uint256",
							"name": "value",
							"type": "uint256"
						}
					],
					"name": "setter",
					"outputs": [],
					"stateMutability": "nonpayable",
					"type": "function"
				},
				{
					"inputs": [
						{
							"internalType": "uint256",
							"name": "item",
							"type": "uint256"
						}
					],
					"name": "setter1",
					"outputs": [],
					"stateMutability": "nonpayable",
					"type": "function"
				}
			],
			"devdoc": {
				"kind": "dev",
				"methods": {},
				"version": 1
			},
			"evm": {
				"assembly": "    /* \"contracts/MyCoin.sol\":107:940  contract Mycoin{\r... */\n  mstore(0x40, 0x80)\n    /* \"contracts/MyCoin.sol\":131:174  uint[7] public arr = [10,30,45,65,22,12,54] */\n  mload(0x40)\n  dup1\n  0xe0\n  add\n  0x40\n  mstore\n  dup1\n    /* \"contracts/MyCoin.sol\":153:155  10 */\n  0x0a\n    /* \"contracts/MyCoin.sol\":131:174  uint[7] public arr = [10,30,45,65,22,12,54] */\n  0xff\n  and\n  dup2\n  mstore\n  0x20\n  add\n    /* \"contracts/MyCoin.sol\":156:158  30 */\n  0x1e\n    /* \"contracts/MyCoin.sol\":131:174  uint[7] public arr = [10,30,45,65,22,12,54] */\n  0xff\n  and\n  dup2\n  mstore\n  0x20\n  add\n    /* \"contracts/MyCoin.sol\":159:161  45 */\n  0x2d\n    /* \"contracts/MyCoin.sol\":131:174  uint[7] public arr = [10,30,45,65,22,12,54] */\n  0xff\n  and\n  dup2\n  mstore\n  0x20\n  add\n    /* \"contracts/MyCoin.sol\":162:164  65 */\n  0x41\n    /* \"contracts/MyCoin.sol\":131:174  uint[7] public arr = [10,30,45,65,22,12,54] */\n  0xff\n  and\n  dup2\n  mstore\n  0x20\n  add\n    /* \"contracts/MyCoin.sol\":165:167  22 */\n  0x16\n    /* \"contracts/MyCoin.sol\":131:174  uint[7] public arr = [10,30,45,65,22,12,54] */\n  0xff\n  and\n  dup2\n  mstore\n  0x20\n  add\n    /* \"contracts/MyCoin.sol\":168:170  12 */\n  0x0c\n    /* \"contracts/MyCoin.sol\":131:174  uint[7] public arr = [10,30,45,65,22,12,54] */\n  0xff\n  and\n  dup2\n  mstore\n  0x20\n  add\n    /* \"contracts/MyCoin.sol\":171:173  54 */\n  0x36\n    /* \"contracts/MyCoin.sol\":131:174  uint[7] public arr = [10,30,45,65,22,12,54] */\n  0xff\n  and\n  dup2\n  mstore\n  pop\n  0x00\n  swap1\n  0x07\n  tag_1\n  swap3\n  swap2\n  swap1\n  tag_2\n  jump\t// in\ntag_1:\n  pop\n    /* \"contracts/MyCoin.sol\":107:940  contract Mycoin{\r... */\n  callvalue\n  dup1\n  iszero\n  tag_3\n  jumpi\n  0x00\n  dup1\n  revert\ntag_3:\n  pop\n  jump(tag_4)\ntag_2:\n  dup3\n  0x07\n  dup2\n  add\n  swap3\n  dup3\n  iszero\n  tag_5\n  jumpi\n  swap2\n  0x20\n  mul\n  dup3\n  add\ntag_6:\n  dup3\n  dup2\n  gt\n  iszero\n  tag_7\n  jumpi\n  dup3\n  mload\n  dup3\n  swap1\n  0xff\n  and\n  swap1\n  sstore\n  swap2\n  0x20\n  add\n  swap2\n  swap1\n  0x01\n  add\n  swap1\n  jump(tag_6)\ntag_7:\ntag_5:\n  pop\n  swap1\n  pop\n  tag_8\n  swap2\n  swap1\n  tag_9\n  jump\t// in\ntag_8:\n  pop\n  swap1\n  jump\t// out\ntag_9:\ntag_10:\n  dup1\n  dup3\n  gt\n  iszero\n  tag_11\n  jumpi\n  0x00\n  dup2\n  0x00\n  swap1\n  sstore\n  pop\n  0x01\n  add\n  jump(tag_10)\ntag_11:\n  pop\n  swap1\n  jump\t// out\ntag_4:\n  dataSize(sub_0)\n  dup1\n  dataOffset(sub_0)\n  0x00\n  codecopy\n  0x00\n  return\nstop\n\nsub_0: assembly {\n        /* \"contracts/MyCoin.sol\":107:940  contract Mycoin{\r... */\n      mstore(0x40, 0x80)\n      callvalue\n      dup1\n      iszero\n      tag_1\n      jumpi\n      0x00\n      dup1\n      revert\n    tag_1:\n      pop\n      jumpi(tag_2, lt(calldatasize, 0x04))\n      shr(0xe0, calldataload(0x00))\n      dup1\n      0x0423ee83\n      eq\n      tag_3\n      jumpi\n      dup1\n      0x5298f36d\n      eq\n      tag_4\n      jumpi\n      dup1\n      0x6987b1fb\n      eq\n      tag_5\n      jumpi\n      dup1\n      0x71e5ee5f\n      eq\n      tag_6\n      jumpi\n      dup1\n      0xdaebd872\n      eq\n      tag_7\n      jumpi\n    tag_2:\n      0x00\n      dup1\n      revert\n        /* \"contracts/MyCoin.sol\":208:283  function setter1(uint item) public{\r... */\n    tag_3:\n      tag_8\n      0x04\n      dup1\n      calldatasize\n      sub\n      dup2\n      add\n      swap1\n      tag_9\n      swap2\n      swap1\n      tag_10\n      jump\t// in\n    tag_9:\n      tag_11\n      jump\t// in\n    tag_8:\n      stop\n        /* \"contracts/MyCoin.sol\":293:376  function setter(uint index, uint value) public{\r... */\n    tag_4:\n      tag_12\n      0x04\n      dup1\n      calldatasize\n      sub\n      dup2\n      add\n      swap1\n      tag_13\n      swap2\n      swap1\n      tag_14\n      jump\t// in\n    tag_13:\n      tag_15\n      jump\t// in\n    tag_12:\n      stop\n        /* \"contracts/MyCoin.sol\":181:199  uint[] public arr1 */\n    tag_5:\n      tag_16\n      0x04\n      dup1\n      calldatasize\n      sub\n      dup2\n      add\n      swap1\n      tag_17\n      swap2\n      swap1\n      tag_10\n      jump\t// in\n    tag_17:\n      tag_18\n      jump\t// in\n    tag_16:\n      mload(0x40)\n      tag_19\n      swap2\n      swap1\n      tag_20\n      jump\t// in\n    tag_19:\n      mload(0x40)\n      dup1\n      swap2\n      sub\n      swap1\n      return\n        /* \"contracts/MyCoin.sol\":131:174  uint[7] public arr = [10,30,45,65,22,12,54] */\n    tag_6:\n      tag_21\n      0x04\n      dup1\n      calldatasize\n      sub\n      dup2\n      add\n      swap1\n      tag_22\n      swap2\n      swap1\n      tag_10\n      jump\t// in\n    tag_22:\n      tag_23\n      jump\t// in\n    tag_21:\n      mload(0x40)\n      tag_24\n      swap2\n      swap1\n      tag_20\n      jump\t// in\n    tag_24:\n      mload(0x40)\n      dup1\n      swap2\n      sub\n      swap1\n      return\n        /* \"contracts/MyCoin.sol\":384:483  function readd() public view returns(uint){\r... */\n    tag_7:\n      tag_25\n      tag_26\n      jump\t// in\n    tag_25:\n      mload(0x40)\n      tag_27\n      swap2\n      swap1\n      tag_20\n      jump\t// in\n    tag_27:\n      mload(0x40)\n      dup1\n      swap2\n      sub\n      swap1\n      return\n        /* \"contracts/MyCoin.sol\":208:283  function setter1(uint item) public{\r... */\n    tag_11:\n        /* \"contracts/MyCoin.sol\":260:264  arr1 */\n      0x07\n        /* \"contracts/MyCoin.sol\":270:274  item */\n      dup2\n        /* \"contracts/MyCoin.sol\":260:275  arr1.push(item) */\n      swap1\n      dup1\n      0x01\n      dup2\n      sload\n      add\n      dup1\n      dup3\n      sstore\n      dup1\n      swap2\n      pop\n      pop\n      0x01\n      swap1\n      sub\n      swap1\n      0x00\n      mstore\n      keccak256(0x00, 0x20)\n      add\n      0x00\n      swap1\n      swap2\n      swap1\n      swap2\n      swap1\n      swap2\n      pop\n      sstore\n        /* \"contracts/MyCoin.sol\":208:283  function setter1(uint item) public{\r... */\n      pop\n      jump\t// out\n        /* \"contracts/MyCoin.sol\":293:376  function setter(uint index, uint value) public{\r... */\n    tag_15:\n        /* \"contracts/MyCoin.sol\":363:368  value */\n      dup1\n        /* \"contracts/MyCoin.sol\":350:353  arr */\n      0x00\n        /* \"contracts/MyCoin.sol\":354:359  index */\n      dup4\n        /* \"contracts/MyCoin.sol\":350:360  arr[index] */\n      0x07\n      dup2\n      lt\n      tag_31\n      jumpi\n      tag_32\n      tag_33\n      jump\t// in\n    tag_32:\n    tag_31:\n      add\n        /* \"contracts/MyCoin.sol\":350:368  arr[index] = value */\n      dup2\n      swap1\n      sstore\n      pop\n        /* \"contracts/MyCoin.sol\":293:376  function setter(uint index, uint value) public{\r... */\n      pop\n      pop\n      jump\t// out\n        /* \"contracts/MyCoin.sol\":181:199  uint[] public arr1 */\n    tag_18:\n      0x07\n      dup2\n      dup2\n      sload\n      dup2\n      lt\n      tag_35\n      jumpi\n      0x00\n      dup1\n      revert\n    tag_35:\n      swap1\n      0x00\n      mstore\n      keccak256(0x00, 0x20)\n      add\n      0x00\n      swap2\n      pop\n      swap1\n      pop\n      sload\n      dup2\n      jump\t// out\n        /* \"contracts/MyCoin.sol\":131:174  uint[7] public arr = [10,30,45,65,22,12,54] */\n    tag_23:\n      0x00\n      dup2\n      0x07\n      dup2\n      lt\n      tag_37\n      jumpi\n      0x00\n      dup1\n      revert\n    tag_37:\n      add\n      0x00\n      swap2\n      pop\n      swap1\n      pop\n      sload\n      dup2\n      jump\t// out\n        /* \"contracts/MyCoin.sol\":384:483  function readd() public view returns(uint){\r... */\n    tag_26:\n        /* \"contracts/MyCoin.sol\":421:425  uint */\n      0x00\n        /* \"contracts/MyCoin.sol\":437:443  uint x */\n      dup1\n        /* \"contracts/MyCoin.sol\":446:456  arr.length */\n      0x07\n        /* \"contracts/MyCoin.sol\":437:456  uint x = arr.length */\n      swap1\n      pop\n        /* \"contracts/MyCoin.sol\":474:475  x */\n      dup1\n        /* \"contracts/MyCoin.sol\":467:475  return x */\n      swap2\n      pop\n      pop\n        /* \"contracts/MyCoin.sol\":384:483  function readd() public view returns(uint){\r... */\n      swap1\n      jump\t// out\n        /* \"#utility.yul\":7:146   */\n    tag_41:\n        /* \"#utility.yul\":53:58   */\n      0x00\n        /* \"#utility.yul\":91:97   */\n      dup2\n        /* \"#utility.yul\":78:98   */\n      calldataload\n        /* \"#utility.yul\":69:98   */\n      swap1\n      pop\n        /* \"#utility.yul\":107:140   */\n      tag_43\n        /* \"#utility.yul\":134:139   */\n      dup2\n        /* \"#utility.yul\":107:140   */\n      tag_44\n      jump\t// in\n    tag_43:\n        /* \"#utility.yul\":7:146   */\n      swap3\n      swap2\n      pop\n      pop\n      jump\t// out\n        /* \"#utility.yul\":152:481   */\n    tag_10:\n        /* \"#utility.yul\":211:217   */\n      0x00\n        /* \"#utility.yul\":260:262   */\n      0x20\n        /* \"#utility.yul\":248:257   */\n      dup3\n        /* \"#utility.yul\":239:246   */\n      dup5\n        /* \"#utility.yul\":235:258   */\n      sub\n        /* \"#utility.yul\":231:263   */\n      slt\n        /* \"#utility.yul\":228:347   */\n      iszero\n      tag_46\n      jumpi\n        /* \"#utility.yul\":266:345   */\n      tag_47\n      tag_48\n      jump\t// in\n    tag_47:\n        /* \"#utility.yul\":228:347   */\n    tag_46:\n        /* \"#utility.yul\":386:387   */\n      0x00\n        /* \"#utility.yul\":411:464   */\n      tag_49\n        /* \"#utility.yul\":456:463   */\n      dup5\n        /* \"#utility.yul\":447:453   */\n      dup3\n        /* \"#utility.yul\":436:445   */\n      dup6\n        /* \"#utility.yul\":432:454   */\n      add\n        /* \"#utility.yul\":411:464   */\n      tag_41\n      jump\t// in\n    tag_49:\n        /* \"#utility.yul\":401:464   */\n      swap2\n      pop\n        /* \"#utility.yul\":357:474   */\n      pop\n        /* \"#utility.yul\":152:481   */\n      swap3\n      swap2\n      pop\n      pop\n      jump\t// out\n        /* \"#utility.yul\":487:961   */\n    tag_14:\n        /* \"#utility.yul\":555:561   */\n      0x00\n        /* \"#utility.yul\":563:569   */\n      dup1\n        /* \"#utility.yul\":612:614   */\n      0x40\n        /* \"#utility.yul\":600:609   */\n      dup4\n        /* \"#utility.yul\":591:598   */\n      dup6\n        /* \"#utility.yul\":587:610   */\n      sub\n        /* \"#utility.yul\":583:615   */\n      slt\n        /* \"#utility.yul\":580:699   */\n      iszero\n      tag_51\n      jumpi\n        /* \"#utility.yul\":618:697   */\n      tag_52\n      tag_48\n      jump\t// in\n    tag_52:\n        /* \"#utility.yul\":580:699   */\n    tag_51:\n        /* \"#utility.yul\":738:739   */\n      0x00\n        /* \"#utility.yul\":763:816   */\n      tag_53\n        /* \"#utility.yul\":808:815   */\n      dup6\n        /* \"#utility.yul\":799:805   */\n      dup3\n        /* \"#utility.yul\":788:797   */\n      dup7\n        /* \"#utility.yul\":784:806   */\n      add\n        /* \"#utility.yul\":763:816   */\n      tag_41\n      jump\t// in\n    tag_53:\n        /* \"#utility.yul\":753:816   */\n      swap3\n      pop\n        /* \"#utility.yul\":709:826   */\n      pop\n        /* \"#utility.yul\":865:867   */\n      0x20\n        /* \"#utility.yul\":891:944   */\n      tag_54\n        /* \"#utility.yul\":936:943   */\n      dup6\n        /* \"#utility.yul\":927:933   */\n      dup3\n        /* \"#utility.yul\":916:925   */\n      dup7\n        /* \"#utility.yul\":912:934   */\n      add\n        /* \"#utility.yul\":891:944   */\n      tag_41\n      jump\t// in\n    tag_54:\n        /* \"#utility.yul\":881:944   */\n      swap2\n      pop\n        /* \"#utility.yul\":836:954   */\n      pop\n        /* \"#utility.yul\":487:961   */\n      swap3\n      pop\n      swap3\n      swap1\n      pop\n      jump\t// out\n        /* \"#utility.yul\":967:1085   */\n    tag_55:\n        /* \"#utility.yul\":1054:1078   */\n      tag_57\n        /* \"#utility.yul\":1072:1077   */\n      dup2\n        /* \"#utility.yul\":1054:1078   */\n      tag_58\n      jump\t// in\n    tag_57:\n        /* \"#utility.yul\":1049:1052   */\n      dup3\n        /* \"#utility.yul\":1042:1079   */\n      mstore\n        /* \"#utility.yul\":967:1085   */\n      pop\n      pop\n      jump\t// out\n        /* \"#utility.yul\":1091:1313   */\n    tag_20:\n        /* \"#utility.yul\":1184:1188   */\n      0x00\n        /* \"#utility.yul\":1222:1224   */\n      0x20\n        /* \"#utility.yul\":1211:1220   */\n      dup3\n        /* \"#utility.yul\":1207:1225   */\n      add\n        /* \"#utility.yul\":1199:1225   */\n      swap1\n      pop\n        /* \"#utility.yul\":1235:1306   */\n      tag_60\n        /* \"#utility.yul\":1303:1304   */\n      0x00\n        /* \"#utility.yul\":1292:1301   */\n      dup4\n        /* \"#utility.yul\":1288:1305   */\n      add\n        /* \"#utility.yul\":1279:1285   */\n      dup5\n        /* \"#utility.yul\":1235:1306   */\n      tag_55\n      jump\t// in\n    tag_60:\n        /* \"#utility.yul\":1091:1313   */\n      swap3\n      swap2\n      pop\n      pop\n      jump\t// out\n        /* \"#utility.yul\":1400:1477   */\n    tag_58:\n        /* \"#utility.yul\":1437:1444   */\n      0x00\n        /* \"#utility.yul\":1466:1471   */\n      dup2\n        /* \"#utility.yul\":1455:1471   */\n      swap1\n      pop\n        /* \"#utility.yul\":1400:1477   */\n      swap2\n      swap1\n      pop\n      jump\t// out\n        /* \"#utility.yul\":1483:1663   */\n    tag_33:\n        /* \"#utility.yul\":1531:1608   */\n      0x4e487b7100000000000000000000000000000000000000000000000000000000\n        /* \"#utility.yul\":1528:1529   */\n      0x00\n        /* \"#utility.yul\":1521:1609   */\n      mstore\n        /* \"#utility.yul\":1628:1632   */\n      0x32\n        /* \"#utility.yul\":1625:1626   */\n      0x04\n        /* \"#utility.yul\":1618:1633   */\n      mstore\n        /* \"#utility.yul\":1652:1656   */\n      0x24\n        /* \"#utility.yul\":1649:1650   */\n      0x00\n        /* \"#utility.yul\":1642:1657   */\n      revert\n        /* \"#utility.yul\":1792:1909   */\n    tag_48:\n        /* \"#utility.yul\":1901:1902   */\n      0x00\n        /* \"#utility.yul\":1898:1899   */\n      dup1\n        /* \"#utility.yul\":1891:1903   */\n      revert\n        /* \"#utility.yul\":1915:2037   */\n    tag_44:\n        /* \"#utility.yul\":1988:2012   */\n      tag_69\n        /* \"#utility.yul\":2006:2011   */\n      dup2\n        /* \"#utility.yul\":1988:2012   */\n      tag_58\n      jump\t// in\n    tag_69:\n        /* \"#utility.yul\":1981:1986   */\n      dup2\n        /* \"#utility.yul\":1978:2013   */\n      eq\n        /* \"#utility.yul\":1968:2031   */\n      tag_70\n      jumpi\n        /* \"#utility.yul\":2027:2028   */\n      0x00\n        /* \"#utility.yul\":2024:2025   */\n      dup1\n        /* \"#utility.yul\":2017:2029   */\n      revert\n        /* \"#utility.yul\":1968:2031   */\n    tag_70:\n        /* \"#utility.yul\":1915:2037   */\n      pop\n      jump\t// out\n\n    auxdata: 0xa2646970667358221220bbaf2a8c40cb53d3a5443da49c21c786b0c3b32fb2d07eef0835c58a5f785d2f64736f6c63430008070033\n}\n",
				"bytecode": {
					"linkReferences": {},
					"object": "60806040526040518060e00160405280600a60ff168152602001601e60ff168152602001602d60ff168152602001604160ff168152602001601660ff168152602001600c60ff168152602001603660ff168152506000906007610063929190610076565b5034801561007057600080fd5b506100d8565b82600781019282156100aa579160200282015b828111156100a9578251829060ff16905591602001919060010190610089565b5b5090506100b791906100bb565b5090565b5b808211156100d45760008160009055506001016100bc565b5090565b6102e0806100e76000396000f3fe608060405234801561001057600080fd5b50600436106100575760003560e01c80630423ee831461005c5780635298f36d146100785780636987b1fb1461009457806371e5ee5f146100c4578063daebd872146100f4575b600080fd5b610076600480360381019061007191906101be565b610112565b005b610092600480360381019061008d91906101eb565b61013e565b005b6100ae60048036038101906100a991906101be565b61015c565b6040516100bb919061023a565b60405180910390f35b6100de60048036038101906100d991906101be565b610180565b6040516100eb919061023a565b60405180910390f35b6100fc61019b565b604051610109919061023a565b60405180910390f35b600781908060018154018082558091505060019003906000526020600020016000909190919091505550565b80600083600781106101535761015261025f565b5b01819055505050565b6007818154811061016c57600080fd5b906000526020600020016000915090505481565b6000816007811061019057600080fd5b016000915090505481565b600080600790508091505090565b6000813590506101b881610293565b92915050565b6000602082840312156101d4576101d361028e565b5b60006101e2848285016101a9565b91505092915050565b600080604083850312156102025761020161028e565b5b6000610210858286016101a9565b9250506020610221858286016101a9565b9150509250929050565b61023481610255565b82525050565b600060208201905061024f600083018461022b565b92915050565b6000819050919050565b7f4e487b7100000000000000000000000000000000000000000000000000000000600052603260045260246000fd5b600080fd5b61029c81610255565b81146102a757600080fd5b5056fea2646970667358221220bbaf2a8c40cb53d3a5443da49c21c786b0c3b32fb2d07eef0835c58a5f785d2f64736f6c63430008070033",
					"opcodes": "PUSH1 0x80 PUSH1 0x40 MSTORE PUSH1 0x40 MLOAD DUP1 PUSH1 0xE0 ADD PUSH1 0x40 MSTORE DUP1 PUSH1 0xA PUSH1 0xFF AND DUP2 MSTORE PUSH1 0x20 ADD PUSH1 0x1E PUSH1 0xFF AND DUP2 MSTORE PUSH1 0x20 ADD PUSH1 0x2D PUSH1 0xFF AND DUP2 MSTORE PUSH1 0x20 ADD PUSH1 0x41 PUSH1 0xFF AND DUP2 MSTORE PUSH1 0x20 ADD PUSH1 0x16 PUSH1 0xFF AND DUP2 MSTORE PUSH1 0x20 ADD PUSH1 0xC PUSH1 0xFF AND DUP2 MSTORE PUSH1 0x20 ADD PUSH1 0x36 PUSH1 0xFF AND DUP2 MSTORE POP PUSH1 0x0 SWAP1 PUSH1 0x7 PUSH2 0x63 SWAP3 SWAP2 SWAP1 PUSH2 0x76 JUMP JUMPDEST POP CALLVALUE DUP1 ISZERO PUSH2 0x70 JUMPI PUSH1 0x0 DUP1 REVERT JUMPDEST POP PUSH2 0xD8 JUMP JUMPDEST DUP3 PUSH1 0x7 DUP2 ADD SWAP3 DUP3 ISZERO PUSH2 0xAA JUMPI SWAP2 PUSH1 0x20 MUL DUP3 ADD JUMPDEST DUP3 DUP2 GT ISZERO PUSH2 0xA9 JUMPI DUP3 MLOAD DUP3 SWAP1 PUSH1 0xFF AND SWAP1 SSTORE SWAP2 PUSH1 0x20 ADD SWAP2 SWAP1 PUSH1 0x1 ADD SWAP1 PUSH2 0x89 JUMP JUMPDEST JUMPDEST POP SWAP1 POP PUSH2 0xB7 SWAP2 SWAP1 PUSH2 0xBB JUMP JUMPDEST POP SWAP1 JUMP JUMPDEST JUMPDEST DUP1 DUP3 GT ISZERO PUSH2 0xD4 JUMPI PUSH1 0x0 DUP2 PUSH1 0x0 SWAP1 SSTORE POP PUSH1 0x1 ADD PUSH2 0xBC JUMP JUMPDEST POP SWAP1 JUMP JUMPDEST PUSH2 0x2E0 DUP1 PUSH2 0xE7 PUSH1 0x0 CODECOPY PUSH1 0x0 RETURN INVALID PUSH1 0x80 PUSH1 0x40 MSTORE CALLVALUE DUP1 ISZERO PUSH2 0x10 JUMPI PUSH1 0x0 DUP1 REVERT JUMPDEST POP PUSH1 0x4 CALLDATASIZE LT PUSH2 0x57 JUMPI PUSH1 0x0 CALLDATALOAD PUSH1 0xE0 SHR DUP1 PUSH4 0x423EE83 EQ PUSH2 0x5C JUMPI DUP1 PUSH4 0x5298F36D EQ PUSH2 0x78 JUMPI DUP1 PUSH4 0x6987B1FB EQ PUSH2 0x94 JUMPI DUP1 PUSH4 0x71E5EE5F EQ PUSH2 0xC4 JUMPI DUP1 PUSH4 0xDAEBD872 EQ PUSH2 0xF4 JUMPI JUMPDEST PUSH1 0x0 DUP1 REVERT JUMPDEST PUSH2 0x76 PUSH1 0x4 DUP1 CALLDATASIZE SUB DUP2 ADD SWAP1 PUSH2 0x71 SWAP2 SWAP1 PUSH2 0x1BE JUMP JUMPDEST PUSH2 0x112 JUMP JUMPDEST STOP JUMPDEST PUSH2 0x92 PUSH1 0x4 DUP1 CALLDATASIZE SUB DUP2 ADD SWAP1 PUSH2 0x8D SWAP2 SWAP1 PUSH2 0x1EB JUMP JUMPDEST PUSH2 0x13E JUMP JUMPDEST STOP JUMPDEST PUSH2 0xAE PUSH1 0x4 DUP1 CALLDATASIZE SUB DUP2 ADD SWAP1 PUSH2 0xA9 SWAP2 SWAP1 PUSH2 0x1BE JUMP JUMPDEST PUSH2 0x15C JUMP JUMPDEST PUSH1 0x40 MLOAD PUSH2 0xBB SWAP2 SWAP1 PUSH2 0x23A JUMP JUMPDEST PUSH1 0x40 MLOAD DUP1 SWAP2 SUB SWAP1 RETURN JUMPDEST PUSH2 0xDE PUSH1 0x4 DUP1 CALLDATASIZE SUB DUP2 ADD SWAP1 PUSH2 0xD9 SWAP2 SWAP1 PUSH2 0x1BE JUMP JUMPDEST PUSH2 0x180 JUMP JUMPDEST PUSH1 0x40 MLOAD PUSH2 0xEB SWAP2 SWAP1 PUSH2 0x23A JUMP JUMPDEST PUSH1 0x40 MLOAD DUP1 SWAP2 SUB SWAP1 RETURN JUMPDEST PUSH2 0xFC PUSH2 0x19B JUMP JUMPDEST PUSH1 0x40 MLOAD PUSH2 0x109 SWAP2 SWAP1 PUSH2 0x23A JUMP JUMPDEST PUSH1 0x40 MLOAD DUP1 SWAP2 SUB SWAP1 RETURN JUMPDEST PUSH1 0x7 DUP2 SWAP1 DUP1 PUSH1 0x1 DUP2 SLOAD ADD DUP1 DUP3 SSTORE DUP1 SWAP2 POP POP PUSH1 0x1 SWAP1 SUB SWAP1 PUSH1 0x0 MSTORE PUSH1 0x20 PUSH1 0x0 KECCAK256 ADD PUSH1 0x0 SWAP1 SWAP2 SWAP1 SWAP2 SWAP1 SWAP2 POP SSTORE POP JUMP JUMPDEST DUP1 PUSH1 0x0 DUP4 PUSH1 0x7 DUP2 LT PUSH2 0x153 JUMPI PUSH2 0x152 PUSH2 0x25F JUMP JUMPDEST JUMPDEST ADD DUP2 SWAP1 SSTORE POP POP POP JUMP JUMPDEST PUSH1 0x7 DUP2 DUP2 SLOAD DUP2 LT PUSH2 0x16C JUMPI PUSH1 0x0 DUP1 REVERT JUMPDEST SWAP1 PUSH1 0x0 MSTORE PUSH1 0x20 PUSH1 0x0 KECCAK256 ADD PUSH1 0x0 SWAP2 POP SWAP1 POP SLOAD DUP2 JUMP JUMPDEST PUSH1 0x0 DUP2 PUSH1 0x7 DUP2 LT PUSH2 0x190 JUMPI PUSH1 0x0 DUP1 REVERT JUMPDEST ADD PUSH1 0x0 SWAP2 POP SWAP1 POP SLOAD DUP2 JUMP JUMPDEST PUSH1 0x0 DUP1 PUSH1 0x7 SWAP1 POP DUP1 SWAP2 POP POP SWAP1 JUMP JUMPDEST PUSH1 0x0 DUP2 CALLDATALOAD SWAP1 POP PUSH2 0x1B8 DUP2 PUSH2 0x293 JUMP JUMPDEST SWAP3 SWAP2 POP POP JUMP JUMPDEST PUSH1 0x0 PUSH1 0x20 DUP3 DUP5 SUB SLT ISZERO PUSH2 0x1D4 JUMPI PUSH2 0x1D3 PUSH2 0x28E JUMP JUMPDEST JUMPDEST PUSH1 0x0 PUSH2 0x1E2 DUP5 DUP3 DUP6 ADD PUSH2 0x1A9 JUMP JUMPDEST SWAP2 POP POP SWAP3 SWAP2 POP POP JUMP JUMPDEST PUSH1 0x0 DUP1 PUSH1 0x40 DUP4 DUP6 SUB SLT ISZERO PUSH2 0x202 JUMPI PUSH2 0x201 PUSH2 0x28E JUMP JUMPDEST JUMPDEST PUSH1 0x0 PUSH2 0x210 DUP6 DUP3 DUP7 ADD PUSH2 0x1A9 JUMP JUMPDEST SWAP3 POP POP PUSH1 0x20 PUSH2 0x221 DUP6 DUP3 DUP7 ADD PUSH2 0x1A9 JUMP JUMPDEST SWAP2 POP POP SWAP3 POP SWAP3 SWAP1 POP JUMP JUMPDEST PUSH2 0x234 DUP2 PUSH2 0x255 JUMP JUMPDEST DUP3 MSTORE POP POP JUMP JUMPDEST PUSH1 0x0 PUSH1 0x20 DUP3 ADD SWAP1 POP PUSH2 0x24F PUSH1 0x0 DUP4 ADD DUP5 PUSH2 0x22B JUMP JUMPDEST SWAP3 SWAP2 POP POP JUMP JUMPDEST PUSH1 0x0 DUP2 SWAP1 POP SWAP2 SWAP1 POP JUMP JUMPDEST PUSH32 0x4E487B7100000000000000000000000000000000000000000000000000000000 PUSH1 0x0 MSTORE PUSH1 0x32 PUSH1 0x4 MSTORE PUSH1 0x24 PUSH1 0x0 REVERT JUMPDEST PUSH1 0x0 DUP1 REVERT JUMPDEST PUSH2 0x29C DUP2 PUSH2 0x255 JUMP JUMPDEST DUP2 EQ PUSH2 0x2A7 JUMPI PUSH1 0x0 DUP1 REVERT JUMPDEST POP JUMP INVALID LOG2 PUSH5 0x6970667358 0x22 SLT KECCAK256 0xBB 0xAF 0x2A DUP13 BLOCKHASH 0xCB MSTORE8 0xD3 0xA5 DIFFICULTY RETURNDATASIZE LOG4 SWAP13 0x21 0xC7 DUP7 0xB0 0xC3 0xB3 0x2F 0xB2 0xD0 PUSH31 0xEF0835C58A5F785D2F64736F6C634300080700330000000000000000000000 "
				},
				"gasEstimates": {
					"creation": {
						"codeDepositCost": "147200",
						"executionCost": "infinite",
						"totalCost": "infinite"
					},
					"external": {
						"arr(uint256)": "infinite",
						"arr1(uint256)": "infinite",
						"readd()": "416",
						"setter(uint256,uint256)": "infinite",
						"setter1(uint256)": "46807"
					}
				},
				"methodIdentifiers": {
					"arr(uint256)": "71e5ee5f",
					"arr1(uint256)": "6987b1fb",
					"readd()": "daebd872",
					"setter(uint256,uint256)": "5298f36d",
					"setter1(uint256)": "0423ee83"
				}
			},
			"storageLayout": {
				"storage": [
					{
						"astId": 13,
						"contract": "contracts/MyCoin.sol:Mycoin",
						"label": "arr",
						"offset": 0,
						"slot": "0",
						"type": "t_array(t_uint256)7_storage"
					},
					{
						"astId": 16,
						"contract": "contracts/MyCoin.sol:Mycoin",
						"label": "arr1",
						"offset": 0,
						"slot": "7",
						"type": "t_array(t_uint256)dyn_storage"
					}
				],
				"types": {
					"t_array(t_uint256)7_storage": {
						"base": "t_uint256",
						"encoding": "inplace",
						"label": "uint256[7]",
						"numberOfBytes": "224"
					},
					"t_array(t_uint256)dyn_storage": {
						"base": "t_uint256",
						"encoding": "dynamic_array",
						"label": "uint256[]",
						"numberOfBytes": "32"
					},
					"t_uint256": {
						"encoding": "inplace",
						"label": "uint256",
						"numberOfBytes": "32"
					}
				}
			},
			"userdoc": {
				"kind": "user",
				"methods": {},
				"version": 1
			}
		}
	}
}