{
	"contracts/MyContract.sol": {
		"Mycontract": {
			"abi": [
				{
					"inputs": [
						{
							"internalType": "uint256",
							"name": "_numbers",
							"type": "uint256"
						}
					],
					"name": "isEven",
					"outputs": [
						{
							"internalType": "bool",
							"name": "",
							"type": "bool"
						}
					],
					"stateMutability": "view",
					"type": "function"
				},
				{
					"inputs": [
						{
							"internalType": "uint256",
							"name": "",
							"type": "uint256"
						}
					],
					"name": "numbers",
					"outputs": [
						{
							"internalType": "uint256",
							"name": "",
							"type": "uint256"
						}
					],
					"stateMutability": "view",
					"type": "function"
				}
			],
			"devdoc": {
				"kind": "dev",
				"methods": {},
				"version": 1
			},
			"evm": {
				"assembly": "    /* \"contracts/MyContract.sol\":59:429  contract Mycontract{\r... */\n  mstore(0x40, 0x80)\n    /* \"contracts/MyContract.sol\":85:127  uint[] public numbers = [1, 2, 3, 4, 5, 6] */\n  mload(0x40)\n  dup1\n  0xc0\n  add\n  0x40\n  mstore\n  dup1\n    /* \"contracts/MyContract.sol\":110:111  1 */\n  0x01\n    /* \"contracts/MyContract.sol\":85:127  uint[] public numbers = [1, 2, 3, 4, 5, 6] */\n  0xff\n  and\n  dup2\n  mstore\n  0x20\n  add\n    /* \"contracts/MyContract.sol\":113:114  2 */\n  0x02\n    /* \"contracts/MyContract.sol\":85:127  uint[] public numbers = [1, 2, 3, 4, 5, 6] */\n  0xff\n  and\n  dup2\n  mstore\n  0x20\n  add\n    /* \"contracts/MyContract.sol\":116:117  3 */\n  0x03\n    /* \"contracts/MyContract.sol\":85:127  uint[] public numbers = [1, 2, 3, 4, 5, 6] */\n  0xff\n  and\n  dup2\n  mstore\n  0x20\n  add\n    /* \"contracts/MyContract.sol\":119:120  4 */\n  0x04\n    /* \"contracts/MyContract.sol\":85:127  uint[] public numbers = [1, 2, 3, 4, 5, 6] */\n  0xff\n  and\n  dup2\n  mstore\n  0x20\n  add\n    /* \"contracts/MyContract.sol\":122:123  5 */\n  0x05\n    /* \"contracts/MyContract.sol\":85:127  uint[] public numbers = [1, 2, 3, 4, 5, 6] */\n  0xff\n  and\n  dup2\n  mstore\n  0x20\n  add\n    /* \"contracts/MyContract.sol\":125:126  6 */\n  0x06\n    /* \"contracts/MyContract.sol\":85:127  uint[] public numbers = [1, 2, 3, 4, 5, 6] */\n  0xff\n  and\n  dup2\n  mstore\n  pop\n  0x00\n  swap1\n  0x06\n  tag_1\n  swap3\n  swap2\n  swap1\n  tag_2\n  jump\t// in\ntag_1:\n  pop\n    /* \"contracts/MyContract.sol\":59:429  contract Mycontract{\r... */\n  callvalue\n  dup1\n  iszero\n  tag_3\n  jumpi\n  0x00\n  dup1\n  revert\ntag_3:\n  pop\n  jump(tag_4)\ntag_2:\n  dup3\n  dup1\n  sload\n  dup3\n  dup3\n  sstore\n  swap1\n  0x00\n  mstore\n  keccak256(0x00, 0x20)\n  swap1\n  dup2\n  add\n  swap3\n  dup3\n  iszero\n  tag_5\n  jumpi\n  swap2\n  0x20\n  mul\n  dup3\n  add\ntag_6:\n  dup3\n  dup2\n  gt\n  iszero\n  tag_7\n  jumpi\n  dup3\n  mload\n  dup3\n  swap1\n  0xff\n  and\n  swap1\n  sstore\n  swap2\n  0x20\n  add\n  swap2\n  swap1\n  0x01\n  add\n  swap1\n  jump(tag_6)\ntag_7:\ntag_5:\n  pop\n  swap1\n  pop\n  tag_8\n  swap2\n  swap1\n  tag_9\n  jump\t// in\ntag_8:\n  pop\n  swap1\n  jump\t// out\ntag_9:\ntag_10:\n  dup1\n  dup3\n  gt\n  iszero\n  tag_11\n  jumpi\n  0x00\n  dup2\n  0x00\n  swap1\n  sstore\n  pop\n  0x01\n  add\n  jump(tag_10)\ntag_11:\n  pop\n  swap1\n  jump\t// out\ntag_4:\n  dataSize(sub_0)\n  dup1\n  dataOffset(sub_0)\n  0x00\n  codecopy\n  0x00\n  return\nstop\n\nsub_0: assembly {\n        /* \"contracts/MyContract.sol\":59:429  contract Mycontract{\r... */\n      mstore(0x40, 0x80)\n      callvalue\n      dup1\n      iszero\n      tag_1\n      jumpi\n      0x00\n      dup1\n      revert\n    tag_1:\n      pop\n      jumpi(tag_2, lt(calldatasize, 0x04))\n      shr(0xe0, calldataload(0x00))\n      dup1\n      0x2a2e1320\n      eq\n      tag_3\n      jumpi\n      dup1\n      0xd39fa233\n      eq\n      tag_4\n      jumpi\n    tag_2:\n      0x00\n      dup1\n      revert\n        /* \"contracts/MyContract.sol\":166:426  function isEven(uint _numbers) public view returns(bool){\r... */\n    tag_3:\n      tag_5\n      0x04\n      dup1\n      calldatasize\n      sub\n      dup2\n      add\n      swap1\n      tag_6\n      swap2\n      swap1\n      tag_7\n      jump\t// in\n    tag_6:\n      tag_8\n      jump\t// in\n    tag_5:\n      mload(0x40)\n      tag_9\n      swap2\n      swap1\n      tag_10\n      jump\t// in\n    tag_9:\n      mload(0x40)\n      dup1\n      swap2\n      sub\n      swap1\n      return\n        /* \"contracts/MyContract.sol\":85:127  uint[] public numbers = [1, 2, 3, 4, 5, 6] */\n    tag_4:\n      tag_11\n      0x04\n      dup1\n      calldatasize\n      sub\n      dup2\n      add\n      swap1\n      tag_12\n      swap2\n      swap1\n      tag_7\n      jump\t// in\n    tag_12:\n      tag_13\n      jump\t// in\n    tag_11:\n      mload(0x40)\n      tag_14\n      swap2\n      swap1\n      tag_15\n      jump\t// in\n    tag_14:\n      mload(0x40)\n      dup1\n      swap2\n      sub\n      swap1\n      return\n        /* \"contracts/MyContract.sol\":166:426  function isEven(uint _numbers) public view returns(bool){\r... */\n    tag_8:\n        /* \"contracts/MyContract.sol\":217:221  bool */\n      0x00\n        /* \"contracts/MyContract.sol\":237:243  uint i */\n      dup1\n        /* \"contracts/MyContract.sol\":246:247  0 */\n      0x00\n        /* \"contracts/MyContract.sol\":237:247  uint i = 0 */\n      swap1\n      pop\n        /* \"contracts/MyContract.sol\":253:260  numbers */\n      0x00\n        /* \"contracts/MyContract.sol\":253:267  numbers.length */\n      dup1\n      sload\n      swap1\n      pop\n        /* \"contracts/MyContract.sol\":249:250  i */\n      dup2\n        /* \"contracts/MyContract.sol\":249:267  i < numbers.length */\n      lt\n        /* \"contracts/MyContract.sol\":233:419  for(uint i = 0; i < numbers.length; i++){\r... */\n      iszero\n      tag_18\n      jumpi\n        /* \"contracts/MyContract.sol\":309:310  0 */\n      0x00\n        /* \"contracts/MyContract.sol\":304:305  2 */\n      0x02\n        /* \"contracts/MyContract.sol\":291:298  numbers */\n      0x00\n        /* \"contracts/MyContract.sol\":299:300  i */\n      dup4\n        /* \"contracts/MyContract.sol\":291:301  numbers[i] */\n      dup2\n      sload\n      dup2\n      lt\n      tag_20\n      jumpi\n      tag_21\n      tag_22\n      jump\t// in\n    tag_21:\n    tag_20:\n      swap1\n      0x00\n      mstore\n      keccak256(0x00, 0x20)\n      add\n      sload\n        /* \"contracts/MyContract.sol\":291:305  numbers[i] % 2 */\n      tag_24\n      swap2\n      swap1\n      tag_25\n      jump\t// in\n    tag_24:\n        /* \"contracts/MyContract.sol\":291:310  numbers[i] % 2 == 0 */\n      eq\n        /* \"contracts/MyContract.sol\":288:408  if(numbers[i] % 2 == 0){\r... */\n      iszero\n      tag_26\n      jumpi\n        /* \"contracts/MyContract.sol\":337:341  true */\n      0x01\n        /* \"contracts/MyContract.sol\":330:341  return true */\n      swap2\n      pop\n      pop\n      jump(tag_16)\n        /* \"contracts/MyContract.sol\":288:408  if(numbers[i] % 2 == 0){\r... */\n    tag_26:\n        /* \"contracts/MyContract.sol\":387:392  false */\n      0x00\n        /* \"contracts/MyContract.sol\":380:392  return false */\n      swap2\n      pop\n      pop\n      jump(tag_16)\n        /* \"contracts/MyContract.sol\":233:419  for(uint i = 0; i < numbers.length; i++){\r... */\n    tag_18:\n      pop\n        /* \"contracts/MyContract.sol\":166:426  function isEven(uint _numbers) public view returns(bool){\r... */\n    tag_16:\n      swap2\n      swap1\n      pop\n      jump\t// out\n        /* \"contracts/MyContract.sol\":85:127  uint[] public numbers = [1, 2, 3, 4, 5, 6] */\n    tag_13:\n      0x00\n      dup2\n      dup2\n      sload\n      dup2\n      lt\n      tag_30\n      jumpi\n      0x00\n      dup1\n      revert\n    tag_30:\n      swap1\n      0x00\n      mstore\n      keccak256(0x00, 0x20)\n      add\n      0x00\n      swap2\n      pop\n      swap1\n      pop\n      sload\n      dup2\n      jump\t// out\n        /* \"#utility.yul\":7:146   */\n    tag_33:\n        /* \"#utility.yul\":53:58   */\n      0x00\n        /* \"#utility.yul\":91:97   */\n      dup2\n        /* \"#utility.yul\":78:98   */\n      calldataload\n        /* \"#utility.yul\":69:98   */\n      swap1\n      pop\n        /* \"#utility.yul\":107:140   */\n      tag_35\n        /* \"#utility.yul\":134:139   */\n      dup2\n        /* \"#utility.yul\":107:140   */\n      tag_36\n      jump\t// in\n    tag_35:\n        /* \"#utility.yul\":7:146   */\n      swap3\n      swap2\n      pop\n      pop\n      jump\t// out\n        /* \"#utility.yul\":152:481   */\n    tag_7:\n        /* \"#utility.yul\":211:217   */\n      0x00\n        /* \"#utility.yul\":260:262   */\n      0x20\n        /* \"#utility.yul\":248:257   */\n      dup3\n        /* \"#utility.yul\":239:246   */\n      dup5\n        /* \"#utility.yul\":235:258   */\n      sub\n        /* \"#utility.yul\":231:263   */\n      slt\n        /* \"#utility.yul\":228:347   */\n      iszero\n      tag_38\n      jumpi\n        /* \"#utility.yul\":266:345   */\n      tag_39\n      tag_40\n      jump\t// in\n    tag_39:\n        /* \"#utility.yul\":228:347   */\n    tag_38:\n        /* \"#utility.yul\":386:387   */\n      0x00\n        /* \"#utility.yul\":411:464   */\n      tag_41\n        /* \"#utility.yul\":456:463   */\n      dup5\n        /* \"#utility.yul\":447:453   */\n      dup3\n        /* \"#utility.yul\":436:445   */\n      dup6\n        /* \"#utility.yul\":432:454   */\n      add\n        /* \"#utility.yul\":411:464   */\n      tag_33\n      jump\t// in\n    tag_41:\n        /* \"#utility.yul\":401:464   */\n      swap2\n      pop\n        /* \"#utility.yul\":357:474   */\n      pop\n        /* \"#utility.yul\":152:481   */\n      swap3\n      swap2\n      pop\n      pop\n      jump\t// out\n        /* \"#utility.yul\":487:596   */\n    tag_42:\n        /* \"#utility.yul\":568:589   */\n      tag_44\n        /* \"#utility.yul\":583:588   */\n      dup2\n        /* \"#utility.yul\":568:589   */\n      tag_45\n      jump\t// in\n    tag_44:\n        /* \"#utility.yul\":563:566   */\n      dup3\n        /* \"#utility.yul\":556:590   */\n      mstore\n        /* \"#utility.yul\":487:596   */\n      pop\n      pop\n      jump\t// out\n        /* \"#utility.yul\":602:720   */\n    tag_46:\n        /* \"#utility.yul\":689:713   */\n      tag_48\n        /* \"#utility.yul\":707:712   */\n      dup2\n        /* \"#utility.yul\":689:713   */\n      tag_49\n      jump\t// in\n    tag_48:\n        /* \"#utility.yul\":684:687   */\n      dup3\n        /* \"#utility.yul\":677:714   */\n      mstore\n        /* \"#utility.yul\":602:720   */\n      pop\n      pop\n      jump\t// out\n        /* \"#utility.yul\":726:936   */\n    tag_10:\n        /* \"#utility.yul\":813:817   */\n      0x00\n        /* \"#utility.yul\":851:853   */\n      0x20\n        /* \"#utility.yul\":840:849   */\n      dup3\n        /* \"#utility.yul\":836:854   */\n      add\n        /* \"#utility.yul\":828:854   */\n      swap1\n      pop\n        /* \"#utility.yul\":864:929   */\n      tag_51\n        /* \"#utility.yul\":926:927   */\n      0x00\n        /* \"#utility.yul\":915:924   */\n      dup4\n        /* \"#utility.yul\":911:928   */\n      add\n        /* \"#utility.yul\":902:908   */\n      dup5\n        /* \"#utility.yul\":864:929   */\n      tag_42\n      jump\t// in\n    tag_51:\n        /* \"#utility.yul\":726:936   */\n      swap3\n      swap2\n      pop\n      pop\n      jump\t// out\n        /* \"#utility.yul\":942:1164   */\n    tag_15:\n        /* \"#utility.yul\":1035:1039   */\n      0x00\n        /* \"#utility.yul\":1073:1075   */\n      0x20\n        /* \"#utility.yul\":1062:1071   */\n      dup3\n        /* \"#utility.yul\":1058:1076   */\n      add\n        /* \"#utility.yul\":1050:1076   */\n      swap1\n      pop\n        /* \"#utility.yul\":1086:1157   */\n      tag_53\n        /* \"#utility.yul\":1154:1155   */\n      0x00\n        /* \"#utility.yul\":1143:1152   */\n      dup4\n        /* \"#utility.yul\":1139:1156   */\n      add\n        /* \"#utility.yul\":1130:1136   */\n      dup5\n        /* \"#utility.yul\":1086:1157   */\n      tag_46\n      jump\t// in\n    tag_53:\n        /* \"#utility.yul\":942:1164   */\n      swap3\n      swap2\n      pop\n      pop\n      jump\t// out\n        /* \"#utility.yul\":1251:1341   */\n    tag_45:\n        /* \"#utility.yul\":1285:1292   */\n      0x00\n        /* \"#utility.yul\":1328:1333   */\n      dup2\n        /* \"#utility.yul\":1321:1334   */\n      iszero\n        /* \"#utility.yul\":1314:1335   */\n      iszero\n        /* \"#utility.yul\":1303:1335   */\n      swap1\n      pop\n        /* \"#utility.yul\":1251:1341   */\n      swap2\n      swap1\n      pop\n      jump\t// out\n        /* \"#utility.yul\":1347:1424   */\n    tag_49:\n        /* \"#utility.yul\":1384:1391   */\n      0x00\n        /* \"#utility.yul\":1413:1418   */\n      dup2\n        /* \"#utility.yul\":1402:1418   */\n      swap1\n      pop\n        /* \"#utility.yul\":1347:1424   */\n      swap2\n      swap1\n      pop\n      jump\t// out\n        /* \"#utility.yul\":1669:1845   */\n    tag_25:\n        /* \"#utility.yul\":1701:1702   */\n      0x00\n        /* \"#utility.yul\":1718:1738   */\n      tag_64\n        /* \"#utility.yul\":1736:1737   */\n      dup3\n        /* \"#utility.yul\":1718:1738   */\n      tag_49\n      jump\t// in\n    tag_64:\n        /* \"#utility.yul\":1713:1738   */\n      swap2\n      pop\n        /* \"#utility.yul\":1752:1772   */\n      tag_65\n        /* \"#utility.yul\":1770:1771   */\n      dup4\n        /* \"#utility.yul\":1752:1772   */\n      tag_49\n      jump\t// in\n    tag_65:\n        /* \"#utility.yul\":1747:1772   */\n      swap3\n      pop\n        /* \"#utility.yul\":1791:1792   */\n      dup3\n        /* \"#utility.yul\":1781:1816   */\n      tag_66\n      jumpi\n        /* \"#utility.yul\":1796:1814   */\n      tag_67\n      tag_68\n      jump\t// in\n    tag_67:\n        /* \"#utility.yul\":1781:1816   */\n    tag_66:\n        /* \"#utility.yul\":1837:1838   */\n      dup3\n        /* \"#utility.yul\":1834:1835   */\n      dup3\n        /* \"#utility.yul\":1830:1839   */\n      mod\n        /* \"#utility.yul\":1825:1839   */\n      swap1\n      pop\n        /* \"#utility.yul\":1669:1845   */\n      swap3\n      swap2\n      pop\n      pop\n      jump\t// out\n        /* \"#utility.yul\":2037:2217   */\n    tag_68:\n        /* \"#utility.yul\":2085:2162   */\n      0x4e487b7100000000000000000000000000000000000000000000000000000000\n        /* \"#utility.yul\":2082:2083   */\n      0x00\n        /* \"#utility.yul\":2075:2163   */\n      mstore\n        /* \"#utility.yul\":2182:2186   */\n      0x12\n        /* \"#utility.yul\":2179:2180   */\n      0x04\n        /* \"#utility.yul\":2172:2187   */\n      mstore\n        /* \"#utility.yul\":2206:2210   */\n      0x24\n        /* \"#utility.yul\":2203:2204   */\n      0x00\n        /* \"#utility.yul\":2196:2211   */\n      revert\n        /* \"#utility.yul\":2223:2403   */\n    tag_22:\n        /* \"#utility.yul\":2271:2348   */\n      0x4e487b7100000000000000000000000000000000000000000000000000000000\n        /* \"#utility.yul\":2268:2269   */\n      0x00\n        /* \"#utility.yul\":2261:2349   */\n      mstore\n        /* \"#utility.yul\":2368:2372   */\n      0x32\n        /* \"#utility.yul\":2365:2366   */\n      0x04\n        /* \"#utility.yul\":2358:2373   */\n      mstore\n        /* \"#utility.yul\":2392:2396   */\n      0x24\n        /* \"#utility.yul\":2389:2390   */\n      0x00\n        /* \"#utility.yul\":2382:2397   */\n      revert\n        /* \"#utility.yul\":2532:2649   */\n    tag_40:\n        /* \"#utility.yul\":2641:2642   */\n      0x00\n        /* \"#utility.yul\":2638:2639   */\n      dup1\n        /* \"#utility.yul\":2631:2643   */\n      revert\n        /* \"#utility.yul\":2655:2777   */\n    tag_36:\n        /* \"#utility.yul\":2728:2752   */\n      tag_76\n        /* \"#utility.yul\":2746:2751   */\n      dup2\n        /* \"#utility.yul\":2728:2752   */\n      tag_49\n      jump\t// in\n    tag_76:\n        /* \"#utility.yul\":2721:2726   */\n      dup2\n        /* \"#utility.yul\":2718:2753   */\n      eq\n        /* \"#utility.yul\":2708:2771   */\n      tag_77\n      jumpi\n        /* \"#utility.yul\":2767:2768   */\n      0x00\n        /* \"#utility.yul\":2764:2765   */\n      dup1\n        /* \"#utility.yul\":2757:2769   */\n      revert\n        /* \"#utility.yul\":2708:2771   */\n    tag_77:\n        /* \"#utility.yul\":2655:2777   */\n      pop\n      jump\t// out\n\n    auxdata: 0xa2646970667358221220737b6343a5e714470878025fd81908cb664a313d68daccb2171278ee3466fd4464736f6c63430008070033\n}\n",
				"bytecode": {
					"linkReferences": {},
					"object": "60806040526040518060c00160405280600160ff168152602001600260ff168152602001600360ff168152602001600460ff168152602001600560ff168152602001600660ff16815250600090600661005992919061006c565b5034801561006657600080fd5b506100db565b8280548282559060005260206000209081019282156100ad579160200282015b828111156100ac578251829060ff1690559160200191906001019061008c565b5b5090506100ba91906100be565b5090565b5b808211156100d75760008160009055506001016100bf565b5090565b6102ae806100ea6000396000f3fe608060405234801561001057600080fd5b50600436106100365760003560e01c80632a2e13201461003b578063d39fa2331461006b575b600080fd5b61005560048036038101906100509190610136565b61009b565b6040516100629190610181565b60405180910390f35b61008560048036038101906100809190610136565b6100fd565b604051610092919061019c565b60405180910390f35b600080600090506000805490508110156100f65760006002600083815481106100c7576100c661022d565b5b90600052602060002001546100dc91906101cd565b14156100ec5760019150506100f8565b60009150506100f8565b505b919050565b6000818154811061010d57600080fd5b906000526020600020016000915090505481565b60008135905061013081610261565b92915050565b60006020828403121561014c5761014b61025c565b5b600061015a84828501610121565b91505092915050565b61016c816101b7565b82525050565b61017b816101c3565b82525050565b60006020820190506101966000830184610163565b92915050565b60006020820190506101b16000830184610172565b92915050565b60008115159050919050565b6000819050919050565b60006101d8826101c3565b91506101e3836101c3565b9250826101f3576101f26101fe565b5b828206905092915050565b7f4e487b7100000000000000000000000000000000000000000000000000000000600052601260045260246000fd5b7f4e487b7100000000000000000000000000000000000000000000000000000000600052603260045260246000fd5b600080fd5b61026a816101c3565b811461027557600080fd5b5056fea2646970667358221220737b6343a5e714470878025fd81908cb664a313d68daccb2171278ee3466fd4464736f6c63430008070033",
					"opcodes": "PUSH1 0x80 PUSH1 0x40 MSTORE PUSH1 0x40 MLOAD DUP1 PUSH1 0xC0 ADD PUSH1 0x40 MSTORE DUP1 PUSH1 0x1 PUSH1 0xFF AND DUP2 MSTORE PUSH1 0x20 ADD PUSH1 0x2 PUSH1 0xFF AND DUP2 MSTORE PUSH1 0x20 ADD PUSH1 0x3 PUSH1 0xFF AND DUP2 MSTORE PUSH1 0x20 ADD PUSH1 0x4 PUSH1 0xFF AND DUP2 MSTORE PUSH1 0x20 ADD PUSH1 0x5 PUSH1 0xFF AND DUP2 MSTORE PUSH1 0x20 ADD PUSH1 0x6 PUSH1 0xFF AND DUP2 MSTORE POP PUSH1 0x0 SWAP1 PUSH1 0x6 PUSH2 0x59 SWAP3 SWAP2 SWAP1 PUSH2 0x6C JUMP JUMPDEST POP CALLVALUE DUP1 ISZERO PUSH2 0x66 JUMPI PUSH1 0x0 DUP1 REVERT JUMPDEST POP PUSH2 0xDB JUMP JUMPDEST DUP3 DUP1 SLOAD DUP3 DUP3 SSTORE SWAP1 PUSH1 0x0 MSTORE PUSH1 0x20 PUSH1 0x0 KECCAK256 SWAP1 DUP2 ADD SWAP3 DUP3 ISZERO PUSH2 0xAD JUMPI SWAP2 PUSH1 0x20 MUL DUP3 ADD JUMPDEST DUP3 DUP2 GT ISZERO PUSH2 0xAC JUMPI DUP3 MLOAD DUP3 SWAP1 PUSH1 0xFF AND SWAP1 SSTORE SWAP2 PUSH1 0x20 ADD SWAP2 SWAP1 PUSH1 0x1 ADD SWAP1 PUSH2 0x8C JUMP JUMPDEST JUMPDEST POP SWAP1 POP PUSH2 0xBA SWAP2 SWAP1 PUSH2 0xBE JUMP JUMPDEST POP SWAP1 JUMP JUMPDEST JUMPDEST DUP1 DUP3 GT ISZERO PUSH2 0xD7 JUMPI PUSH1 0x0 DUP2 PUSH1 0x0 SWAP1 SSTORE POP PUSH1 0x1 ADD PUSH2 0xBF JUMP JUMPDEST POP SWAP1 JUMP JUMPDEST PUSH2 0x2AE DUP1 PUSH2 0xEA PUSH1 0x0 CODECOPY PUSH1 0x0 RETURN INVALID PUSH1 0x80 PUSH1 0x40 MSTORE CALLVALUE DUP1 ISZERO PUSH2 0x10 JUMPI PUSH1 0x0 DUP1 REVERT JUMPDEST POP PUSH1 0x4 CALLDATASIZE LT PUSH2 0x36 JUMPI PUSH1 0x0 CALLDATALOAD PUSH1 0xE0 SHR DUP1 PUSH4 0x2A2E1320 EQ PUSH2 0x3B JUMPI DUP1 PUSH4 0xD39FA233 EQ PUSH2 0x6B JUMPI JUMPDEST PUSH1 0x0 DUP1 REVERT JUMPDEST PUSH2 0x55 PUSH1 0x4 DUP1 CALLDATASIZE SUB DUP2 ADD SWAP1 PUSH2 0x50 SWAP2 SWAP1 PUSH2 0x136 JUMP JUMPDEST PUSH2 0x9B JUMP JUMPDEST PUSH1 0x40 MLOAD PUSH2 0x62 SWAP2 SWAP1 PUSH2 0x181 JUMP JUMPDEST PUSH1 0x40 MLOAD DUP1 SWAP2 SUB SWAP1 RETURN JUMPDEST PUSH2 0x85 PUSH1 0x4 DUP1 CALLDATASIZE SUB DUP2 ADD SWAP1 PUSH2 0x80 SWAP2 SWAP1 PUSH2 0x136 JUMP JUMPDEST PUSH2 0xFD JUMP JUMPDEST PUSH1 0x40 MLOAD PUSH2 0x92 SWAP2 SWAP1 PUSH2 0x19C JUMP JUMPDEST PUSH1 0x40 MLOAD DUP1 SWAP2 SUB SWAP1 RETURN JUMPDEST PUSH1 0x0 DUP1 PUSH1 0x0 SWAP1 POP PUSH1 0x0 DUP1 SLOAD SWAP1 POP DUP2 LT ISZERO PUSH2 0xF6 JUMPI PUSH1 0x0 PUSH1 0x2 PUSH1 0x0 DUP4 DUP2 SLOAD DUP2 LT PUSH2 0xC7 JUMPI PUSH2 0xC6 PUSH2 0x22D JUMP JUMPDEST JUMPDEST SWAP1 PUSH1 0x0 MSTORE PUSH1 0x20 PUSH1 0x0 KECCAK256 ADD SLOAD PUSH2 0xDC SWAP2 SWAP1 PUSH2 0x1CD JUMP JUMPDEST EQ ISZERO PUSH2 0xEC JUMPI PUSH1 0x1 SWAP2 POP POP PUSH2 0xF8 JUMP JUMPDEST PUSH1 0x0 SWAP2 POP POP PUSH2 0xF8 JUMP JUMPDEST POP JUMPDEST SWAP2 SWAP1 POP JUMP JUMPDEST PUSH1 0x0 DUP2 DUP2 SLOAD DUP2 LT PUSH2 0x10D JUMPI PUSH1 0x0 DUP1 REVERT JUMPDEST SWAP1 PUSH1 0x0 MSTORE PUSH1 0x20 PUSH1 0x0 KECCAK256 ADD PUSH1 0x0 SWAP2 POP SWAP1 POP SLOAD DUP2 JUMP JUMPDEST PUSH1 0x0 DUP2 CALLDATALOAD SWAP1 POP PUSH2 0x130 DUP2 PUSH2 0x261 JUMP JUMPDEST SWAP3 SWAP2 POP POP JUMP JUMPDEST PUSH1 0x0 PUSH1 0x20 DUP3 DUP5 SUB SLT ISZERO PUSH2 0x14C JUMPI PUSH2 0x14B PUSH2 0x25C JUMP JUMPDEST JUMPDEST PUSH1 0x0 PUSH2 0x15A DUP5 DUP3 DUP6 ADD PUSH2 0x121 JUMP JUMPDEST SWAP2 POP POP SWAP3 SWAP2 POP POP JUMP JUMPDEST PUSH2 0x16C DUP2 PUSH2 0x1B7 JUMP JUMPDEST DUP3 MSTORE POP POP JUMP JUMPDEST PUSH2 0x17B DUP2 PUSH2 0x1C3 JUMP JUMPDEST DUP3 MSTORE POP POP JUMP JUMPDEST PUSH1 0x0 PUSH1 0x20 DUP3 ADD SWAP1 POP PUSH2 0x196 PUSH1 0x0 DUP4 ADD DUP5 PUSH2 0x163 JUMP JUMPDEST SWAP3 SWAP2 POP POP JUMP JUMPDEST PUSH1 0x0 PUSH1 0x20 DUP3 ADD SWAP1 POP PUSH2 0x1B1 PUSH1 0x0 DUP4 ADD DUP5 PUSH2 0x172 JUMP JUMPDEST SWAP3 SWAP2 POP POP JUMP JUMPDEST PUSH1 0x0 DUP2 ISZERO ISZERO SWAP1 POP SWAP2 SWAP1 POP JUMP JUMPDEST PUSH1 0x0 DUP2 SWAP1 POP SWAP2 SWAP1 POP JUMP JUMPDEST PUSH1 0x0 PUSH2 0x1D8 DUP3 PUSH2 0x1C3 JUMP JUMPDEST SWAP2 POP PUSH2 0x1E3 DUP4 PUSH2 0x1C3 JUMP JUMPDEST SWAP3 POP DUP3 PUSH2 0x1F3 JUMPI PUSH2 0x1F2 PUSH2 0x1FE JUMP JUMPDEST JUMPDEST DUP3 DUP3 MOD SWAP1 POP SWAP3 SWAP2 POP POP JUMP JUMPDEST PUSH32 0x4E487B7100000000000000000000000000000000000000000000000000000000 PUSH1 0x0 MSTORE PUSH1 0x12 PUSH1 0x4 MSTORE PUSH1 0x24 PUSH1 0x0 REVERT JUMPDEST PUSH32 0x4E487B7100000000000000000000000000000000000000000000000000000000 PUSH1 0x0 MSTORE PUSH1 0x32 PUSH1 0x4 MSTORE PUSH1 0x24 PUSH1 0x0 REVERT JUMPDEST PUSH1 0x0 DUP1 REVERT JUMPDEST PUSH2 0x26A DUP2 PUSH2 0x1C3 JUMP JUMPDEST DUP2 EQ PUSH2 0x275 JUMPI PUSH1 0x0 DUP1 REVERT JUMPDEST POP JUMP INVALID LOG2 PUSH5 0x6970667358 0x22 SLT KECCAK256 PUSH20 0x7B6343A5E714470878025FD81908CB664A313D68 0xDA 0xCC 0xB2 OR SLT PUSH25 0xEE3466FD4464736F6C63430008070033000000000000000000 "
				},
				"gasEstimates": {
					"creation": {
						"codeDepositCost": "137200",
						"executionCost": "infinite",
						"totalCost": "infinite"
					},
					"external": {
						"isEven(uint256)": "infinite",
						"numbers(uint256)": "infinite"
					}
				},
				"methodIdentifiers": {
					"isEven(uint256)": "2a2e1320",
					"numbers(uint256)": "d39fa233"
				}
			},
			"storageLayout": {
				"storage": [
					{
						"astId": 11,
						"contract": "contracts/MyContract.sol:Mycontract",
						"label": "numbers",
						"offset": 0,
						"slot": "0",
						"type": "t_array(t_uint256)dyn_storage"
					}
				],
				"types": {
					"t_array(t_uint256)dyn_storage": {
						"base": "t_uint256",
						"encoding": "dynamic_array",
						"label": "uint256[]",
						"numberOfBytes": "32"
					},
					"t_uint256": {
						"encoding": "inplace",
						"label": "uint256",
						"numberOfBytes": "32"
					}
				}
			},
			"userdoc": {
				"kind": "user",
				"methods": {},
				"version": 1
			}
		}
	}
}