{
	"contracts/MyCoin.sol": {
		"Mycoin": {
			"abi": [
				{
					"inputs": [],
					"name": "arr1",
					"outputs": [
						{
							"internalType": "bytes4",
							"name": "",
							"type": "bytes4"
						}
					],
					"stateMutability": "view",
					"type": "function"
				},
				{
					"inputs": [],
					"name": "arr2",
					"outputs": [
						{
							"internalType": "bytes2",
							"name": "",
							"type": "bytes2"
						}
					],
					"stateMutability": "view",
					"type": "function"
				},
				{
					"inputs": [],
					"name": "setter",
					"outputs": [],
					"stateMutability": "nonpayable",
					"type": "function"
				}
			],
			"devdoc": {
				"kind": "dev",
				"methods": {},
				"version": 1
			},
			"evm": {
				"assembly": "    /* \"contracts/MyCoin.sol\":107:1155  contract Mycoin{\r... */\n  mstore(0x40, 0x80)\n  callvalue\n  dup1\n  iszero\n  tag_1\n  jumpi\n  0x00\n  dup1\n  revert\ntag_1:\n  pop\n  dataSize(sub_0)\n  dup1\n  dataOffset(sub_0)\n  0x00\n  codecopy\n  0x00\n  return\nstop\n\nsub_0: assembly {\n        /* \"contracts/MyCoin.sol\":107:1155  contract Mycoin{\r... */\n      mstore(0x40, 0x80)\n      callvalue\n      dup1\n      iszero\n      tag_1\n      jumpi\n      0x00\n      dup1\n      revert\n    tag_1:\n      pop\n      jumpi(tag_2, lt(calldatasize, 0x04))\n      shr(0xe0, calldataload(0x00))\n      dup1\n      0x3f3108f7\n      eq\n      tag_3\n      jumpi\n      dup1\n      0xbc3dee8d\n      eq\n      tag_4\n      jumpi\n      dup1\n      0xf2bf1b97\n      eq\n      tag_5\n      jumpi\n    tag_2:\n      0x00\n      dup1\n      revert\n        /* \"contracts/MyCoin.sol\":224:302  function setter() public{\r... */\n    tag_3:\n      tag_6\n      tag_7\n      jump\t// in\n    tag_6:\n      stop\n        /* \"contracts/MyCoin.sol\":131:149  bytes4 public arr1 */\n    tag_4:\n      tag_8\n      tag_9\n      jump\t// in\n    tag_8:\n      mload(0x40)\n      tag_10\n      swap2\n      swap1\n      tag_11\n      jump\t// in\n    tag_10:\n      mload(0x40)\n      dup1\n      swap2\n      sub\n      swap1\n      return\n        /* \"contracts/MyCoin.sol\":177:195  bytes2 public arr2 */\n    tag_5:\n      tag_12\n      tag_13\n      jump\t// in\n    tag_12:\n      mload(0x40)\n      tag_14\n      swap2\n      swap1\n      tag_15\n      jump\t// in\n    tag_14:\n      mload(0x40)\n      dup1\n      swap2\n      sub\n      swap1\n      return\n        /* \"contracts/MyCoin.sol\":224:302  function setter() public{\r... */\n    tag_7:\n        /* \"contracts/MyCoin.sol\":259:272  arr1 = 'abcg' */\n      0x6162636700000000000000000000000000000000000000000000000000000000\n        /* \"contracts/MyCoin.sol\":259:263  arr1 */\n      0x00\n      dup1\n        /* \"contracts/MyCoin.sol\":259:272  arr1 = 'abcg' */\n      0x0100\n      exp\n      dup2\n      sload\n      dup2\n      0xffffffff\n      mul\n      not\n      and\n      swap1\n      dup4\n      0xe0\n      shr\n      mul\n      or\n      swap1\n      sstore\n      pop\n        /* \"contracts/MyCoin.sol\":283:294  arr2 = 'ab' */\n      0x6162000000000000000000000000000000000000000000000000000000000000\n        /* \"contracts/MyCoin.sol\":283:287  arr2 */\n      0x00\n      0x04\n        /* \"contracts/MyCoin.sol\":283:294  arr2 = 'ab' */\n      0x0100\n      exp\n      dup2\n      sload\n      dup2\n      0xffff\n      mul\n      not\n      and\n      swap1\n      dup4\n      0xf0\n      shr\n      mul\n      or\n      swap1\n      sstore\n      pop\n        /* \"contracts/MyCoin.sol\":224:302  function setter() public{\r... */\n      jump\t// out\n        /* \"contracts/MyCoin.sol\":131:149  bytes4 public arr1 */\n    tag_9:\n      0x00\n      dup1\n      sload\n      swap1\n      0x0100\n      exp\n      swap1\n      div\n      0xe0\n      shl\n      dup2\n      jump\t// out\n        /* \"contracts/MyCoin.sol\":177:195  bytes2 public arr2 */\n    tag_13:\n      0x00\n      0x04\n      swap1\n      sload\n      swap1\n      0x0100\n      exp\n      swap1\n      div\n      0xf0\n      shl\n      dup2\n      jump\t// out\n        /* \"#utility.yul\":7:122   */\n    tag_18:\n        /* \"#utility.yul\":92:115   */\n      tag_20\n        /* \"#utility.yul\":109:114   */\n      dup2\n        /* \"#utility.yul\":92:115   */\n      tag_21\n      jump\t// in\n    tag_20:\n        /* \"#utility.yul\":87:90   */\n      dup3\n        /* \"#utility.yul\":80:116   */\n      mstore\n        /* \"#utility.yul\":7:122   */\n      pop\n      pop\n      jump\t// out\n        /* \"#utility.yul\":128:243   */\n    tag_22:\n        /* \"#utility.yul\":213:236   */\n      tag_24\n        /* \"#utility.yul\":230:235   */\n      dup2\n        /* \"#utility.yul\":213:236   */\n      tag_25\n      jump\t// in\n    tag_24:\n        /* \"#utility.yul\":208:211   */\n      dup3\n        /* \"#utility.yul\":201:237   */\n      mstore\n        /* \"#utility.yul\":128:243   */\n      pop\n      pop\n      jump\t// out\n        /* \"#utility.yul\":249:467   */\n    tag_15:\n        /* \"#utility.yul\":340:344   */\n      0x00\n        /* \"#utility.yul\":378:380   */\n      0x20\n        /* \"#utility.yul\":367:376   */\n      dup3\n        /* \"#utility.yul\":363:381   */\n      add\n        /* \"#utility.yul\":355:381   */\n      swap1\n      pop\n        /* \"#utility.yul\":391:460   */\n      tag_27\n        /* \"#utility.yul\":457:458   */\n      0x00\n        /* \"#utility.yul\":446:455   */\n      dup4\n        /* \"#utility.yul\":442:459   */\n      add\n        /* \"#utility.yul\":433:439   */\n      dup5\n        /* \"#utility.yul\":391:460   */\n      tag_18\n      jump\t// in\n    tag_27:\n        /* \"#utility.yul\":249:467   */\n      swap3\n      swap2\n      pop\n      pop\n      jump\t// out\n        /* \"#utility.yul\":473:691   */\n    tag_11:\n        /* \"#utility.yul\":564:568   */\n      0x00\n        /* \"#utility.yul\":602:604   */\n      0x20\n        /* \"#utility.yul\":591:600   */\n      dup3\n        /* \"#utility.yul\":587:605   */\n      add\n        /* \"#utility.yul\":579:605   */\n      swap1\n      pop\n        /* \"#utility.yul\":615:684   */\n      tag_29\n        /* \"#utility.yul\":681:682   */\n      0x00\n        /* \"#utility.yul\":670:679   */\n      dup4\n        /* \"#utility.yul\":666:683   */\n      add\n        /* \"#utility.yul\":657:663   */\n      dup5\n        /* \"#utility.yul\":615:684   */\n      tag_22\n      jump\t// in\n    tag_29:\n        /* \"#utility.yul\":473:691   */\n      swap3\n      swap2\n      pop\n      pop\n      jump\t// out\n        /* \"#utility.yul\":697:846   */\n    tag_21:\n        /* \"#utility.yul\":733:740   */\n      0x00\n        /* \"#utility.yul\":773:839   */\n      0xffff000000000000000000000000000000000000000000000000000000000000\n        /* \"#utility.yul\":766:771   */\n      dup3\n        /* \"#utility.yul\":762:840   */\n      and\n        /* \"#utility.yul\":751:840   */\n      swap1\n      pop\n        /* \"#utility.yul\":697:846   */\n      swap2\n      swap1\n      pop\n      jump\t// out\n        /* \"#utility.yul\":852:1001   */\n    tag_25:\n        /* \"#utility.yul\":888:895   */\n      0x00\n        /* \"#utility.yul\":928:994   */\n      0xffffffff00000000000000000000000000000000000000000000000000000000\n        /* \"#utility.yul\":921:926   */\n      dup3\n        /* \"#utility.yul\":917:995   */\n      and\n        /* \"#utility.yul\":906:995   */\n      swap1\n      pop\n        /* \"#utility.yul\":852:1001   */\n      swap2\n      swap1\n      pop\n      jump\t// out\n\n    auxdata: 0xa264697066735822122065afe449feae7a660d7ce2fd867f0cbc52d2ba0b7f40e889c8154723bd53baea64736f6c63430008070033\n}\n",
				"bytecode": {
					"linkReferences": {},
					"object": "608060405234801561001057600080fd5b5061020d806100206000396000f3fe608060405234801561001057600080fd5b50600436106100415760003560e01c80633f3108f714610046578063bc3dee8d14610050578063f2bf1b971461006e575b600080fd5b61004e61008c565b005b610058610107565b6040516100659190610164565b60405180910390f35b610076610118565b6040516100839190610149565b60405180910390f35b7f61626367000000000000000000000000000000000000000000000000000000006000806101000a81548163ffffffff021916908360e01c02179055507f6162000000000000000000000000000000000000000000000000000000000000600060046101000a81548161ffff021916908360f01c0217905550565b60008054906101000a900460e01b81565b600060049054906101000a900460f01b81565b6101348161017f565b82525050565b610143816101ab565b82525050565b600060208201905061015e600083018461012b565b92915050565b6000602082019050610179600083018461013a565b92915050565b60007fffff00000000000000000000000000000000000000000000000000000000000082169050919050565b60007fffffffff000000000000000000000000000000000000000000000000000000008216905091905056fea264697066735822122065afe449feae7a660d7ce2fd867f0cbc52d2ba0b7f40e889c8154723bd53baea64736f6c63430008070033",
					"opcodes": "PUSH1 0x80 PUSH1 0x40 MSTORE CALLVALUE DUP1 ISZERO PUSH2 0x10 JUMPI PUSH1 0x0 DUP1 REVERT JUMPDEST POP PUSH2 0x20D DUP1 PUSH2 0x20 PUSH1 0x0 CODECOPY PUSH1 0x0 RETURN INVALID PUSH1 0x80 PUSH1 0x40 MSTORE CALLVALUE DUP1 ISZERO PUSH2 0x10 JUMPI PUSH1 0x0 DUP1 REVERT JUMPDEST POP PUSH1 0x4 CALLDATASIZE LT PUSH2 0x41 JUMPI PUSH1 0x0 CALLDATALOAD PUSH1 0xE0 SHR DUP1 PUSH4 0x3F3108F7 EQ PUSH2 0x46 JUMPI DUP1 PUSH4 0xBC3DEE8D EQ PUSH2 0x50 JUMPI DUP1 PUSH4 0xF2BF1B97 EQ PUSH2 0x6E JUMPI JUMPDEST PUSH1 0x0 DUP1 REVERT JUMPDEST PUSH2 0x4E PUSH2 0x8C JUMP JUMPDEST STOP JUMPDEST PUSH2 0x58 PUSH2 0x107 JUMP JUMPDEST PUSH1 0x40 MLOAD PUSH2 0x65 SWAP2 SWAP1 PUSH2 0x164 JUMP JUMPDEST PUSH1 0x40 MLOAD DUP1 SWAP2 SUB SWAP1 RETURN JUMPDEST PUSH2 0x76 PUSH2 0x118 JUMP JUMPDEST PUSH1 0x40 MLOAD PUSH2 0x83 SWAP2 SWAP1 PUSH2 0x149 JUMP JUMPDEST PUSH1 0x40 MLOAD DUP1 SWAP2 SUB SWAP1 RETURN JUMPDEST PUSH32 0x6162636700000000000000000000000000000000000000000000000000000000 PUSH1 0x0 DUP1 PUSH2 0x100 EXP DUP2 SLOAD DUP2 PUSH4 0xFFFFFFFF MUL NOT AND SWAP1 DUP4 PUSH1 0xE0 SHR MUL OR SWAP1 SSTORE POP PUSH32 0x6162000000000000000000000000000000000000000000000000000000000000 PUSH1 0x0 PUSH1 0x4 PUSH2 0x100 EXP DUP2 SLOAD DUP2 PUSH2 0xFFFF MUL NOT AND SWAP1 DUP4 PUSH1 0xF0 SHR MUL OR SWAP1 SSTORE POP JUMP JUMPDEST PUSH1 0x0 DUP1 SLOAD SWAP1 PUSH2 0x100 EXP SWAP1 DIV PUSH1 0xE0 SHL DUP2 JUMP JUMPDEST PUSH1 0x0 PUSH1 0x4 SWAP1 SLOAD SWAP1 PUSH2 0x100 EXP SWAP1 DIV PUSH1 0xF0 SHL DUP2 JUMP JUMPDEST PUSH2 0x134 DUP2 PUSH2 0x17F JUMP JUMPDEST DUP3 MSTORE POP POP JUMP JUMPDEST PUSH2 0x143 DUP2 PUSH2 0x1AB JUMP JUMPDEST DUP3 MSTORE POP POP JUMP JUMPDEST PUSH1 0x0 PUSH1 0x20 DUP3 ADD SWAP1 POP PUSH2 0x15E PUSH1 0x0 DUP4 ADD DUP5 PUSH2 0x12B JUMP JUMPDEST SWAP3 SWAP2 POP POP JUMP JUMPDEST PUSH1 0x0 PUSH1 0x20 DUP3 ADD SWAP1 POP PUSH2 0x179 PUSH1 0x0 DUP4 ADD DUP5 PUSH2 0x13A JUMP JUMPDEST SWAP3 SWAP2 POP POP JUMP JUMPDEST PUSH1 0x0 PUSH32 0xFFFF000000000000000000000000000000000000000000000000000000000000 DUP3 AND SWAP1 POP SWAP2 SWAP1 POP JUMP JUMPDEST PUSH1 0x0 PUSH32 0xFFFFFFFF00000000000000000000000000000000000000000000000000000000 DUP3 AND SWAP1 POP SWAP2 SWAP1 POP JUMP INVALID LOG2 PUSH5 0x6970667358 0x22 SLT KECCAK256 PUSH6 0xAFE449FEAE7A PUSH7 0xD7CE2FD867F0C 0xBC MSTORE 0xD2 0xBA SIGNEXTEND PUSH32 0x40E889C8154723BD53BAEA64736F6C6343000807003300000000000000000000 "
				},
				"gasEstimates": {
					"creation": {
						"codeDepositCost": "105000",
						"executionCost": "153",
						"totalCost": "105153"
					},
					"external": {
						"arr1()": "2468",
						"arr2()": "2543",
						"setter()": "48706"
					}
				},
				"methodIdentifiers": {
					"arr1()": "bc3dee8d",
					"arr2()": "f2bf1b97",
					"setter()": "3f3108f7"
				}
			},
			"storageLayout": {
				"storage": [
					{
						"astId": 3,
						"contract": "contracts/MyCoin.sol:Mycoin",
						"label": "arr1",
						"offset": 0,
						"slot": "0",
						"type": "t_bytes4"
					},
					{
						"astId": 5,
						"contract": "contracts/MyCoin.sol:Mycoin",
						"label": "arr2",
						"offset": 4,
						"slot": "0",
						"type": "t_bytes2"
					}
				],
				"types": {
					"t_bytes2": {
						"encoding": "inplace",
						"label": "bytes2",
						"numberOfBytes": "2"
					},
					"t_bytes4": {
						"encoding": "inplace",
						"label": "bytes4",
						"numberOfBytes": "4"
					}
				}
			},
			"userdoc": {
				"kind": "user",
				"methods": {},
				"version": 1
			}
		}
	}
}