{
	"contracts/MyContract.sol": {
		"MyContract": {
			"abi": [
				{
					"inputs": [
						{
							"internalType": "string",
							"name": "_value",
							"type": "string"
						}
					],
					"name": "addValue",
					"outputs": [],
					"stateMutability": "nonpayable",
					"type": "function"
				},
				{
					"inputs": [
						{
							"internalType": "uint256",
							"name": "",
							"type": "uint256"
						},
						{
							"internalType": "uint256",
							"name": "",
							"type": "uint256"
						}
					],
					"name": "arr2d",
					"outputs": [
						{
							"internalType": "uint256",
							"name": "",
							"type": "uint256"
						}
					],
					"stateMutability": "view",
					"type": "function"
				},
				{
					"inputs": [
						{
							"internalType": "uint256",
							"name": "",
							"type": "uint256"
						}
					],
					"name": "stringArray",
					"outputs": [
						{
							"internalType": "string",
							"name": "",
							"type": "string"
						}
					],
					"stateMutability": "view",
					"type": "function"
				},
				{
					"inputs": [
						{
							"internalType": "uint256",
							"name": "",
							"type": "uint256"
						}
					],
					"name": "uintArray",
					"outputs": [
						{
							"internalType": "uint256",
							"name": "",
							"type": "uint256"
						}
					],
					"stateMutability": "view",
					"type": "function"
				},
				{
					"inputs": [],
					"name": "valueCount",
					"outputs": [
						{
							"internalType": "uint256",
							"name": "",
							"type": "uint256"
						}
					],
					"stateMutability": "view",
					"type": "function"
				},
				{
					"inputs": [
						{
							"internalType": "uint256",
							"name": "",
							"type": "uint256"
						}
					],
					"name": "values",
					"outputs": [
						{
							"internalType": "string",
							"name": "",
							"type": "string"
						}
					],
					"stateMutability": "view",
					"type": "function"
				}
			],
			"devdoc": {
				"kind": "dev",
				"methods": {},
				"version": 1
			},
			"evm": {
				"assembly": "    /* \"contracts/MyContract.sol\":59:494  contract MyContract{\r... */\n  mstore(0x40, 0x80)\n    /* \"contracts/MyContract.sol\":85:118  uint[] public uintArray = [1,2,3] */\n  mload(0x40)\n  dup1\n  0x60\n  add\n  0x40\n  mstore\n  dup1\n    /* \"contracts/MyContract.sol\":112:113  1 */\n  0x01\n    /* \"contracts/MyContract.sol\":85:118  uint[] public uintArray = [1,2,3] */\n  0xff\n  and\n  dup2\n  mstore\n  0x20\n  add\n    /* \"contracts/MyContract.sol\":114:115  2 */\n  0x02\n    /* \"contracts/MyContract.sol\":85:118  uint[] public uintArray = [1,2,3] */\n  0xff\n  and\n  dup2\n  mstore\n  0x20\n  add\n    /* \"contracts/MyContract.sol\":116:117  3 */\n  0x03\n    /* \"contracts/MyContract.sol\":85:118  uint[] public uintArray = [1,2,3] */\n  0xff\n  and\n  dup2\n  mstore\n  pop\n  0x00\n  swap1\n  0x03\n  tag_1\n  swap3\n  swap2\n  swap1\n  tag_2\n  jump\t// in\ntag_1:\n  pop\n    /* \"contracts/MyContract.sol\":125:221  string[] public stringArray = [\"vishal\",\"somesh\",\"Gotya\",\"Arvind\",\"Megharaj\",\"Siddhesh\",\"Kunal\"] */\n  mload(0x40)\n  dup1\n  0xe0\n  add\n  0x40\n  mstore\n  dup1\n  mload(0x40)\n  dup1\n  0x40\n  add\n  0x40\n  mstore\n  dup1\n  0x06\n  dup2\n  mstore\n  0x20\n  add\n  0x76697368616c0000000000000000000000000000000000000000000000000000\n  dup2\n  mstore\n  pop\n  dup2\n  mstore\n  0x20\n  add\n  mload(0x40)\n  dup1\n  0x40\n  add\n  0x40\n  mstore\n  dup1\n  0x06\n  dup2\n  mstore\n  0x20\n  add\n  0x736f6d6573680000000000000000000000000000000000000000000000000000\n  dup2\n  mstore\n  pop\n  dup2\n  mstore\n  0x20\n  add\n  mload(0x40)\n  dup1\n  0x40\n  add\n  0x40\n  mstore\n  dup1\n  0x05\n  dup2\n  mstore\n  0x20\n  add\n  0x476f747961000000000000000000000000000000000000000000000000000000\n  dup2\n  mstore\n  pop\n  dup2\n  mstore\n  0x20\n  add\n  mload(0x40)\n  dup1\n  0x40\n  add\n  0x40\n  mstore\n  dup1\n  0x06\n  dup2\n  mstore\n  0x20\n  add\n  0x417276696e640000000000000000000000000000000000000000000000000000\n  dup2\n  mstore\n  pop\n  dup2\n  mstore\n  0x20\n  add\n  mload(0x40)\n  dup1\n  0x40\n  add\n  0x40\n  mstore\n  dup1\n  0x08\n  dup2\n  mstore\n  0x20\n  add\n  0x4d6567686172616a000000000000000000000000000000000000000000000000\n  dup2\n  mstore\n  pop\n  dup2\n  mstore\n  0x20\n  add\n  mload(0x40)\n  dup1\n  0x40\n  add\n  0x40\n  mstore\n  dup1\n  0x08\n  dup2\n  mstore\n  0x20\n  add\n  0x5369646468657368000000000000000000000000000000000000000000000000\n  dup2\n  mstore\n  pop\n  dup2\n  mstore\n  0x20\n  add\n  mload(0x40)\n  dup1\n  0x40\n  add\n  0x40\n  mstore\n  dup1\n  0x05\n  dup2\n  mstore\n  0x20\n  add\n  0x4b756e616c000000000000000000000000000000000000000000000000000000\n  dup2\n  mstore\n  pop\n  dup2\n  mstore\n  pop\n  0x01\n  swap1\n  0x07\n  tag_3\n  swap3\n  swap2\n  swap1\n  tag_4\n  jump\t// in\ntag_3:\n  pop\n    /* \"contracts/MyContract.sol\":257:306  uint256[][] public arr2d = [[1, 2, 3], [5, 6, 7]] */\n  mload(0x40)\n  dup1\n  0x40\n  add\n  0x40\n  mstore\n  dup1\n  mload(0x40)\n  dup1\n  0x60\n  add\n  0x40\n  mstore\n  dup1\n    /* \"contracts/MyContract.sol\":286:287  1 */\n  0x01\n    /* \"contracts/MyContract.sol\":257:306  uint256[][] public arr2d = [[1, 2, 3], [5, 6, 7]] */\n  0xff\n  and\n  dup2\n  mstore\n  0x20\n  add\n    /* \"contracts/MyContract.sol\":289:290  2 */\n  0x02\n    /* \"contracts/MyContract.sol\":257:306  uint256[][] public arr2d = [[1, 2, 3], [5, 6, 7]] */\n  0xff\n  and\n  dup2\n  mstore\n  0x20\n  add\n    /* \"contracts/MyContract.sol\":292:293  3 */\n  0x03\n    /* \"contracts/MyContract.sol\":257:306  uint256[][] public arr2d = [[1, 2, 3], [5, 6, 7]] */\n  0xff\n  and\n  dup2\n  mstore\n  pop\n  dup2\n  mstore\n  0x20\n  add\n  mload(0x40)\n  dup1\n  0x60\n  add\n  0x40\n  mstore\n  dup1\n    /* \"contracts/MyContract.sol\":297:298  5 */\n  0x05\n    /* \"contracts/MyContract.sol\":257:306  uint256[][] public arr2d = [[1, 2, 3], [5, 6, 7]] */\n  0xff\n  and\n  dup2\n  mstore\n  0x20\n  add\n    /* \"contracts/MyContract.sol\":300:301  6 */\n  0x06\n    /* \"contracts/MyContract.sol\":257:306  uint256[][] public arr2d = [[1, 2, 3], [5, 6, 7]] */\n  0xff\n  and\n  dup2\n  mstore\n  0x20\n  add\n    /* \"contracts/MyContract.sol\":303:304  7 */\n  0x07\n    /* \"contracts/MyContract.sol\":257:306  uint256[][] public arr2d = [[1, 2, 3], [5, 6, 7]] */\n  0xff\n  and\n  dup2\n  mstore\n  pop\n  dup2\n  mstore\n  pop\n  0x03\n  swap1\n  0x02\n  tag_5\n  swap3\n  swap2\n  swap1\n  tag_6\n  jump\t// in\ntag_5:\n  pop\n    /* \"contracts/MyContract.sol\":59:494  contract MyContract{\r... */\n  callvalue\n  dup1\n  iszero\n  tag_7\n  jumpi\n  0x00\n  dup1\n  revert\ntag_7:\n  pop\n  jump(tag_8)\ntag_2:\n  dup3\n  dup1\n  sload\n  dup3\n  dup3\n  sstore\n  swap1\n  0x00\n  mstore\n  keccak256(0x00, 0x20)\n  swap1\n  dup2\n  add\n  swap3\n  dup3\n  iszero\n  tag_9\n  jumpi\n  swap2\n  0x20\n  mul\n  dup3\n  add\ntag_10:\n  dup3\n  dup2\n  gt\n  iszero\n  tag_11\n  jumpi\n  dup3\n  mload\n  dup3\n  swap1\n  0xff\n  and\n  swap1\n  sstore\n  swap2\n  0x20\n  add\n  swap2\n  swap1\n  0x01\n  add\n  swap1\n  jump(tag_10)\ntag_11:\ntag_9:\n  pop\n  swap1\n  pop\n  tag_12\n  swap2\n  swap1\n  tag_13\n  jump\t// in\ntag_12:\n  pop\n  swap1\n  jump\t// out\ntag_4:\n  dup3\n  dup1\n  sload\n  dup3\n  dup3\n  sstore\n  swap1\n  0x00\n  mstore\n  keccak256(0x00, 0x20)\n  swap1\n  dup2\n  add\n  swap3\n  dup3\n  iszero\n  tag_14\n  jumpi\n  swap2\n  0x20\n  mul\n  dup3\n  add\ntag_15:\n  dup3\n  dup2\n  gt\n  iszero\n  tag_16\n  jumpi\n  dup3\n  mload\n  dup3\n  swap1\n  dup1\n  mload\n  swap1\n  0x20\n  add\n  swap1\n  tag_17\n  swap3\n  swap2\n  swap1\n  tag_18\n  jump\t// in\ntag_17:\n  pop\n  swap2\n  0x20\n  add\n  swap2\n  swap1\n  0x01\n  add\n  swap1\n  jump(tag_15)\ntag_16:\ntag_14:\n  pop\n  swap1\n  pop\n  tag_19\n  swap2\n  swap1\n  tag_20\n  jump\t// in\ntag_19:\n  pop\n  swap1\n  jump\t// out\ntag_6:\n  dup3\n  dup1\n  sload\n  dup3\n  dup3\n  sstore\n  swap1\n  0x00\n  mstore\n  keccak256(0x00, 0x20)\n  swap1\n  dup2\n  add\n  swap3\n  dup3\n  iszero\n  tag_21\n  jumpi\n  swap2\n  0x20\n  mul\n  dup3\n  add\ntag_22:\n  dup3\n  dup2\n  gt\n  iszero\n  tag_23\n  jumpi\n  dup3\n  mload\n  dup3\n  swap1\n  0x03\n  tag_24\n  swap3\n  swap2\n  swap1\n  tag_2\n  jump\t// in\ntag_24:\n  pop\n  swap2\n  0x20\n  add\n  swap2\n  swap1\n  0x01\n  add\n  swap1\n  jump(tag_22)\ntag_23:\ntag_21:\n  pop\n  swap1\n  pop\n  tag_25\n  swap2\n  swap1\n  tag_26\n  jump\t// in\ntag_25:\n  pop\n  swap1\n  jump\t// out\ntag_13:\ntag_27:\n  dup1\n  dup3\n  gt\n  iszero\n  tag_28\n  jumpi\n  0x00\n  dup2\n  0x00\n  swap1\n  sstore\n  pop\n  0x01\n  add\n  jump(tag_27)\ntag_28:\n  pop\n  swap1\n  jump\t// out\ntag_18:\n  dup3\n  dup1\n  sload\n  tag_29\n  swap1\n  tag_30\n  jump\t// in\ntag_29:\n  swap1\n  0x00\n  mstore\n  keccak256(0x00, 0x20)\n  swap1\n  0x1f\n  add\n  0x20\n  swap1\n  div\n  dup2\n  add\n  swap3\n  dup3\n  tag_32\n  jumpi\n  0x00\n  dup6\n  sstore\n  jump(tag_31)\ntag_32:\n  dup3\n  0x1f\n  lt\n  tag_33\n  jumpi\n  dup1\n  mload\n  not(0xff)\n  and\n  dup4\n  dup1\n  add\n  or\n  dup6\n  sstore\n  jump(tag_31)\ntag_33:\n  dup3\n  dup1\n  add\n  0x01\n  add\n  dup6\n  sstore\n  dup3\n  iszero\n  tag_31\n  jumpi\n  swap2\n  dup3\n  add\ntag_34:\n  dup3\n  dup2\n  gt\n  iszero\n  tag_35\n  jumpi\n  dup3\n  mload\n  dup3\n  sstore\n  swap2\n  0x20\n  add\n  swap2\n  swap1\n  0x01\n  add\n  swap1\n  jump(tag_34)\ntag_35:\ntag_31:\n  pop\n  swap1\n  pop\n  tag_36\n  swap2\n  swap1\n  tag_13\n  jump\t// in\ntag_36:\n  pop\n  swap1\n  jump\t// out\ntag_20:\ntag_37:\n  dup1\n  dup3\n  gt\n  iszero\n  tag_38\n  jumpi\n  0x00\n  dup2\n  dup2\n  tag_39\n  swap2\n  swap1\n  tag_40\n  jump\t// in\ntag_39:\n  pop\n  0x01\n  add\n  jump(tag_37)\ntag_38:\n  pop\n  swap1\n  jump\t// out\ntag_26:\ntag_41:\n  dup1\n  dup3\n  gt\n  iszero\n  tag_42\n  jumpi\n  0x00\n  dup2\n  dup2\n  tag_43\n  swap2\n  swap1\n  tag_44\n  jump\t// in\ntag_43:\n  pop\n  0x01\n  add\n  jump(tag_41)\ntag_42:\n  pop\n  swap1\n  jump\t// out\ntag_40:\n  pop\n  dup1\n  sload\n  tag_45\n  swap1\n  tag_30\n  jump\t// in\ntag_45:\n  0x00\n  dup3\n  sstore\n  dup1\n  0x1f\n  lt\n  tag_47\n  jumpi\n  pop\n  jump(tag_46)\ntag_47:\n  0x1f\n  add\n  0x20\n  swap1\n  div\n  swap1\n  0x00\n  mstore\n  keccak256(0x00, 0x20)\n  swap1\n  dup2\n  add\n  swap1\n  tag_48\n  swap2\n  swap1\n  tag_13\n  jump\t// in\ntag_48:\ntag_46:\n  pop\n  jump\t// out\ntag_44:\n  pop\n  dup1\n  sload\n  0x00\n  dup3\n  sstore\n  swap1\n  0x00\n  mstore\n  keccak256(0x00, 0x20)\n  swap1\n  dup2\n  add\n  swap1\n  tag_50\n  swap2\n  swap1\n  tag_13\n  jump\t// in\ntag_50:\n  pop\n  jump\t// out\n    /* \"#utility.yul\":7:327   */\ntag_30:\n    /* \"#utility.yul\":51:57   */\n  0x00\n    /* \"#utility.yul\":88:89   */\n  0x02\n    /* \"#utility.yul\":82:86   */\n  dup3\n    /* \"#utility.yul\":78:90   */\n  div\n    /* \"#utility.yul\":68:90   */\n  swap1\n  pop\n    /* \"#utility.yul\":135:136   */\n  0x01\n    /* \"#utility.yul\":129:133   */\n  dup3\n    /* \"#utility.yul\":125:137   */\n  and\n    /* \"#utility.yul\":156:174   */\n  dup1\n    /* \"#utility.yul\":146:227   */\n  tag_53\n  jumpi\n    /* \"#utility.yul\":212:216   */\n  0x7f\n    /* \"#utility.yul\":204:210   */\n  dup3\n    /* \"#utility.yul\":200:217   */\n  and\n    /* \"#utility.yul\":190:217   */\n  swap2\n  pop\n    /* \"#utility.yul\":146:227   */\ntag_53:\n    /* \"#utility.yul\":274:276   */\n  0x20\n    /* \"#utility.yul\":266:272   */\n  dup3\n    /* \"#utility.yul\":263:277   */\n  lt\n    /* \"#utility.yul\":243:261   */\n  dup2\n    /* \"#utility.yul\":240:278   */\n  eq\n    /* \"#utility.yul\":237:321   */\n  iszero\n  tag_54\n  jumpi\n    /* \"#utility.yul\":293:311   */\n  tag_55\n  tag_56\n  jump\t// in\ntag_55:\n    /* \"#utility.yul\":237:321   */\ntag_54:\n    /* \"#utility.yul\":58:327   */\n  pop\n    /* \"#utility.yul\":7:327   */\n  swap2\n  swap1\n  pop\n  jump\t// out\n    /* \"#utility.yul\":333:513   */\ntag_56:\n    /* \"#utility.yul\":381:458   */\n  0x4e487b7100000000000000000000000000000000000000000000000000000000\n    /* \"#utility.yul\":378:379   */\n  0x00\n    /* \"#utility.yul\":371:459   */\n  mstore\n    /* \"#utility.yul\":478:482   */\n  0x22\n    /* \"#utility.yul\":475:476   */\n  0x04\n    /* \"#utility.yul\":468:483   */\n  mstore\n    /* \"#utility.yul\":502:506   */\n  0x24\n    /* \"#utility.yul\":499:500   */\n  0x00\n    /* \"#utility.yul\":492:507   */\n  revert\n    /* \"contracts/MyContract.sol\":59:494  contract MyContract{\r... */\ntag_8:\n  dataSize(sub_0)\n  dup1\n  dataOffset(sub_0)\n  0x00\n  codecopy\n  0x00\n  return\nstop\n\nsub_0: assembly {\n        /* \"contracts/MyContract.sol\":59:494  contract MyContract{\r... */\n      mstore(0x40, 0x80)\n      callvalue\n      dup1\n      iszero\n      tag_1\n      jumpi\n      0x00\n      dup1\n      revert\n    tag_1:\n      pop\n      jumpi(tag_2, lt(calldatasize, 0x04))\n      shr(0xe0, calldataload(0x00))\n      dup1\n      0x26eb4dbb\n      eq\n      tag_3\n      jumpi\n      dup1\n      0x3a5fbaaa\n      eq\n      tag_4\n      jumpi\n      dup1\n      0x5e383d21\n      eq\n      tag_5\n      jumpi\n      dup1\n      0x6422c4c8\n      eq\n      tag_6\n      jumpi\n      dup1\n      0x838fea36\n      eq\n      tag_7\n      jumpi\n      dup1\n      0x9ae918c7\n      eq\n      tag_8\n      jumpi\n    tag_2:\n      0x00\n      dup1\n      revert\n        /* \"contracts/MyContract.sol\":405:491  function valueCount() public view returns(uint){\r... */\n    tag_3:\n      tag_9\n      tag_10\n      jump\t// in\n    tag_9:\n      mload(0x40)\n      tag_11\n      swap2\n      swap1\n      tag_12\n      jump\t// in\n    tag_11:\n      mload(0x40)\n      dup1\n      swap2\n      sub\n      swap1\n      return\n        /* \"contracts/MyContract.sol\":315:399  function addValue(string memory _value) public{\r... */\n    tag_4:\n      tag_13\n      0x04\n      dup1\n      calldatasize\n      sub\n      dup2\n      add\n      swap1\n      tag_14\n      swap2\n      swap1\n      tag_15\n      jump\t// in\n    tag_14:\n      tag_16\n      jump\t// in\n    tag_13:\n      stop\n        /* \"contracts/MyContract.sol\":228:250  string[] public values */\n    tag_5:\n      tag_17\n      0x04\n      dup1\n      calldatasize\n      sub\n      dup2\n      add\n      swap1\n      tag_18\n      swap2\n      swap1\n      tag_19\n      jump\t// in\n    tag_18:\n      tag_20\n      jump\t// in\n    tag_17:\n      mload(0x40)\n      tag_21\n      swap2\n      swap1\n      tag_22\n      jump\t// in\n    tag_21:\n      mload(0x40)\n      dup1\n      swap2\n      sub\n      swap1\n      return\n        /* \"contracts/MyContract.sol\":125:221  string[] public stringArray = [\"vishal\",\"somesh\",\"Gotya\",\"Arvind\",\"Megharaj\",\"Siddhesh\",\"Kunal\"] */\n    tag_6:\n      tag_23\n      0x04\n      dup1\n      calldatasize\n      sub\n      dup2\n      add\n      swap1\n      tag_24\n      swap2\n      swap1\n      tag_19\n      jump\t// in\n    tag_24:\n      tag_25\n      jump\t// in\n    tag_23:\n      mload(0x40)\n      tag_26\n      swap2\n      swap1\n      tag_22\n      jump\t// in\n    tag_26:\n      mload(0x40)\n      dup1\n      swap2\n      sub\n      swap1\n      return\n        /* \"contracts/MyContract.sol\":257:306  uint256[][] public arr2d = [[1, 2, 3], [5, 6, 7]] */\n    tag_7:\n      tag_27\n      0x04\n      dup1\n      calldatasize\n      sub\n      dup2\n      add\n      swap1\n      tag_28\n      swap2\n      swap1\n      tag_29\n      jump\t// in\n    tag_28:\n      tag_30\n      jump\t// in\n    tag_27:\n      mload(0x40)\n      tag_31\n      swap2\n      swap1\n      tag_12\n      jump\t// in\n    tag_31:\n      mload(0x40)\n      dup1\n      swap2\n      sub\n      swap1\n      return\n        /* \"contracts/MyContract.sol\":85:118  uint[] public uintArray = [1,2,3] */\n    tag_8:\n      tag_32\n      0x04\n      dup1\n      calldatasize\n      sub\n      dup2\n      add\n      swap1\n      tag_33\n      swap2\n      swap1\n      tag_19\n      jump\t// in\n    tag_33:\n      tag_34\n      jump\t// in\n    tag_32:\n      mload(0x40)\n      tag_35\n      swap2\n      swap1\n      tag_12\n      jump\t// in\n    tag_35:\n      mload(0x40)\n      dup1\n      swap2\n      sub\n      swap1\n      return\n        /* \"contracts/MyContract.sol\":405:491  function valueCount() public view returns(uint){\r... */\n    tag_10:\n        /* \"contracts/MyContract.sol\":447:451  uint */\n      0x00\n        /* \"contracts/MyContract.sol\":470:476  values */\n      0x02\n        /* \"contracts/MyContract.sol\":470:483  values.length */\n      dup1\n      sload\n      swap1\n      pop\n        /* \"contracts/MyContract.sol\":463:483  return values.length */\n      swap1\n      pop\n        /* \"contracts/MyContract.sol\":405:491  function valueCount() public view returns(uint){\r... */\n      swap1\n      jump\t// out\n        /* \"contracts/MyContract.sol\":315:399  function addValue(string memory _value) public{\r... */\n    tag_16:\n        /* \"contracts/MyContract.sol\":372:378  values */\n      0x02\n        /* \"contracts/MyContract.sol\":384:390  _value */\n      dup2\n        /* \"contracts/MyContract.sol\":372:391  values.push(_value) */\n      swap1\n      dup1\n      0x01\n      dup2\n      sload\n      add\n      dup1\n      dup3\n      sstore\n      dup1\n      swap2\n      pop\n      pop\n      0x01\n      swap1\n      sub\n      swap1\n      0x00\n      mstore\n      keccak256(0x00, 0x20)\n      add\n      0x00\n      swap1\n      swap2\n      swap1\n      swap2\n      swap1\n      swap2\n      pop\n      swap1\n      dup1\n      mload\n      swap1\n      0x20\n      add\n      swap1\n      tag_39\n      swap3\n      swap2\n      swap1\n      tag_40\n      jump\t// in\n    tag_39:\n      pop\n        /* \"contracts/MyContract.sol\":315:399  function addValue(string memory _value) public{\r... */\n      pop\n      jump\t// out\n        /* \"contracts/MyContract.sol\":228:250  string[] public values */\n    tag_20:\n      0x02\n      dup2\n      dup2\n      sload\n      dup2\n      lt\n      tag_41\n      jumpi\n      0x00\n      dup1\n      revert\n    tag_41:\n      swap1\n      0x00\n      mstore\n      keccak256(0x00, 0x20)\n      add\n      0x00\n      swap2\n      pop\n      swap1\n      pop\n      dup1\n      sload\n      tag_43\n      swap1\n      tag_44\n      jump\t// in\n    tag_43:\n      dup1\n      0x1f\n      add\n      0x20\n      dup1\n      swap2\n      div\n      mul\n      0x20\n      add\n      mload(0x40)\n      swap1\n      dup2\n      add\n      0x40\n      mstore\n      dup1\n      swap3\n      swap2\n      swap1\n      dup2\n      dup2\n      mstore\n      0x20\n      add\n      dup3\n      dup1\n      sload\n      tag_45\n      swap1\n      tag_44\n      jump\t// in\n    tag_45:\n      dup1\n      iszero\n      tag_46\n      jumpi\n      dup1\n      0x1f\n      lt\n      tag_47\n      jumpi\n      0x0100\n      dup1\n      dup4\n      sload\n      div\n      mul\n      dup4\n      mstore\n      swap2\n      0x20\n      add\n      swap2\n      jump(tag_46)\n    tag_47:\n      dup3\n      add\n      swap2\n      swap1\n      0x00\n      mstore\n      keccak256(0x00, 0x20)\n      swap1\n    tag_48:\n      dup2\n      sload\n      dup2\n      mstore\n      swap1\n      0x01\n      add\n      swap1\n      0x20\n      add\n      dup1\n      dup4\n      gt\n      tag_48\n      jumpi\n      dup3\n      swap1\n      sub\n      0x1f\n      and\n      dup3\n      add\n      swap2\n    tag_46:\n      pop\n      pop\n      pop\n      pop\n      pop\n      dup2\n      jump\t// out\n        /* \"contracts/MyContract.sol\":125:221  string[] public stringArray = [\"vishal\",\"somesh\",\"Gotya\",\"Arvind\",\"Megharaj\",\"Siddhesh\",\"Kunal\"] */\n    tag_25:\n      0x01\n      dup2\n      dup2\n      sload\n      dup2\n      lt\n      tag_49\n      jumpi\n      0x00\n      dup1\n      revert\n    tag_49:\n      swap1\n      0x00\n      mstore\n      keccak256(0x00, 0x20)\n      add\n      0x00\n      swap2\n      pop\n      swap1\n      pop\n      dup1\n      sload\n      tag_51\n      swap1\n      tag_44\n      jump\t// in\n    tag_51:\n      dup1\n      0x1f\n      add\n      0x20\n      dup1\n      swap2\n      div\n      mul\n      0x20\n      add\n      mload(0x40)\n      swap1\n      dup2\n      add\n      0x40\n      mstore\n      dup1\n      swap3\n      swap2\n      swap1\n      dup2\n      dup2\n      mstore\n      0x20\n      add\n      dup3\n      dup1\n      sload\n      tag_52\n      swap1\n      tag_44\n      jump\t// in\n    tag_52:\n      dup1\n      iszero\n      tag_53\n      jumpi\n      dup1\n      0x1f\n      lt\n      tag_54\n      jumpi\n      0x0100\n      dup1\n      dup4\n      sload\n      div\n      mul\n      dup4\n      mstore\n      swap2\n      0x20\n      add\n      swap2\n      jump(tag_53)\n    tag_54:\n      dup3\n      add\n      swap2\n      swap1\n      0x00\n      mstore\n      keccak256(0x00, 0x20)\n      swap1\n    tag_55:\n      dup2\n      sload\n      dup2\n      mstore\n      swap1\n      0x01\n      add\n      swap1\n      0x20\n      add\n      dup1\n      dup4\n      gt\n      tag_55\n      jumpi\n      dup3\n      swap1\n      sub\n      0x1f\n      and\n      dup3\n      add\n      swap2\n    tag_53:\n      pop\n      pop\n      pop\n      pop\n      pop\n      dup2\n      jump\t// out\n        /* \"contracts/MyContract.sol\":257:306  uint256[][] public arr2d = [[1, 2, 3], [5, 6, 7]] */\n    tag_30:\n      0x03\n      dup3\n      dup2\n      sload\n      dup2\n      lt\n      tag_56\n      jumpi\n      0x00\n      dup1\n      revert\n    tag_56:\n      swap1\n      0x00\n      mstore\n      keccak256(0x00, 0x20)\n      add\n      dup2\n      dup2\n      sload\n      dup2\n      lt\n      tag_58\n      jumpi\n      0x00\n      dup1\n      revert\n    tag_58:\n      swap1\n      0x00\n      mstore\n      keccak256(0x00, 0x20)\n      add\n      0x00\n      swap2\n      pop\n      swap2\n      pop\n      pop\n      sload\n      dup2\n      jump\t// out\n        /* \"contracts/MyContract.sol\":85:118  uint[] public uintArray = [1,2,3] */\n    tag_34:\n      0x00\n      dup2\n      dup2\n      sload\n      dup2\n      lt\n      tag_60\n      jumpi\n      0x00\n      dup1\n      revert\n    tag_60:\n      swap1\n      0x00\n      mstore\n      keccak256(0x00, 0x20)\n      add\n      0x00\n      swap2\n      pop\n      swap1\n      pop\n      sload\n      dup2\n      jump\t// out\n    tag_40:\n      dup3\n      dup1\n      sload\n      tag_62\n      swap1\n      tag_44\n      jump\t// in\n    tag_62:\n      swap1\n      0x00\n      mstore\n      keccak256(0x00, 0x20)\n      swap1\n      0x1f\n      add\n      0x20\n      swap1\n      div\n      dup2\n      add\n      swap3\n      dup3\n      tag_64\n      jumpi\n      0x00\n      dup6\n      sstore\n      jump(tag_63)\n    tag_64:\n      dup3\n      0x1f\n      lt\n      tag_65\n      jumpi\n      dup1\n      mload\n      not(0xff)\n      and\n      dup4\n      dup1\n      add\n      or\n      dup6\n      sstore\n      jump(tag_63)\n    tag_65:\n      dup3\n      dup1\n      add\n      0x01\n      add\n      dup6\n      sstore\n      dup3\n      iszero\n      tag_63\n      jumpi\n      swap2\n      dup3\n      add\n    tag_66:\n      dup3\n      dup2\n      gt\n      iszero\n      tag_67\n      jumpi\n      dup3\n      mload\n      dup3\n      sstore\n      swap2\n      0x20\n      add\n      swap2\n      swap1\n      0x01\n      add\n      swap1\n      jump(tag_66)\n    tag_67:\n    tag_63:\n      pop\n      swap1\n      pop\n      tag_68\n      swap2\n      swap1\n      tag_69\n      jump\t// in\n    tag_68:\n      pop\n      swap1\n      jump\t// out\n    tag_69:\n    tag_70:\n      dup1\n      dup3\n      gt\n      iszero\n      tag_71\n      jumpi\n      0x00\n      dup2\n      0x00\n      swap1\n      sstore\n      pop\n      0x01\n      add\n      jump(tag_70)\n    tag_71:\n      pop\n      swap1\n      jump\t// out\n        /* \"#utility.yul\":7:419   */\n    tag_73:\n        /* \"#utility.yul\":85:90   */\n      0x00\n        /* \"#utility.yul\":110:176   */\n      tag_75\n        /* \"#utility.yul\":126:175   */\n      tag_76\n        /* \"#utility.yul\":168:174   */\n      dup5\n        /* \"#utility.yul\":126:175   */\n      tag_77\n      jump\t// in\n    tag_76:\n        /* \"#utility.yul\":110:176   */\n      tag_78\n      jump\t// in\n    tag_75:\n        /* \"#utility.yul\":101:176   */\n      swap1\n      pop\n        /* \"#utility.yul\":199:205   */\n      dup3\n        /* \"#utility.yul\":192:197   */\n      dup2\n        /* \"#utility.yul\":185:206   */\n      mstore\n        /* \"#utility.yul\":237:241   */\n      0x20\n        /* \"#utility.yul\":230:235   */\n      dup2\n        /* \"#utility.yul\":226:242   */\n      add\n        /* \"#utility.yul\":275:278   */\n      dup5\n        /* \"#utility.yul\":266:272   */\n      dup5\n        /* \"#utility.yul\":261:264   */\n      dup5\n        /* \"#utility.yul\":257:273   */\n      add\n        /* \"#utility.yul\":254:279   */\n      gt\n        /* \"#utility.yul\":251:363   */\n      iszero\n      tag_79\n      jumpi\n        /* \"#utility.yul\":282:361   */\n      tag_80\n      tag_81\n      jump\t// in\n    tag_80:\n        /* \"#utility.yul\":251:363   */\n    tag_79:\n        /* \"#utility.yul\":372:413   */\n      tag_82\n        /* \"#utility.yul\":406:412   */\n      dup5\n        /* \"#utility.yul\":401:404   */\n      dup3\n        /* \"#utility.yul\":396:399   */\n      dup6\n        /* \"#utility.yul\":372:413   */\n      tag_83\n      jump\t// in\n    tag_82:\n        /* \"#utility.yul\":91:419   */\n      pop\n        /* \"#utility.yul\":7:419   */\n      swap4\n      swap3\n      pop\n      pop\n      pop\n      jump\t// out\n        /* \"#utility.yul\":439:779   */\n    tag_84:\n        /* \"#utility.yul\":495:500   */\n      0x00\n        /* \"#utility.yul\":544:547   */\n      dup3\n        /* \"#utility.yul\":537:541   */\n      0x1f\n        /* \"#utility.yul\":529:535   */\n      dup4\n        /* \"#utility.yul\":525:542   */\n      add\n        /* \"#utility.yul\":521:548   */\n      slt\n        /* \"#utility.yul\":511:633   */\n      tag_86\n      jumpi\n        /* \"#utility.yul\":552:631   */\n      tag_87\n      tag_88\n      jump\t// in\n    tag_87:\n        /* \"#utility.yul\":511:633   */\n    tag_86:\n        /* \"#utility.yul\":669:675   */\n      dup2\n        /* \"#utility.yul\":656:676   */\n      calldataload\n        /* \"#utility.yul\":694:773   */\n      tag_89\n        /* \"#utility.yul\":769:772   */\n      dup5\n        /* \"#utility.yul\":761:767   */\n      dup3\n        /* \"#utility.yul\":754:758   */\n      0x20\n        /* \"#utility.yul\":746:752   */\n      dup7\n        /* \"#utility.yul\":742:759   */\n      add\n        /* \"#utility.yul\":694:773   */\n      tag_73\n      jump\t// in\n    tag_89:\n        /* \"#utility.yul\":685:773   */\n      swap2\n      pop\n        /* \"#utility.yul\":501:779   */\n      pop\n        /* \"#utility.yul\":439:779   */\n      swap3\n      swap2\n      pop\n      pop\n      jump\t// out\n        /* \"#utility.yul\":785:924   */\n    tag_90:\n        /* \"#utility.yul\":831:836   */\n      0x00\n        /* \"#utility.yul\":869:875   */\n      dup2\n        /* \"#utility.yul\":856:876   */\n      calldataload\n        /* \"#utility.yul\":847:876   */\n      swap1\n      pop\n        /* \"#utility.yul\":885:918   */\n      tag_92\n        /* \"#utility.yul\":912:917   */\n      dup2\n        /* \"#utility.yul\":885:918   */\n      tag_93\n      jump\t// in\n    tag_92:\n        /* \"#utility.yul\":785:924   */\n      swap3\n      swap2\n      pop\n      pop\n      jump\t// out\n        /* \"#utility.yul\":930:1439   */\n    tag_15:\n        /* \"#utility.yul\":999:1005   */\n      0x00\n        /* \"#utility.yul\":1048:1050   */\n      0x20\n        /* \"#utility.yul\":1036:1045   */\n      dup3\n        /* \"#utility.yul\":1027:1034   */\n      dup5\n        /* \"#utility.yul\":1023:1046   */\n      sub\n        /* \"#utility.yul\":1019:1051   */\n      slt\n        /* \"#utility.yul\":1016:1135   */\n      iszero\n      tag_95\n      jumpi\n        /* \"#utility.yul\":1054:1133   */\n      tag_96\n      tag_97\n      jump\t// in\n    tag_96:\n        /* \"#utility.yul\":1016:1135   */\n    tag_95:\n        /* \"#utility.yul\":1202:1203   */\n      0x00\n        /* \"#utility.yul\":1191:1200   */\n      dup3\n        /* \"#utility.yul\":1187:1204   */\n      add\n        /* \"#utility.yul\":1174:1205   */\n      calldataload\n        /* \"#utility.yul\":1232:1250   */\n      0xffffffffffffffff\n        /* \"#utility.yul\":1224:1230   */\n      dup2\n        /* \"#utility.yul\":1221:1251   */\n      gt\n        /* \"#utility.yul\":1218:1335   */\n      iszero\n      tag_98\n      jumpi\n        /* \"#utility.yul\":1254:1333   */\n      tag_99\n      tag_100\n      jump\t// in\n    tag_99:\n        /* \"#utility.yul\":1218:1335   */\n    tag_98:\n        /* \"#utility.yul\":1359:1422   */\n      tag_101\n        /* \"#utility.yul\":1414:1421   */\n      dup5\n        /* \"#utility.yul\":1405:1411   */\n      dup3\n        /* \"#utility.yul\":1394:1403   */\n      dup6\n        /* \"#utility.yul\":1390:1412   */\n      add\n        /* \"#utility.yul\":1359:1422   */\n      tag_84\n      jump\t// in\n    tag_101:\n        /* \"#utility.yul\":1349:1422   */\n      swap2\n      pop\n        /* \"#utility.yul\":1145:1432   */\n      pop\n        /* \"#utility.yul\":930:1439   */\n      swap3\n      swap2\n      pop\n      pop\n      jump\t// out\n        /* \"#utility.yul\":1445:1774   */\n    tag_19:\n        /* \"#utility.yul\":1504:1510   */\n      0x00\n        /* \"#utility.yul\":1553:1555   */\n      0x20\n        /* \"#utility.yul\":1541:1550   */\n      dup3\n        /* \"#utility.yul\":1532:1539   */\n      dup5\n        /* \"#utility.yul\":1528:1551   */\n      sub\n        /* \"#utility.yul\":1524:1556   */\n      slt\n        /* \"#utility.yul\":1521:1640   */\n      iszero\n      tag_103\n      jumpi\n        /* \"#utility.yul\":1559:1638   */\n      tag_104\n      tag_97\n      jump\t// in\n    tag_104:\n        /* \"#utility.yul\":1521:1640   */\n    tag_103:\n        /* \"#utility.yul\":1679:1680   */\n      0x00\n        /* \"#utility.yul\":1704:1757   */\n      tag_105\n        /* \"#utility.yul\":1749:1756   */\n      dup5\n        /* \"#utility.yul\":1740:1746   */\n      dup3\n        /* \"#utility.yul\":1729:1738   */\n      dup6\n        /* \"#utility.yul\":1725:1747   */\n      add\n        /* \"#utility.yul\":1704:1757   */\n      tag_90\n      jump\t// in\n    tag_105:\n        /* \"#utility.yul\":1694:1757   */\n      swap2\n      pop\n        /* \"#utility.yul\":1650:1767   */\n      pop\n        /* \"#utility.yul\":1445:1774   */\n      swap3\n      swap2\n      pop\n      pop\n      jump\t// out\n        /* \"#utility.yul\":1780:2254   */\n    tag_29:\n        /* \"#utility.yul\":1848:1854   */\n      0x00\n        /* \"#utility.yul\":1856:1862   */\n      dup1\n        /* \"#utility.yul\":1905:1907   */\n      0x40\n        /* \"#utility.yul\":1893:1902   */\n      dup4\n        /* \"#utility.yul\":1884:1891   */\n      dup6\n        /* \"#utility.yul\":1880:1903   */\n      sub\n        /* \"#utility.yul\":1876:1908   */\n      slt\n        /* \"#utility.yul\":1873:1992   */\n      iszero\n      tag_107\n      jumpi\n        /* \"#utility.yul\":1911:1990   */\n      tag_108\n      tag_97\n      jump\t// in\n    tag_108:\n        /* \"#utility.yul\":1873:1992   */\n    tag_107:\n        /* \"#utility.yul\":2031:2032   */\n      0x00\n        /* \"#utility.yul\":2056:2109   */\n      tag_109\n        /* \"#utility.yul\":2101:2108   */\n      dup6\n        /* \"#utility.yul\":2092:2098   */\n      dup3\n        /* \"#utility.yul\":2081:2090   */\n      dup7\n        /* \"#utility.yul\":2077:2099   */\n      add\n        /* \"#utility.yul\":2056:2109   */\n      tag_90\n      jump\t// in\n    tag_109:\n        /* \"#utility.yul\":2046:2109   */\n      swap3\n      pop\n        /* \"#utility.yul\":2002:2119   */\n      pop\n        /* \"#utility.yul\":2158:2160   */\n      0x20\n        /* \"#utility.yul\":2184:2237   */\n      tag_110\n        /* \"#utility.yul\":2229:2236   */\n      dup6\n        /* \"#utility.yul\":2220:2226   */\n      dup3\n        /* \"#utility.yul\":2209:2218   */\n      dup7\n        /* \"#utility.yul\":2205:2227   */\n      add\n        /* \"#utility.yul\":2184:2237   */\n      tag_90\n      jump\t// in\n    tag_110:\n        /* \"#utility.yul\":2174:2237   */\n      swap2\n      pop\n        /* \"#utility.yul\":2129:2247   */\n      pop\n        /* \"#utility.yul\":1780:2254   */\n      swap3\n      pop\n      swap3\n      swap1\n      pop\n      jump\t// out\n        /* \"#utility.yul\":2260:2624   */\n    tag_111:\n        /* \"#utility.yul\":2348:2351   */\n      0x00\n        /* \"#utility.yul\":2376:2415   */\n      tag_113\n        /* \"#utility.yul\":2409:2414   */\n      dup3\n        /* \"#utility.yul\":2376:2415   */\n      tag_114\n      jump\t// in\n    tag_113:\n        /* \"#utility.yul\":2431:2502   */\n      tag_115\n        /* \"#utility.yul\":2495:2501   */\n      dup2\n        /* \"#utility.yul\":2490:2493   */\n      dup6\n        /* \"#utility.yul\":2431:2502   */\n      tag_116\n      jump\t// in\n    tag_115:\n        /* \"#utility.yul\":2424:2502   */\n      swap4\n      pop\n        /* \"#utility.yul\":2511:2563   */\n      tag_117\n        /* \"#utility.yul\":2556:2562   */\n      dup2\n        /* \"#utility.yul\":2551:2554   */\n      dup6\n        /* \"#utility.yul\":2544:2548   */\n      0x20\n        /* \"#utility.yul\":2537:2542   */\n      dup7\n        /* \"#utility.yul\":2533:2549   */\n      add\n        /* \"#utility.yul\":2511:2563   */\n      tag_118\n      jump\t// in\n    tag_117:\n        /* \"#utility.yul\":2588:2617   */\n      tag_119\n        /* \"#utility.yul\":2610:2616   */\n      dup2\n        /* \"#utility.yul\":2588:2617   */\n      tag_120\n      jump\t// in\n    tag_119:\n        /* \"#utility.yul\":2583:2586   */\n      dup5\n        /* \"#utility.yul\":2579:2618   */\n      add\n        /* \"#utility.yul\":2572:2618   */\n      swap2\n      pop\n        /* \"#utility.yul\":2352:2624   */\n      pop\n        /* \"#utility.yul\":2260:2624   */\n      swap3\n      swap2\n      pop\n      pop\n      jump\t// out\n        /* \"#utility.yul\":2630:2748   */\n    tag_121:\n        /* \"#utility.yul\":2717:2741   */\n      tag_123\n        /* \"#utility.yul\":2735:2740   */\n      dup2\n        /* \"#utility.yul\":2717:2741   */\n      tag_124\n      jump\t// in\n    tag_123:\n        /* \"#utility.yul\":2712:2715   */\n      dup3\n        /* \"#utility.yul\":2705:2742   */\n      mstore\n        /* \"#utility.yul\":2630:2748   */\n      pop\n      pop\n      jump\t// out\n        /* \"#utility.yul\":2754:3067   */\n    tag_22:\n        /* \"#utility.yul\":2867:2871   */\n      0x00\n        /* \"#utility.yul\":2905:2907   */\n      0x20\n        /* \"#utility.yul\":2894:2903   */\n      dup3\n        /* \"#utility.yul\":2890:2908   */\n      add\n        /* \"#utility.yul\":2882:2908   */\n      swap1\n      pop\n        /* \"#utility.yul\":2954:2963   */\n      dup2\n        /* \"#utility.yul\":2948:2952   */\n      dup2\n        /* \"#utility.yul\":2944:2964   */\n      sub\n        /* \"#utility.yul\":2940:2941   */\n      0x00\n        /* \"#utility.yul\":2929:2938   */\n      dup4\n        /* \"#utility.yul\":2925:2942   */\n      add\n        /* \"#utility.yul\":2918:2965   */\n      mstore\n        /* \"#utility.yul\":2982:3060   */\n      tag_126\n        /* \"#utility.yul\":3055:3059   */\n      dup2\n        /* \"#utility.yul\":3046:3052   */\n      dup5\n        /* \"#utility.yul\":2982:3060   */\n      tag_111\n      jump\t// in\n    tag_126:\n        /* \"#utility.yul\":2974:3060   */\n      swap1\n      pop\n        /* \"#utility.yul\":2754:3067   */\n      swap3\n      swap2\n      pop\n      pop\n      jump\t// out\n        /* \"#utility.yul\":3073:3295   */\n    tag_12:\n        /* \"#utility.yul\":3166:3170   */\n      0x00\n        /* \"#utility.yul\":3204:3206   */\n      0x20\n        /* \"#utility.yul\":3193:3202   */\n      dup3\n        /* \"#utility.yul\":3189:3207   */\n      add\n        /* \"#utility.yul\":3181:3207   */\n      swap1\n      pop\n        /* \"#utility.yul\":3217:3288   */\n      tag_128\n        /* \"#utility.yul\":3285:3286   */\n      0x00\n        /* \"#utility.yul\":3274:3283   */\n      dup4\n        /* \"#utility.yul\":3270:3287   */\n      add\n        /* \"#utility.yul\":3261:3267   */\n      dup5\n        /* \"#utility.yul\":3217:3288   */\n      tag_121\n      jump\t// in\n    tag_128:\n        /* \"#utility.yul\":3073:3295   */\n      swap3\n      swap2\n      pop\n      pop\n      jump\t// out\n        /* \"#utility.yul\":3301:3430   */\n    tag_78:\n        /* \"#utility.yul\":3335:3341   */\n      0x00\n        /* \"#utility.yul\":3362:3382   */\n      tag_130\n      tag_131\n      jump\t// in\n    tag_130:\n        /* \"#utility.yul\":3352:3382   */\n      swap1\n      pop\n        /* \"#utility.yul\":3391:3424   */\n      tag_132\n        /* \"#utility.yul\":3419:3423   */\n      dup3\n        /* \"#utility.yul\":3411:3417   */\n      dup3\n        /* \"#utility.yul\":3391:3424   */\n      tag_133\n      jump\t// in\n    tag_132:\n        /* \"#utility.yul\":3301:3430   */\n      swap2\n      swap1\n      pop\n      jump\t// out\n        /* \"#utility.yul\":3436:3511   */\n    tag_131:\n        /* \"#utility.yul\":3469:3475   */\n      0x00\n        /* \"#utility.yul\":3502:3504   */\n      0x40\n        /* \"#utility.yul\":3496:3505   */\n      mload\n        /* \"#utility.yul\":3486:3505   */\n      swap1\n      pop\n        /* \"#utility.yul\":3436:3511   */\n      swap1\n      jump\t// out\n        /* \"#utility.yul\":3517:3825   */\n    tag_77:\n        /* \"#utility.yul\":3579:3583   */\n      0x00\n        /* \"#utility.yul\":3669:3687   */\n      0xffffffffffffffff\n        /* \"#utility.yul\":3661:3667   */\n      dup3\n        /* \"#utility.yul\":3658:3688   */\n      gt\n        /* \"#utility.yul\":3655:3711   */\n      iszero\n      tag_136\n      jumpi\n        /* \"#utility.yul\":3691:3709   */\n      tag_137\n      tag_138\n      jump\t// in\n    tag_137:\n        /* \"#utility.yul\":3655:3711   */\n    tag_136:\n        /* \"#utility.yul\":3729:3758   */\n      tag_139\n        /* \"#utility.yul\":3751:3757   */\n      dup3\n        /* \"#utility.yul\":3729:3758   */\n      tag_120\n      jump\t// in\n    tag_139:\n        /* \"#utility.yul\":3721:3758   */\n      swap1\n      pop\n        /* \"#utility.yul\":3813:3817   */\n      0x20\n        /* \"#utility.yul\":3807:3811   */\n      dup2\n        /* \"#utility.yul\":3803:3818   */\n      add\n        /* \"#utility.yul\":3795:3818   */\n      swap1\n      pop\n        /* \"#utility.yul\":3517:3825   */\n      swap2\n      swap1\n      pop\n      jump\t// out\n        /* \"#utility.yul\":3831:3930   */\n    tag_114:\n        /* \"#utility.yul\":3883:3889   */\n      0x00\n        /* \"#utility.yul\":3917:3922   */\n      dup2\n        /* \"#utility.yul\":3911:3923   */\n      mload\n        /* \"#utility.yul\":3901:3923   */\n      swap1\n      pop\n        /* \"#utility.yul\":3831:3930   */\n      swap2\n      swap1\n      pop\n      jump\t// out\n        /* \"#utility.yul\":3936:4105   */\n    tag_116:\n        /* \"#utility.yul\":4020:4031   */\n      0x00\n        /* \"#utility.yul\":4054:4060   */\n      dup3\n        /* \"#utility.yul\":4049:4052   */\n      dup3\n        /* \"#utility.yul\":4042:4061   */\n      mstore\n        /* \"#utility.yul\":4094:4098   */\n      0x20\n        /* \"#utility.yul\":4089:4092   */\n      dup3\n        /* \"#utility.yul\":4085:4099   */\n      add\n        /* \"#utility.yul\":4070:4099   */\n      swap1\n      pop\n        /* \"#utility.yul\":3936:4105   */\n      swap3\n      swap2\n      pop\n      pop\n      jump\t// out\n        /* \"#utility.yul\":4111:4188   */\n    tag_124:\n        /* \"#utility.yul\":4148:4155   */\n      0x00\n        /* \"#utility.yul\":4177:4182   */\n      dup2\n        /* \"#utility.yul\":4166:4182   */\n      swap1\n      pop\n        /* \"#utility.yul\":4111:4188   */\n      swap2\n      swap1\n      pop\n      jump\t// out\n        /* \"#utility.yul\":4194:4348   */\n    tag_83:\n        /* \"#utility.yul\":4278:4284   */\n      dup3\n        /* \"#utility.yul\":4273:4276   */\n      dup2\n        /* \"#utility.yul\":4268:4271   */\n      dup4\n        /* \"#utility.yul\":4255:4285   */\n      calldatacopy\n        /* \"#utility.yul\":4340:4341   */\n      0x00\n        /* \"#utility.yul\":4331:4337   */\n      dup4\n        /* \"#utility.yul\":4326:4329   */\n      dup4\n        /* \"#utility.yul\":4322:4338   */\n      add\n        /* \"#utility.yul\":4315:4342   */\n      mstore\n        /* \"#utility.yul\":4194:4348   */\n      pop\n      pop\n      pop\n      jump\t// out\n        /* \"#utility.yul\":4354:4661   */\n    tag_118:\n        /* \"#utility.yul\":4422:4423   */\n      0x00\n        /* \"#utility.yul\":4432:4545   */\n    tag_145:\n        /* \"#utility.yul\":4446:4452   */\n      dup4\n        /* \"#utility.yul\":4443:4444   */\n      dup2\n        /* \"#utility.yul\":4440:4453   */\n      lt\n        /* \"#utility.yul\":4432:4545   */\n      iszero\n      tag_147\n      jumpi\n        /* \"#utility.yul\":4531:4532   */\n      dup1\n        /* \"#utility.yul\":4526:4529   */\n      dup3\n        /* \"#utility.yul\":4522:4533   */\n      add\n        /* \"#utility.yul\":4516:4534   */\n      mload\n        /* \"#utility.yul\":4512:4513   */\n      dup2\n        /* \"#utility.yul\":4507:4510   */\n      dup5\n        /* \"#utility.yul\":4503:4514   */\n      add\n        /* \"#utility.yul\":4496:4535   */\n      mstore\n        /* \"#utility.yul\":4468:4470   */\n      0x20\n        /* \"#utility.yul\":4465:4466   */\n      dup2\n        /* \"#utility.yul\":4461:4471   */\n      add\n        /* \"#utility.yul\":4456:4471   */\n      swap1\n      pop\n        /* \"#utility.yul\":4432:4545   */\n      jump(tag_145)\n    tag_147:\n        /* \"#utility.yul\":4563:4569   */\n      dup4\n        /* \"#utility.yul\":4560:4561   */\n      dup2\n        /* \"#utility.yul\":4557:4570   */\n      gt\n        /* \"#utility.yul\":4554:4655   */\n      iszero\n      tag_148\n      jumpi\n        /* \"#utility.yul\":4643:4644   */\n      0x00\n        /* \"#utility.yul\":4634:4640   */\n      dup5\n        /* \"#utility.yul\":4629:4632   */\n      dup5\n        /* \"#utility.yul\":4625:4641   */\n      add\n        /* \"#utility.yul\":4618:4645   */\n      mstore\n        /* \"#utility.yul\":4554:4655   */\n    tag_148:\n        /* \"#utility.yul\":4403:4661   */\n      pop\n        /* \"#utility.yul\":4354:4661   */\n      pop\n      pop\n      pop\n      jump\t// out\n        /* \"#utility.yul\":4667:4987   */\n    tag_44:\n        /* \"#utility.yul\":4711:4717   */\n      0x00\n        /* \"#utility.yul\":4748:4749   */\n      0x02\n        /* \"#utility.yul\":4742:4746   */\n      dup3\n        /* \"#utility.yul\":4738:4750   */\n      div\n        /* \"#utility.yul\":4728:4750   */\n      swap1\n      pop\n        /* \"#utility.yul\":4795:4796   */\n      0x01\n        /* \"#utility.yul\":4789:4793   */\n      dup3\n        /* \"#utility.yul\":4785:4797   */\n      and\n        /* \"#utility.yul\":4816:4834   */\n      dup1\n        /* \"#utility.yul\":4806:4887   */\n      tag_150\n      jumpi\n        /* \"#utility.yul\":4872:4876   */\n      0x7f\n        /* \"#utility.yul\":4864:4870   */\n      dup3\n        /* \"#utility.yul\":4860:4877   */\n      and\n        /* \"#utility.yul\":4850:4877   */\n      swap2\n      pop\n        /* \"#utility.yul\":4806:4887   */\n    tag_150:\n        /* \"#utility.yul\":4934:4936   */\n      0x20\n        /* \"#utility.yul\":4926:4932   */\n      dup3\n        /* \"#utility.yul\":4923:4937   */\n      lt\n        /* \"#utility.yul\":4903:4921   */\n      dup2\n        /* \"#utility.yul\":4900:4938   */\n      eq\n        /* \"#utility.yul\":4897:4981   */\n      iszero\n      tag_151\n      jumpi\n        /* \"#utility.yul\":4953:4971   */\n      tag_152\n      tag_153\n      jump\t// in\n    tag_152:\n        /* \"#utility.yul\":4897:4981   */\n    tag_151:\n        /* \"#utility.yul\":4718:4987   */\n      pop\n        /* \"#utility.yul\":4667:4987   */\n      swap2\n      swap1\n      pop\n      jump\t// out\n        /* \"#utility.yul\":4993:5274   */\n    tag_133:\n        /* \"#utility.yul\":5076:5103   */\n      tag_155\n        /* \"#utility.yul\":5098:5102   */\n      dup3\n        /* \"#utility.yul\":5076:5103   */\n      tag_120\n      jump\t// in\n    tag_155:\n        /* \"#utility.yul\":5068:5074   */\n      dup2\n        /* \"#utility.yul\":5064:5104   */\n      add\n        /* \"#utility.yul\":5206:5212   */\n      dup2\n        /* \"#utility.yul\":5194:5204   */\n      dup2\n        /* \"#utility.yul\":5191:5213   */\n      lt\n        /* \"#utility.yul\":5170:5188   */\n      0xffffffffffffffff\n        /* \"#utility.yul\":5158:5168   */\n      dup3\n        /* \"#utility.yul\":5155:5189   */\n      gt\n        /* \"#utility.yul\":5152:5214   */\n      or\n        /* \"#utility.yul\":5149:5237   */\n      iszero\n      tag_156\n      jumpi\n        /* \"#utility.yul\":5217:5235   */\n      tag_157\n      tag_138\n      jump\t// in\n    tag_157:\n        /* \"#utility.yul\":5149:5237   */\n    tag_156:\n        /* \"#utility.yul\":5257:5267   */\n      dup1\n        /* \"#utility.yul\":5253:5255   */\n      0x40\n        /* \"#utility.yul\":5246:5268   */\n      mstore\n        /* \"#utility.yul\":5036:5274   */\n      pop\n        /* \"#utility.yul\":4993:5274   */\n      pop\n      pop\n      jump\t// out\n        /* \"#utility.yul\":5280:5460   */\n    tag_153:\n        /* \"#utility.yul\":5328:5405   */\n      0x4e487b7100000000000000000000000000000000000000000000000000000000\n        /* \"#utility.yul\":5325:5326   */\n      0x00\n        /* \"#utility.yul\":5318:5406   */\n      mstore\n        /* \"#utility.yul\":5425:5429   */\n      0x22\n        /* \"#utility.yul\":5422:5423   */\n      0x04\n        /* \"#utility.yul\":5415:5430   */\n      mstore\n        /* \"#utility.yul\":5449:5453   */\n      0x24\n        /* \"#utility.yul\":5446:5447   */\n      0x00\n        /* \"#utility.yul\":5439:5454   */\n      revert\n        /* \"#utility.yul\":5466:5646   */\n    tag_138:\n        /* \"#utility.yul\":5514:5591   */\n      0x4e487b7100000000000000000000000000000000000000000000000000000000\n        /* \"#utility.yul\":5511:5512   */\n      0x00\n        /* \"#utility.yul\":5504:5592   */\n      mstore\n        /* \"#utility.yul\":5611:5615   */\n      0x41\n        /* \"#utility.yul\":5608:5609   */\n      0x04\n        /* \"#utility.yul\":5601:5616   */\n      mstore\n        /* \"#utility.yul\":5635:5639   */\n      0x24\n        /* \"#utility.yul\":5632:5633   */\n      0x00\n        /* \"#utility.yul\":5625:5640   */\n      revert\n        /* \"#utility.yul\":5652:5769   */\n    tag_88:\n        /* \"#utility.yul\":5761:5762   */\n      0x00\n        /* \"#utility.yul\":5758:5759   */\n      dup1\n        /* \"#utility.yul\":5751:5763   */\n      revert\n        /* \"#utility.yul\":5775:5892   */\n    tag_81:\n        /* \"#utility.yul\":5884:5885   */\n      0x00\n        /* \"#utility.yul\":5881:5882   */\n      dup1\n        /* \"#utility.yul\":5874:5886   */\n      revert\n        /* \"#utility.yul\":5898:6015   */\n    tag_100:\n        /* \"#utility.yul\":6007:6008   */\n      0x00\n        /* \"#utility.yul\":6004:6005   */\n      dup1\n        /* \"#utility.yul\":5997:6009   */\n      revert\n        /* \"#utility.yul\":6021:6138   */\n    tag_97:\n        /* \"#utility.yul\":6130:6131   */\n      0x00\n        /* \"#utility.yul\":6127:6128   */\n      dup1\n        /* \"#utility.yul\":6120:6132   */\n      revert\n        /* \"#utility.yul\":6144:6246   */\n    tag_120:\n        /* \"#utility.yul\":6185:6191   */\n      0x00\n        /* \"#utility.yul\":6236:6238   */\n      0x1f\n        /* \"#utility.yul\":6232:6239   */\n      not\n        /* \"#utility.yul\":6227:6229   */\n      0x1f\n        /* \"#utility.yul\":6220:6225   */\n      dup4\n        /* \"#utility.yul\":6216:6230   */\n      add\n        /* \"#utility.yul\":6212:6240   */\n      and\n        /* \"#utility.yul\":6202:6240   */\n      swap1\n      pop\n        /* \"#utility.yul\":6144:6246   */\n      swap2\n      swap1\n      pop\n      jump\t// out\n        /* \"#utility.yul\":6252:6374   */\n    tag_93:\n        /* \"#utility.yul\":6325:6349   */\n      tag_166\n        /* \"#utility.yul\":6343:6348   */\n      dup2\n        /* \"#utility.yul\":6325:6349   */\n      tag_124\n      jump\t// in\n    tag_166:\n        /* \"#utility.yul\":6318:6323   */\n      dup2\n        /* \"#utility.yul\":6315:6350   */\n      eq\n        /* \"#utility.yul\":6305:6368   */\n      tag_167\n      jumpi\n        /* \"#utility.yul\":6364:6365   */\n      0x00\n        /* \"#utility.yul\":6361:6362   */\n      dup1\n        /* \"#utility.yul\":6354:6366   */\n      revert\n        /* \"#utility.yul\":6305:6368   */\n    tag_167:\n        /* \"#utility.yul\":6252:6374   */\n      pop\n      jump\t// out\n\n    auxdata: 0xa264697066735822122092d08a2d8737fe6d87586bbce0d5ca50c08c4c48bb0da2655652b8d774ee61e464736f6c63430008070033\n}\n",
				"bytecode": {
					"linkReferences": {},
					"object": "60806040526040518060600160405280600160ff168152602001600260ff168152602001600360ff1681525060009060036200003d9291906200027f565b506040518060e001604052806040518060400160405280600681526020017f76697368616c000000000000000000000000000000000000000000000000000081525081526020016040518060400160405280600681526020017f736f6d657368000000000000000000000000000000000000000000000000000081525081526020016040518060400160405280600581526020017f476f74796100000000000000000000000000000000000000000000000000000081525081526020016040518060400160405280600681526020017f417276696e64000000000000000000000000000000000000000000000000000081525081526020016040518060400160405280600881526020017f4d6567686172616a00000000000000000000000000000000000000000000000081525081526020016040518060400160405280600881526020017f536964646865736800000000000000000000000000000000000000000000000081525081526020016040518060400160405280600581526020017f4b756e616c0000000000000000000000000000000000000000000000000000008152508152506001906007620001f6929190620002d6565b5060405180604001604052806040518060600160405280600160ff168152602001600260ff168152602001600360ff1681525081526020016040518060600160405280600560ff168152602001600660ff168152602001600760ff1681525081525060039060026200026a9291906200033d565b503480156200027857600080fd5b506200056d565b828054828255906000526020600020908101928215620002c3579160200282015b82811115620002c2578251829060ff16905591602001919060010190620002a0565b5b509050620002d291906200039f565b5090565b8280548282559060005260206000209081019282156200032a579160200282015b828111156200032957825182908051906020019062000318929190620003be565b5091602001919060010190620002f7565b5b5090506200033991906200044f565b5090565b8280548282559060005260206000209081019282156200038c579160200282015b828111156200038b578251829060036200037a9291906200027f565b50916020019190600101906200035e565b5b5090506200039b919062000477565b5090565b5b80821115620003ba576000816000905550600101620003a0565b5090565b828054620003cc9062000508565b90600052602060002090601f016020900481019282620003f057600085556200043c565b82601f106200040b57805160ff19168380011785556200043c565b828001600101855582156200043c579182015b828111156200043b5782518255916020019190600101906200041e565b5b5090506200044b91906200039f565b5090565b5b808211156200047357600081816200046991906200049f565b5060010162000450565b5090565b5b808211156200049b5760008181620004919190620004e5565b5060010162000478565b5090565b508054620004ad9062000508565b6000825580601f10620004c15750620004e2565b601f016020900490600052602060002090810190620004e191906200039f565b5b50565b50805460008255906000526020600020908101906200050591906200039f565b50565b600060028204905060018216806200052157607f821691505b602082108114156200053857620005376200053e565b5b50919050565b7f4e487b7100000000000000000000000000000000000000000000000000000000600052602260045260246000fd5b6107ba806200057d6000396000f3fe608060405234801561001057600080fd5b50600436106100625760003560e01c806326eb4dbb146100675780633a5fbaaa146100855780635e383d21146100a15780636422c4c8146100d1578063838fea36146101015780639ae918c714610131575b600080fd5b61006f610161565b60405161007c91906105ae565b60405180910390f35b61009f600480360381019061009a919061048e565b61016e565b005b6100bb60048036038101906100b691906104d7565b6101ad565b6040516100c8919061058c565b60405180910390f35b6100eb60048036038101906100e691906104d7565b610259565b6040516100f8919061058c565b60405180910390f35b61011b60048036038101906101169190610504565b610305565b60405161012891906105ae565b60405180910390f35b61014b600480360381019061014691906104d7565b610342565b60405161015891906105ae565b60405180910390f35b6000600280549050905090565b6002819080600181540180825580915050600190039060005260206000200160009091909190915090805190602001906101a9929190610366565b5050565b600281815481106101bd57600080fd5b9060005260206000200160009150905080546101d890610687565b80601f016020809104026020016040519081016040528092919081815260200182805461020490610687565b80156102515780601f1061022657610100808354040283529160200191610251565b820191906000526020600020905b81548152906001019060200180831161023457829003601f168201915b505050505081565b6001818154811061026957600080fd5b90600052602060002001600091509050805461028490610687565b80601f01602080910402602001604051908101604052809291908181526020018280546102b090610687565b80156102fd5780601f106102d2576101008083540402835291602001916102fd565b820191906000526020600020905b8154815290600101906020018083116102e057829003601f168201915b505050505081565b6003828154811061031557600080fd5b90600052602060002001818154811061032d57600080fd5b90600052602060002001600091509150505481565b6000818154811061035257600080fd5b906000526020600020016000915090505481565b82805461037290610687565b90600052602060002090601f01602090048101928261039457600085556103db565b82601f106103ad57805160ff19168380011785556103db565b828001600101855582156103db579182015b828111156103da5782518255916020019190600101906103bf565b5b5090506103e891906103ec565b5090565b5b808211156104055760008160009055506001016103ed565b5090565b600061041c610417846105ee565b6105c9565b9050828152602081018484840111156104385761043761074d565b5b610443848285610645565b509392505050565b600082601f8301126104605761045f610748565b5b8135610470848260208601610409565b91505092915050565b6000813590506104888161076d565b92915050565b6000602082840312156104a4576104a3610757565b5b600082013567ffffffffffffffff8111156104c2576104c1610752565b5b6104ce8482850161044b565b91505092915050565b6000602082840312156104ed576104ec610757565b5b60006104fb84828501610479565b91505092915050565b6000806040838503121561051b5761051a610757565b5b600061052985828601610479565b925050602061053a85828601610479565b9150509250929050565b600061054f8261061f565b610559818561062a565b9350610569818560208601610654565b6105728161075c565b840191505092915050565b6105868161063b565b82525050565b600060208201905081810360008301526105a68184610544565b905092915050565b60006020820190506105c3600083018461057d565b92915050565b60006105d36105e4565b90506105df82826106b9565b919050565b6000604051905090565b600067ffffffffffffffff82111561060957610608610719565b5b6106128261075c565b9050602081019050919050565b600081519050919050565b600082825260208201905092915050565b6000819050919050565b82818337600083830152505050565b60005b83811015610672578082015181840152602081019050610657565b83811115610681576000848401525b50505050565b6000600282049050600182168061069f57607f821691505b602082108114156106b3576106b26106ea565b5b50919050565b6106c28261075c565b810181811067ffffffffffffffff821117156106e1576106e0610719565b5b80604052505050565b7f4e487b7100000000000000000000000000000000000000000000000000000000600052602260045260246000fd5b7f4e487b7100000000000000000000000000000000000000000000000000000000600052604160045260246000fd5b600080fd5b600080fd5b600080fd5b600080fd5b6000601f19601f8301169050919050565b6107768161063b565b811461078157600080fd5b5056fea264697066735822122092d08a2d8737fe6d87586bbce0d5ca50c08c4c48bb0da2655652b8d774ee61e464736f6c63430008070033",
					"opcodes": "PUSH1 0x80 PUSH1 0x40 MSTORE PUSH1 0x40 MLOAD DUP1 PUSH1 0x60 ADD PUSH1 0x40 MSTORE DUP1 PUSH1 0x1 PUSH1 0xFF AND DUP2 MSTORE PUSH1 0x20 ADD PUSH1 0x2 PUSH1 0xFF AND DUP2 MSTORE PUSH1 0x20 ADD PUSH1 0x3 PUSH1 0xFF AND DUP2 MSTORE POP PUSH1 0x0 SWAP1 PUSH1 0x3 PUSH3 0x3D SWAP3 SWAP2 SWAP1 PUSH3 0x27F JUMP JUMPDEST POP PUSH1 0x40 MLOAD DUP1 PUSH1 0xE0 ADD PUSH1 0x40 MSTORE DUP1 PUSH1 0x40 MLOAD DUP1 PUSH1 0x40 ADD PUSH1 0x40 MSTORE DUP1 PUSH1 0x6 DUP2 MSTORE PUSH1 0x20 ADD PUSH32 0x76697368616C0000000000000000000000000000000000000000000000000000 DUP2 MSTORE POP DUP2 MSTORE PUSH1 0x20 ADD PUSH1 0x40 MLOAD DUP1 PUSH1 0x40 ADD PUSH1 0x40 MSTORE DUP1 PUSH1 0x6 DUP2 MSTORE PUSH1 0x20 ADD PUSH32 0x736F6D6573680000000000000000000000000000000000000000000000000000 DUP2 MSTORE POP DUP2 MSTORE PUSH1 0x20 ADD PUSH1 0x40 MLOAD DUP1 PUSH1 0x40 ADD PUSH1 0x40 MSTORE DUP1 PUSH1 0x5 DUP2 MSTORE PUSH1 0x20 ADD PUSH32 0x476F747961000000000000000000000000000000000000000000000000000000 DUP2 MSTORE POP DUP2 MSTORE PUSH1 0x20 ADD PUSH1 0x40 MLOAD DUP1 PUSH1 0x40 ADD PUSH1 0x40 MSTORE DUP1 PUSH1 0x6 DUP2 MSTORE PUSH1 0x20 ADD PUSH32 0x417276696E640000000000000000000000000000000000000000000000000000 DUP2 MSTORE POP DUP2 MSTORE PUSH1 0x20 ADD PUSH1 0x40 MLOAD DUP1 PUSH1 0x40 ADD PUSH1 0x40 MSTORE DUP1 PUSH1 0x8 DUP2 MSTORE PUSH1 0x20 ADD PUSH32 0x4D6567686172616A000000000000000000000000000000000000000000000000 DUP2 MSTORE POP DUP2 MSTORE PUSH1 0x20 ADD PUSH1 0x40 MLOAD DUP1 PUSH1 0x40 ADD PUSH1 0x40 MSTORE DUP1 PUSH1 0x8 DUP2 MSTORE PUSH1 0x20 ADD PUSH32 0x5369646468657368000000000000000000000000000000000000000000000000 DUP2 MSTORE POP DUP2 MSTORE PUSH1 0x20 ADD PUSH1 0x40 MLOAD DUP1 PUSH1 0x40 ADD PUSH1 0x40 MSTORE DUP1 PUSH1 0x5 DUP2 MSTORE PUSH1 0x20 ADD PUSH32 0x4B756E616C000000000000000000000000000000000000000000000000000000 DUP2 MSTORE POP DUP2 MSTORE POP PUSH1 0x1 SWAP1 PUSH1 0x7 PUSH3 0x1F6 SWAP3 SWAP2 SWAP1 PUSH3 0x2D6 JUMP JUMPDEST POP PUSH1 0x40 MLOAD DUP1 PUSH1 0x40 ADD PUSH1 0x40 MSTORE DUP1 PUSH1 0x40 MLOAD DUP1 PUSH1 0x60 ADD PUSH1 0x40 MSTORE DUP1 PUSH1 0x1 PUSH1 0xFF AND DUP2 MSTORE PUSH1 0x20 ADD PUSH1 0x2 PUSH1 0xFF AND DUP2 MSTORE PUSH1 0x20 ADD PUSH1 0x3 PUSH1 0xFF AND DUP2 MSTORE POP DUP2 MSTORE PUSH1 0x20 ADD PUSH1 0x40 MLOAD DUP1 PUSH1 0x60 ADD PUSH1 0x40 MSTORE DUP1 PUSH1 0x5 PUSH1 0xFF AND DUP2 MSTORE PUSH1 0x20 ADD PUSH1 0x6 PUSH1 0xFF AND DUP2 MSTORE PUSH1 0x20 ADD PUSH1 0x7 PUSH1 0xFF AND DUP2 MSTORE POP DUP2 MSTORE POP PUSH1 0x3 SWAP1 PUSH1 0x2 PUSH3 0x26A SWAP3 SWAP2 SWAP1 PUSH3 0x33D JUMP JUMPDEST POP CALLVALUE DUP1 ISZERO PUSH3 0x278 JUMPI PUSH1 0x0 DUP1 REVERT JUMPDEST POP PUSH3 0x56D JUMP JUMPDEST DUP3 DUP1 SLOAD DUP3 DUP3 SSTORE SWAP1 PUSH1 0x0 MSTORE PUSH1 0x20 PUSH1 0x0 KECCAK256 SWAP1 DUP2 ADD SWAP3 DUP3 ISZERO PUSH3 0x2C3 JUMPI SWAP2 PUSH1 0x20 MUL DUP3 ADD JUMPDEST DUP3 DUP2 GT ISZERO PUSH3 0x2C2 JUMPI DUP3 MLOAD DUP3 SWAP1 PUSH1 0xFF AND SWAP1 SSTORE SWAP2 PUSH1 0x20 ADD SWAP2 SWAP1 PUSH1 0x1 ADD SWAP1 PUSH3 0x2A0 JUMP JUMPDEST JUMPDEST POP SWAP1 POP PUSH3 0x2D2 SWAP2 SWAP1 PUSH3 0x39F JUMP JUMPDEST POP SWAP1 JUMP JUMPDEST DUP3 DUP1 SLOAD DUP3 DUP3 SSTORE SWAP1 PUSH1 0x0 MSTORE PUSH1 0x20 PUSH1 0x0 KECCAK256 SWAP1 DUP2 ADD SWAP3 DUP3 ISZERO PUSH3 0x32A JUMPI SWAP2 PUSH1 0x20 MUL DUP3 ADD JUMPDEST DUP3 DUP2 GT ISZERO PUSH3 0x329 JUMPI DUP3 MLOAD DUP3 SWAP1 DUP1 MLOAD SWAP1 PUSH1 0x20 ADD SWAP1 PUSH3 0x318 SWAP3 SWAP2 SWAP1 PUSH3 0x3BE JUMP JUMPDEST POP SWAP2 PUSH1 0x20 ADD SWAP2 SWAP1 PUSH1 0x1 ADD SWAP1 PUSH3 0x2F7 JUMP JUMPDEST JUMPDEST POP SWAP1 POP PUSH3 0x339 SWAP2 SWAP1 PUSH3 0x44F JUMP JUMPDEST POP SWAP1 JUMP JUMPDEST DUP3 DUP1 SLOAD DUP3 DUP3 SSTORE SWAP1 PUSH1 0x0 MSTORE PUSH1 0x20 PUSH1 0x0 KECCAK256 SWAP1 DUP2 ADD SWAP3 DUP3 ISZERO PUSH3 0x38C JUMPI SWAP2 PUSH1 0x20 MUL DUP3 ADD JUMPDEST DUP3 DUP2 GT ISZERO PUSH3 0x38B JUMPI DUP3 MLOAD DUP3 SWAP1 PUSH1 0x3 PUSH3 0x37A SWAP3 SWAP2 SWAP1 PUSH3 0x27F JUMP JUMPDEST POP SWAP2 PUSH1 0x20 ADD SWAP2 SWAP1 PUSH1 0x1 ADD SWAP1 PUSH3 0x35E JUMP JUMPDEST JUMPDEST POP SWAP1 POP PUSH3 0x39B SWAP2 SWAP1 PUSH3 0x477 JUMP JUMPDEST POP SWAP1 JUMP JUMPDEST JUMPDEST DUP1 DUP3 GT ISZERO PUSH3 0x3BA JUMPI PUSH1 0x0 DUP2 PUSH1 0x0 SWAP1 SSTORE POP PUSH1 0x1 ADD PUSH3 0x3A0 JUMP JUMPDEST POP SWAP1 JUMP JUMPDEST DUP3 DUP1 SLOAD PUSH3 0x3CC SWAP1 PUSH3 0x508 JUMP JUMPDEST SWAP1 PUSH1 0x0 MSTORE PUSH1 0x20 PUSH1 0x0 KECCAK256 SWAP1 PUSH1 0x1F ADD PUSH1 0x20 SWAP1 DIV DUP2 ADD SWAP3 DUP3 PUSH3 0x3F0 JUMPI PUSH1 0x0 DUP6 SSTORE PUSH3 0x43C JUMP JUMPDEST DUP3 PUSH1 0x1F LT PUSH3 0x40B JUMPI DUP1 MLOAD PUSH1 0xFF NOT AND DUP4 DUP1 ADD OR DUP6 SSTORE PUSH3 0x43C JUMP JUMPDEST DUP3 DUP1 ADD PUSH1 0x1 ADD DUP6 SSTORE DUP3 ISZERO PUSH3 0x43C JUMPI SWAP2 DUP3 ADD JUMPDEST DUP3 DUP2 GT ISZERO PUSH3 0x43B JUMPI DUP3 MLOAD DUP3 SSTORE SWAP2 PUSH1 0x20 ADD SWAP2 SWAP1 PUSH1 0x1 ADD SWAP1 PUSH3 0x41E JUMP JUMPDEST JUMPDEST POP SWAP1 POP PUSH3 0x44B SWAP2 SWAP1 PUSH3 0x39F JUMP JUMPDEST POP SWAP1 JUMP JUMPDEST JUMPDEST DUP1 DUP3 GT ISZERO PUSH3 0x473 JUMPI PUSH1 0x0 DUP2 DUP2 PUSH3 0x469 SWAP2 SWAP1 PUSH3 0x49F JUMP JUMPDEST POP PUSH1 0x1 ADD PUSH3 0x450 JUMP JUMPDEST POP SWAP1 JUMP JUMPDEST JUMPDEST DUP1 DUP3 GT ISZERO PUSH3 0x49B JUMPI PUSH1 0x0 DUP2 DUP2 PUSH3 0x491 SWAP2 SWAP1 PUSH3 0x4E5 JUMP JUMPDEST POP PUSH1 0x1 ADD PUSH3 0x478 JUMP JUMPDEST POP SWAP1 JUMP JUMPDEST POP DUP1 SLOAD PUSH3 0x4AD SWAP1 PUSH3 0x508 JUMP JUMPDEST PUSH1 0x0 DUP3 SSTORE DUP1 PUSH1 0x1F LT PUSH3 0x4C1 JUMPI POP PUSH3 0x4E2 JUMP JUMPDEST PUSH1 0x1F ADD PUSH1 0x20 SWAP1 DIV SWAP1 PUSH1 0x0 MSTORE PUSH1 0x20 PUSH1 0x0 KECCAK256 SWAP1 DUP2 ADD SWAP1 PUSH3 0x4E1 SWAP2 SWAP1 PUSH3 0x39F JUMP JUMPDEST JUMPDEST POP JUMP JUMPDEST POP DUP1 SLOAD PUSH1 0x0 DUP3 SSTORE SWAP1 PUSH1 0x0 MSTORE PUSH1 0x20 PUSH1 0x0 KECCAK256 SWAP1 DUP2 ADD SWAP1 PUSH3 0x505 SWAP2 SWAP1 PUSH3 0x39F JUMP JUMPDEST POP JUMP JUMPDEST PUSH1 0x0 PUSH1 0x2 DUP3 DIV SWAP1 POP PUSH1 0x1 DUP3 AND DUP1 PUSH3 0x521 JUMPI PUSH1 0x7F DUP3 AND SWAP2 POP JUMPDEST PUSH1 0x20 DUP3 LT DUP2 EQ ISZERO PUSH3 0x538 JUMPI PUSH3 0x537 PUSH3 0x53E JUMP JUMPDEST JUMPDEST POP SWAP2 SWAP1 POP JUMP JUMPDEST PUSH32 0x4E487B7100000000000000000000000000000000000000000000000000000000 PUSH1 0x0 MSTORE PUSH1 0x22 PUSH1 0x4 MSTORE PUSH1 0x24 PUSH1 0x0 REVERT JUMPDEST PUSH2 0x7BA DUP1 PUSH3 0x57D PUSH1 0x0 CODECOPY PUSH1 0x0 RETURN INVALID PUSH1 0x80 PUSH1 0x40 MSTORE CALLVALUE DUP1 ISZERO PUSH2 0x10 JUMPI PUSH1 0x0 DUP1 REVERT JUMPDEST POP PUSH1 0x4 CALLDATASIZE LT PUSH2 0x62 JUMPI PUSH1 0x0 CALLDATALOAD PUSH1 0xE0 SHR DUP1 PUSH4 0x26EB4DBB EQ PUSH2 0x67 JUMPI DUP1 PUSH4 0x3A5FBAAA EQ PUSH2 0x85 JUMPI DUP1 PUSH4 0x5E383D21 EQ PUSH2 0xA1 JUMPI DUP1 PUSH4 0x6422C4C8 EQ PUSH2 0xD1 JUMPI DUP1 PUSH4 0x838FEA36 EQ PUSH2 0x101 JUMPI DUP1 PUSH4 0x9AE918C7 EQ PUSH2 0x131 JUMPI JUMPDEST PUSH1 0x0 DUP1 REVERT JUMPDEST PUSH2 0x6F PUSH2 0x161 JUMP JUMPDEST PUSH1 0x40 MLOAD PUSH2 0x7C SWAP2 SWAP1 PUSH2 0x5AE JUMP JUMPDEST PUSH1 0x40 MLOAD DUP1 SWAP2 SUB SWAP1 RETURN JUMPDEST PUSH2 0x9F PUSH1 0x4 DUP1 CALLDATASIZE SUB DUP2 ADD SWAP1 PUSH2 0x9A SWAP2 SWAP1 PUSH2 0x48E JUMP JUMPDEST PUSH2 0x16E JUMP JUMPDEST STOP JUMPDEST PUSH2 0xBB PUSH1 0x4 DUP1 CALLDATASIZE SUB DUP2 ADD SWAP1 PUSH2 0xB6 SWAP2 SWAP1 PUSH2 0x4D7 JUMP JUMPDEST PUSH2 0x1AD JUMP JUMPDEST PUSH1 0x40 MLOAD PUSH2 0xC8 SWAP2 SWAP1 PUSH2 0x58C JUMP JUMPDEST PUSH1 0x40 MLOAD DUP1 SWAP2 SUB SWAP1 RETURN JUMPDEST PUSH2 0xEB PUSH1 0x4 DUP1 CALLDATASIZE SUB DUP2 ADD SWAP1 PUSH2 0xE6 SWAP2 SWAP1 PUSH2 0x4D7 JUMP JUMPDEST PUSH2 0x259 JUMP JUMPDEST PUSH1 0x40 MLOAD PUSH2 0xF8 SWAP2 SWAP1 PUSH2 0x58C JUMP JUMPDEST PUSH1 0x40 MLOAD DUP1 SWAP2 SUB SWAP1 RETURN JUMPDEST PUSH2 0x11B PUSH1 0x4 DUP1 CALLDATASIZE SUB DUP2 ADD SWAP1 PUSH2 0x116 SWAP2 SWAP1 PUSH2 0x504 JUMP JUMPDEST PUSH2 0x305 JUMP JUMPDEST PUSH1 0x40 MLOAD PUSH2 0x128 SWAP2 SWAP1 PUSH2 0x5AE JUMP JUMPDEST PUSH1 0x40 MLOAD DUP1 SWAP2 SUB SWAP1 RETURN JUMPDEST PUSH2 0x14B PUSH1 0x4 DUP1 CALLDATASIZE SUB DUP2 ADD SWAP1 PUSH2 0x146 SWAP2 SWAP1 PUSH2 0x4D7 JUMP JUMPDEST PUSH2 0x342 JUMP JUMPDEST PUSH1 0x40 MLOAD PUSH2 0x158 SWAP2 SWAP1 PUSH2 0x5AE JUMP JUMPDEST PUSH1 0x40 MLOAD DUP1 SWAP2 SUB SWAP1 RETURN JUMPDEST PUSH1 0x0 PUSH1 0x2 DUP1 SLOAD SWAP1 POP SWAP1 POP SWAP1 JUMP JUMPDEST PUSH1 0x2 DUP2 SWAP1 DUP1 PUSH1 0x1 DUP2 SLOAD ADD DUP1 DUP3 SSTORE DUP1 SWAP2 POP POP PUSH1 0x1 SWAP1 SUB SWAP1 PUSH1 0x0 MSTORE PUSH1 0x20 PUSH1 0x0 KECCAK256 ADD PUSH1 0x0 SWAP1 SWAP2 SWAP1 SWAP2 SWAP1 SWAP2 POP SWAP1 DUP1 MLOAD SWAP1 PUSH1 0x20 ADD SWAP1 PUSH2 0x1A9 SWAP3 SWAP2 SWAP1 PUSH2 0x366 JUMP JUMPDEST POP POP JUMP JUMPDEST PUSH1 0x2 DUP2 DUP2 SLOAD DUP2 LT PUSH2 0x1BD JUMPI PUSH1 0x0 DUP1 REVERT JUMPDEST SWAP1 PUSH1 0x0 MSTORE PUSH1 0x20 PUSH1 0x0 KECCAK256 ADD PUSH1 0x0 SWAP2 POP SWAP1 POP DUP1 SLOAD PUSH2 0x1D8 SWAP1 PUSH2 0x687 JUMP JUMPDEST DUP1 PUSH1 0x1F ADD PUSH1 0x20 DUP1 SWAP2 DIV MUL PUSH1 0x20 ADD PUSH1 0x40 MLOAD SWAP1 DUP2 ADD PUSH1 0x40 MSTORE DUP1 SWAP3 SWAP2 SWAP1 DUP2 DUP2 MSTORE PUSH1 0x20 ADD DUP3 DUP1 SLOAD PUSH2 0x204 SWAP1 PUSH2 0x687 JUMP JUMPDEST DUP1 ISZERO PUSH2 0x251 JUMPI DUP1 PUSH1 0x1F LT PUSH2 0x226 JUMPI PUSH2 0x100 DUP1 DUP4 SLOAD DIV MUL DUP4 MSTORE SWAP2 PUSH1 0x20 ADD SWAP2 PUSH2 0x251 JUMP JUMPDEST DUP3 ADD SWAP2 SWAP1 PUSH1 0x0 MSTORE PUSH1 0x20 PUSH1 0x0 KECCAK256 SWAP1 JUMPDEST DUP2 SLOAD DUP2 MSTORE SWAP1 PUSH1 0x1 ADD SWAP1 PUSH1 0x20 ADD DUP1 DUP4 GT PUSH2 0x234 JUMPI DUP3 SWAP1 SUB PUSH1 0x1F AND DUP3 ADD SWAP2 JUMPDEST POP POP POP POP POP DUP2 JUMP JUMPDEST PUSH1 0x1 DUP2 DUP2 SLOAD DUP2 LT PUSH2 0x269 JUMPI PUSH1 0x0 DUP1 REVERT JUMPDEST SWAP1 PUSH1 0x0 MSTORE PUSH1 0x20 PUSH1 0x0 KECCAK256 ADD PUSH1 0x0 SWAP2 POP SWAP1 POP DUP1 SLOAD PUSH2 0x284 SWAP1 PUSH2 0x687 JUMP JUMPDEST DUP1 PUSH1 0x1F ADD PUSH1 0x20 DUP1 SWAP2 DIV MUL PUSH1 0x20 ADD PUSH1 0x40 MLOAD SWAP1 DUP2 ADD PUSH1 0x40 MSTORE DUP1 SWAP3 SWAP2 SWAP1 DUP2 DUP2 MSTORE PUSH1 0x20 ADD DUP3 DUP1 SLOAD PUSH2 0x2B0 SWAP1 PUSH2 0x687 JUMP JUMPDEST DUP1 ISZERO PUSH2 0x2FD JUMPI DUP1 PUSH1 0x1F LT PUSH2 0x2D2 JUMPI PUSH2 0x100 DUP1 DUP4 SLOAD DIV MUL DUP4 MSTORE SWAP2 PUSH1 0x20 ADD SWAP2 PUSH2 0x2FD JUMP JUMPDEST DUP3 ADD SWAP2 SWAP1 PUSH1 0x0 MSTORE PUSH1 0x20 PUSH1 0x0 KECCAK256 SWAP1 JUMPDEST DUP2 SLOAD DUP2 MSTORE SWAP1 PUSH1 0x1 ADD SWAP1 PUSH1 0x20 ADD DUP1 DUP4 GT PUSH2 0x2E0 JUMPI DUP3 SWAP1 SUB PUSH1 0x1F AND DUP3 ADD SWAP2 JUMPDEST POP POP POP POP POP DUP2 JUMP JUMPDEST PUSH1 0x3 DUP3 DUP2 SLOAD DUP2 LT PUSH2 0x315 JUMPI PUSH1 0x0 DUP1 REVERT JUMPDEST SWAP1 PUSH1 0x0 MSTORE PUSH1 0x20 PUSH1 0x0 KECCAK256 ADD DUP2 DUP2 SLOAD DUP2 LT PUSH2 0x32D JUMPI PUSH1 0x0 DUP1 REVERT JUMPDEST SWAP1 PUSH1 0x0 MSTORE PUSH1 0x20 PUSH1 0x0 KECCAK256 ADD PUSH1 0x0 SWAP2 POP SWAP2 POP POP SLOAD DUP2 JUMP JUMPDEST PUSH1 0x0 DUP2 DUP2 SLOAD DUP2 LT PUSH2 0x352 JUMPI PUSH1 0x0 DUP1 REVERT JUMPDEST SWAP1 PUSH1 0x0 MSTORE PUSH1 0x20 PUSH1 0x0 KECCAK256 ADD PUSH1 0x0 SWAP2 POP SWAP1 POP SLOAD DUP2 JUMP JUMPDEST DUP3 DUP1 SLOAD PUSH2 0x372 SWAP1 PUSH2 0x687 JUMP JUMPDEST SWAP1 PUSH1 0x0 MSTORE PUSH1 0x20 PUSH1 0x0 KECCAK256 SWAP1 PUSH1 0x1F ADD PUSH1 0x20 SWAP1 DIV DUP2 ADD SWAP3 DUP3 PUSH2 0x394 JUMPI PUSH1 0x0 DUP6 SSTORE PUSH2 0x3DB JUMP JUMPDEST DUP3 PUSH1 0x1F LT PUSH2 0x3AD JUMPI DUP1 MLOAD PUSH1 0xFF NOT AND DUP4 DUP1 ADD OR DUP6 SSTORE PUSH2 0x3DB JUMP JUMPDEST DUP3 DUP1 ADD PUSH1 0x1 ADD DUP6 SSTORE DUP3 ISZERO PUSH2 0x3DB JUMPI SWAP2 DUP3 ADD JUMPDEST DUP3 DUP2 GT ISZERO PUSH2 0x3DA JUMPI DUP3 MLOAD DUP3 SSTORE SWAP2 PUSH1 0x20 ADD SWAP2 SWAP1 PUSH1 0x1 ADD SWAP1 PUSH2 0x3BF JUMP JUMPDEST JUMPDEST POP SWAP1 POP PUSH2 0x3E8 SWAP2 SWAP1 PUSH2 0x3EC JUMP JUMPDEST POP SWAP1 JUMP JUMPDEST JUMPDEST DUP1 DUP3 GT ISZERO PUSH2 0x405 JUMPI PUSH1 0x0 DUP2 PUSH1 0x0 SWAP1 SSTORE POP PUSH1 0x1 ADD PUSH2 0x3ED JUMP JUMPDEST POP SWAP1 JUMP JUMPDEST PUSH1 0x0 PUSH2 0x41C PUSH2 0x417 DUP5 PUSH2 0x5EE JUMP JUMPDEST PUSH2 0x5C9 JUMP JUMPDEST SWAP1 POP DUP3 DUP2 MSTORE PUSH1 0x20 DUP2 ADD DUP5 DUP5 DUP5 ADD GT ISZERO PUSH2 0x438 JUMPI PUSH2 0x437 PUSH2 0x74D JUMP JUMPDEST JUMPDEST PUSH2 0x443 DUP5 DUP3 DUP6 PUSH2 0x645 JUMP JUMPDEST POP SWAP4 SWAP3 POP POP POP JUMP JUMPDEST PUSH1 0x0 DUP3 PUSH1 0x1F DUP4 ADD SLT PUSH2 0x460 JUMPI PUSH2 0x45F PUSH2 0x748 JUMP JUMPDEST JUMPDEST DUP2 CALLDATALOAD PUSH2 0x470 DUP5 DUP3 PUSH1 0x20 DUP7 ADD PUSH2 0x409 JUMP JUMPDEST SWAP2 POP POP SWAP3 SWAP2 POP POP JUMP JUMPDEST PUSH1 0x0 DUP2 CALLDATALOAD SWAP1 POP PUSH2 0x488 DUP2 PUSH2 0x76D JUMP JUMPDEST SWAP3 SWAP2 POP POP JUMP JUMPDEST PUSH1 0x0 PUSH1 0x20 DUP3 DUP5 SUB SLT ISZERO PUSH2 0x4A4 JUMPI PUSH2 0x4A3 PUSH2 0x757 JUMP JUMPDEST JUMPDEST PUSH1 0x0 DUP3 ADD CALLDATALOAD PUSH8 0xFFFFFFFFFFFFFFFF DUP2 GT ISZERO PUSH2 0x4C2 JUMPI PUSH2 0x4C1 PUSH2 0x752 JUMP JUMPDEST JUMPDEST PUSH2 0x4CE DUP5 DUP3 DUP6 ADD PUSH2 0x44B JUMP JUMPDEST SWAP2 POP POP SWAP3 SWAP2 POP POP JUMP JUMPDEST PUSH1 0x0 PUSH1 0x20 DUP3 DUP5 SUB SLT ISZERO PUSH2 0x4ED JUMPI PUSH2 0x4EC PUSH2 0x757 JUMP JUMPDEST JUMPDEST PUSH1 0x0 PUSH2 0x4FB DUP5 DUP3 DUP6 ADD PUSH2 0x479 JUMP JUMPDEST SWAP2 POP POP SWAP3 SWAP2 POP POP JUMP JUMPDEST PUSH1 0x0 DUP1 PUSH1 0x40 DUP4 DUP6 SUB SLT ISZERO PUSH2 0x51B JUMPI PUSH2 0x51A PUSH2 0x757 JUMP JUMPDEST JUMPDEST PUSH1 0x0 PUSH2 0x529 DUP6 DUP3 DUP7 ADD PUSH2 0x479 JUMP JUMPDEST SWAP3 POP POP PUSH1 0x20 PUSH2 0x53A DUP6 DUP3 DUP7 ADD PUSH2 0x479 JUMP JUMPDEST SWAP2 POP POP SWAP3 POP SWAP3 SWAP1 POP JUMP JUMPDEST PUSH1 0x0 PUSH2 0x54F DUP3 PUSH2 0x61F JUMP JUMPDEST PUSH2 0x559 DUP2 DUP6 PUSH2 0x62A JUMP JUMPDEST SWAP4 POP PUSH2 0x569 DUP2 DUP6 PUSH1 0x20 DUP7 ADD PUSH2 0x654 JUMP JUMPDEST PUSH2 0x572 DUP2 PUSH2 0x75C JUMP JUMPDEST DUP5 ADD SWAP2 POP POP SWAP3 SWAP2 POP POP JUMP JUMPDEST PUSH2 0x586 DUP2 PUSH2 0x63B JUMP JUMPDEST DUP3 MSTORE POP POP JUMP JUMPDEST PUSH1 0x0 PUSH1 0x20 DUP3 ADD SWAP1 POP DUP2 DUP2 SUB PUSH1 0x0 DUP4 ADD MSTORE PUSH2 0x5A6 DUP2 DUP5 PUSH2 0x544 JUMP JUMPDEST SWAP1 POP SWAP3 SWAP2 POP POP JUMP JUMPDEST PUSH1 0x0 PUSH1 0x20 DUP3 ADD SWAP1 POP PUSH2 0x5C3 PUSH1 0x0 DUP4 ADD DUP5 PUSH2 0x57D JUMP JUMPDEST SWAP3 SWAP2 POP POP JUMP JUMPDEST PUSH1 0x0 PUSH2 0x5D3 PUSH2 0x5E4 JUMP JUMPDEST SWAP1 POP PUSH2 0x5DF DUP3 DUP3 PUSH2 0x6B9 JUMP JUMPDEST SWAP2 SWAP1 POP JUMP JUMPDEST PUSH1 0x0 PUSH1 0x40 MLOAD SWAP1 POP SWAP1 JUMP JUMPDEST PUSH1 0x0 PUSH8 0xFFFFFFFFFFFFFFFF DUP3 GT ISZERO PUSH2 0x609 JUMPI PUSH2 0x608 PUSH2 0x719 JUMP JUMPDEST JUMPDEST PUSH2 0x612 DUP3 PUSH2 0x75C JUMP JUMPDEST SWAP1 POP PUSH1 0x20 DUP2 ADD SWAP1 POP SWAP2 SWAP1 POP JUMP JUMPDEST PUSH1 0x0 DUP2 MLOAD SWAP1 POP SWAP2 SWAP1 POP JUMP JUMPDEST PUSH1 0x0 DUP3 DUP3 MSTORE PUSH1 0x20 DUP3 ADD SWAP1 POP SWAP3 SWAP2 POP POP JUMP JUMPDEST PUSH1 0x0 DUP2 SWAP1 POP SWAP2 SWAP1 POP JUMP JUMPDEST DUP3 DUP2 DUP4 CALLDATACOPY PUSH1 0x0 DUP4 DUP4 ADD MSTORE POP POP POP JUMP JUMPDEST PUSH1 0x0 JUMPDEST DUP4 DUP2 LT ISZERO PUSH2 0x672 JUMPI DUP1 DUP3 ADD MLOAD DUP2 DUP5 ADD MSTORE PUSH1 0x20 DUP2 ADD SWAP1 POP PUSH2 0x657 JUMP JUMPDEST DUP4 DUP2 GT ISZERO PUSH2 0x681 JUMPI PUSH1 0x0 DUP5 DUP5 ADD MSTORE JUMPDEST POP POP POP POP JUMP JUMPDEST PUSH1 0x0 PUSH1 0x2 DUP3 DIV SWAP1 POP PUSH1 0x1 DUP3 AND DUP1 PUSH2 0x69F JUMPI PUSH1 0x7F DUP3 AND SWAP2 POP JUMPDEST PUSH1 0x20 DUP3 LT DUP2 EQ ISZERO PUSH2 0x6B3 JUMPI PUSH2 0x6B2 PUSH2 0x6EA JUMP JUMPDEST JUMPDEST POP SWAP2 SWAP1 POP JUMP JUMPDEST PUSH2 0x6C2 DUP3 PUSH2 0x75C JUMP JUMPDEST DUP2 ADD DUP2 DUP2 LT PUSH8 0xFFFFFFFFFFFFFFFF DUP3 GT OR ISZERO PUSH2 0x6E1 JUMPI PUSH2 0x6E0 PUSH2 0x719 JUMP JUMPDEST JUMPDEST DUP1 PUSH1 0x40 MSTORE POP POP POP JUMP JUMPDEST PUSH32 0x4E487B7100000000000000000000000000000000000000000000000000000000 PUSH1 0x0 MSTORE PUSH1 0x22 PUSH1 0x4 MSTORE PUSH1 0x24 PUSH1 0x0 REVERT JUMPDEST PUSH32 0x4E487B7100000000000000000000000000000000000000000000000000000000 PUSH1 0x0 MSTORE PUSH1 0x41 PUSH1 0x4 MSTORE PUSH1 0x24 PUSH1 0x0 REVERT JUMPDEST PUSH1 0x0 DUP1 REVERT JUMPDEST PUSH1 0x0 DUP1 REVERT JUMPDEST PUSH1 0x0 DUP1 REVERT JUMPDEST PUSH1 0x0 DUP1 REVERT JUMPDEST PUSH1 0x0 PUSH1 0x1F NOT PUSH1 0x1F DUP4 ADD AND SWAP1 POP SWAP2 SWAP1 POP JUMP JUMPDEST PUSH2 0x776 DUP2 PUSH2 0x63B JUMP JUMPDEST DUP2 EQ PUSH2 0x781 JUMPI PUSH1 0x0 DUP1 REVERT JUMPDEST POP JUMP INVALID LOG2 PUSH5 0x6970667358 0x22 SLT KECCAK256 SWAP3 0xD0 DUP11 0x2D DUP8 CALLDATACOPY INVALID PUSH14 0x87586BBCE0D5CA50C08C4C48BB0D LOG2 PUSH6 0x5652B8D774EE PUSH2 0xE464 PUSH20 0x6F6C634300080700330000000000000000000000 "
				},
				"gasEstimates": {
					"creation": {
						"codeDepositCost": "395600",
						"executionCost": "infinite",
						"totalCost": "infinite"
					},
					"external": {
						"addValue(string)": "infinite",
						"arr2d(uint256,uint256)": "infinite",
						"stringArray(uint256)": "infinite",
						"uintArray(uint256)": "infinite",
						"valueCount()": "2423",
						"values(uint256)": "infinite"
					}
				},
				"methodIdentifiers": {
					"addValue(string)": "3a5fbaaa",
					"arr2d(uint256,uint256)": "838fea36",
					"stringArray(uint256)": "6422c4c8",
					"uintArray(uint256)": "9ae918c7",
					"valueCount()": "26eb4dbb",
					"values(uint256)": "5e383d21"
				}
			},
			"storageLayout": {
				"storage": [
					{
						"astId": 8,
						"contract": "contracts/MyContract.sol:MyContract",
						"label": "uintArray",
						"offset": 0,
						"slot": "0",
						"type": "t_array(t_uint256)dyn_storage"
					},
					{
						"astId": 19,
						"contract": "contracts/MyContract.sol:MyContract",
						"label": "stringArray",
						"offset": 0,
						"slot": "1",
						"type": "t_array(t_string_storage)dyn_storage"
					},
					{
						"astId": 22,
						"contract": "contracts/MyContract.sol:MyContract",
						"label": "values",
						"offset": 0,
						"slot": "2",
						"type": "t_array(t_string_storage)dyn_storage"
					},
					{
						"astId": 35,
						"contract": "contracts/MyContract.sol:MyContract",
						"label": "arr2d",
						"offset": 0,
						"slot": "3",
						"type": "t_array(t_array(t_uint256)dyn_storage)dyn_storage"
					}
				],
				"types": {
					"t_array(t_array(t_uint256)dyn_storage)dyn_storage": {
						"base": "t_array(t_uint256)dyn_storage",
						"encoding": "dynamic_array",
						"label": "uint256[][]",
						"numberOfBytes": "32"
					},
					"t_array(t_string_storage)dyn_storage": {
						"base": "t_string_storage",
						"encoding": "dynamic_array",
						"label": "string[]",
						"numberOfBytes": "32"
					},
					"t_array(t_uint256)dyn_storage": {
						"base": "t_uint256",
						"encoding": "dynamic_array",
						"label": "uint256[]",
						"numberOfBytes": "32"
					},
					"t_string_storage": {
						"encoding": "bytes",
						"label": "string",
						"numberOfBytes": "32"
					},
					"t_uint256": {
						"encoding": "inplace",
						"label": "uint256",
						"numberOfBytes": "32"
					}
				}
			},
			"userdoc": {
				"kind": "user",
				"methods": {},
				"version": 1
			}
		}
	}
}