{
	"contracts/MyCoin.sol": {
		"Mycoin": {
			"abi": [
				{
					"inputs": [],
					"stateMutability": "nonpayable",
					"type": "constructor"
				},
				{
					"inputs": [],
					"name": "age",
					"outputs": [
						{
							"internalType": "uint256",
							"name": "",
							"type": "uint256"
						}
					],
					"stateMutability": "view",
					"type": "function"
				},
				{
					"inputs": [],
					"name": "change",
					"outputs": [],
					"stateMutability": "nonpayable",
					"type": "function"
				}
			],
			"devdoc": {
				"kind": "dev",
				"methods": {},
				"version": 1
			},
			"evm": {
				"assembly": "    /* \"contracts/MyCoin.sol\":107:552  contract Mycoin{\r... */\n  mstore(0x40, 0x80)\n    /* \"contracts/MyCoin.sol\":151:191  constructor(){\r... */\n  callvalue\n  dup1\n  iszero\n  tag_1\n  jumpi\n  0x00\n  dup1\n  revert\ntag_1:\n  pop\n    /* \"contracts/MyCoin.sol\":181:183  10 */\n  0x0a\n    /* \"contracts/MyCoin.sol\":175:178  age */\n  0x00\n    /* \"contracts/MyCoin.sol\":175:183  age = 10 */\n  dup2\n  swap1\n  sstore\n  pop\n    /* \"contracts/MyCoin.sol\":107:552  contract Mycoin{\r... */\n  dataSize(sub_0)\n  dup1\n  dataOffset(sub_0)\n  0x00\n  codecopy\n  0x00\n  return\nstop\n\nsub_0: assembly {\n        /* \"contracts/MyCoin.sol\":107:552  contract Mycoin{\r... */\n      mstore(0x40, 0x80)\n      callvalue\n      dup1\n      iszero\n      tag_1\n      jumpi\n      0x00\n      dup1\n      revert\n    tag_1:\n      pop\n      jumpi(tag_2, lt(calldatasize, 0x04))\n      shr(0xe0, calldataload(0x00))\n      dup1\n      0x262a9dff\n      eq\n      tag_3\n      jumpi\n      dup1\n      0x2ee79ded\n      eq\n      tag_4\n      jumpi\n    tag_2:\n      0x00\n      dup1\n      revert\n        /* \"contracts/MyCoin.sol\":129:144  uint public age */\n    tag_3:\n      tag_5\n      tag_6\n      jump\t// in\n    tag_5:\n      mload(0x40)\n      tag_7\n      swap2\n      swap1\n      tag_8\n      jump\t// in\n    tag_7:\n      mload(0x40)\n      dup1\n      swap2\n      sub\n      swap1\n      return\n        /* \"contracts/MyCoin.sol\":293:345  function change() public {\r... */\n    tag_4:\n      tag_9\n      tag_10\n      jump\t// in\n    tag_9:\n      stop\n        /* \"contracts/MyCoin.sol\":129:144  uint public age */\n    tag_6:\n      sload(0x00)\n      dup2\n      jump\t// out\n        /* \"contracts/MyCoin.sol\":293:345  function change() public {\r... */\n    tag_10:\n        /* \"contracts/MyCoin.sol\":336:337  2 */\n      0x02\n        /* \"contracts/MyCoin.sol\":329:332  age */\n      0x00\n      dup1\n        /* \"contracts/MyCoin.sol\":329:337  age /= 2 */\n      dup3\n      dup3\n      sload\n      tag_12\n      swap2\n      swap1\n      tag_13\n      jump\t// in\n    tag_12:\n      swap3\n      pop\n      pop\n      dup2\n      swap1\n      sstore\n      pop\n        /* \"contracts/MyCoin.sol\":293:345  function change() public {\r... */\n      jump\t// out\n        /* \"#utility.yul\":7:125   */\n    tag_15:\n        /* \"#utility.yul\":94:118   */\n      tag_17\n        /* \"#utility.yul\":112:117   */\n      dup2\n        /* \"#utility.yul\":94:118   */\n      tag_18\n      jump\t// in\n    tag_17:\n        /* \"#utility.yul\":89:92   */\n      dup3\n        /* \"#utility.yul\":82:119   */\n      mstore\n        /* \"#utility.yul\":7:125   */\n      pop\n      pop\n      jump\t// out\n        /* \"#utility.yul\":131:353   */\n    tag_8:\n        /* \"#utility.yul\":224:228   */\n      0x00\n        /* \"#utility.yul\":262:264   */\n      0x20\n        /* \"#utility.yul\":251:260   */\n      dup3\n        /* \"#utility.yul\":247:265   */\n      add\n        /* \"#utility.yul\":239:265   */\n      swap1\n      pop\n        /* \"#utility.yul\":275:346   */\n      tag_20\n        /* \"#utility.yul\":343:344   */\n      0x00\n        /* \"#utility.yul\":332:341   */\n      dup4\n        /* \"#utility.yul\":328:345   */\n      add\n        /* \"#utility.yul\":319:325   */\n      dup5\n        /* \"#utility.yul\":275:346   */\n      tag_15\n      jump\t// in\n    tag_20:\n        /* \"#utility.yul\":131:353   */\n      swap3\n      swap2\n      pop\n      pop\n      jump\t// out\n        /* \"#utility.yul\":359:544   */\n    tag_13:\n        /* \"#utility.yul\":399:400   */\n      0x00\n        /* \"#utility.yul\":416:436   */\n      tag_22\n        /* \"#utility.yul\":434:435   */\n      dup3\n        /* \"#utility.yul\":416:436   */\n      tag_18\n      jump\t// in\n    tag_22:\n        /* \"#utility.yul\":411:436   */\n      swap2\n      pop\n        /* \"#utility.yul\":450:470   */\n      tag_23\n        /* \"#utility.yul\":468:469   */\n      dup4\n        /* \"#utility.yul\":450:470   */\n      tag_18\n      jump\t// in\n    tag_23:\n        /* \"#utility.yul\":445:470   */\n      swap3\n      pop\n        /* \"#utility.yul\":489:490   */\n      dup3\n        /* \"#utility.yul\":479:514   */\n      tag_24\n      jumpi\n        /* \"#utility.yul\":494:512   */\n      tag_25\n      tag_26\n      jump\t// in\n    tag_25:\n        /* \"#utility.yul\":479:514   */\n    tag_24:\n        /* \"#utility.yul\":536:537   */\n      dup3\n        /* \"#utility.yul\":533:534   */\n      dup3\n        /* \"#utility.yul\":529:538   */\n      div\n        /* \"#utility.yul\":524:538   */\n      swap1\n      pop\n        /* \"#utility.yul\":359:544   */\n      swap3\n      swap2\n      pop\n      pop\n      jump\t// out\n        /* \"#utility.yul\":550:627   */\n    tag_18:\n        /* \"#utility.yul\":587:594   */\n      0x00\n        /* \"#utility.yul\":616:621   */\n      dup2\n        /* \"#utility.yul\":605:621   */\n      swap1\n      pop\n        /* \"#utility.yul\":550:627   */\n      swap2\n      swap1\n      pop\n      jump\t// out\n        /* \"#utility.yul\":819:999   */\n    tag_26:\n        /* \"#utility.yul\":867:944   */\n      0x4e487b7100000000000000000000000000000000000000000000000000000000\n        /* \"#utility.yul\":864:865   */\n      0x00\n        /* \"#utility.yul\":857:945   */\n      mstore\n        /* \"#utility.yul\":964:968   */\n      0x12\n        /* \"#utility.yul\":961:962   */\n      0x04\n        /* \"#utility.yul\":954:969   */\n      mstore\n        /* \"#utility.yul\":988:992   */\n      0x24\n        /* \"#utility.yul\":985:986   */\n      0x00\n        /* \"#utility.yul\":978:993   */\n      revert\n\n    auxdata: 0xa264697066735822122060b7ae0dfb53194b08efb678616ff6a5e8c94c6222d625fb75d37c5064efee6b64736f6c63430008070033\n}\n",
				"bytecode": {
					"linkReferences": {},
					"object": "608060405234801561001057600080fd5b50600a60008190555061014e806100286000396000f3fe608060405234801561001057600080fd5b50600436106100365760003560e01c8063262a9dff1461003b5780632ee79ded14610059575b600080fd5b610043610063565b6040516100509190610093565b60405180910390f35b610061610069565b005b60005481565b600260008082825461007b91906100ae565b92505081905550565b61008d816100df565b82525050565b60006020820190506100a86000830184610084565b92915050565b60006100b9826100df565b91506100c4836100df565b9250826100d4576100d36100e9565b5b828204905092915050565b6000819050919050565b7f4e487b7100000000000000000000000000000000000000000000000000000000600052601260045260246000fdfea264697066735822122060b7ae0dfb53194b08efb678616ff6a5e8c94c6222d625fb75d37c5064efee6b64736f6c63430008070033",
					"opcodes": "PUSH1 0x80 PUSH1 0x40 MSTORE CALLVALUE DUP1 ISZERO PUSH2 0x10 JUMPI PUSH1 0x0 DUP1 REVERT JUMPDEST POP PUSH1 0xA PUSH1 0x0 DUP2 SWAP1 SSTORE POP PUSH2 0x14E DUP1 PUSH2 0x28 PUSH1 0x0 CODECOPY PUSH1 0x0 RETURN INVALID PUSH1 0x80 PUSH1 0x40 MSTORE CALLVALUE DUP1 ISZERO PUSH2 0x10 JUMPI PUSH1 0x0 DUP1 REVERT JUMPDEST POP PUSH1 0x4 CALLDATASIZE LT PUSH2 0x36 JUMPI PUSH1 0x0 CALLDATALOAD PUSH1 0xE0 SHR DUP1 PUSH4 0x262A9DFF EQ PUSH2 0x3B JUMPI DUP1 PUSH4 0x2EE79DED EQ PUSH2 0x59 JUMPI JUMPDEST PUSH1 0x0 DUP1 REVERT JUMPDEST PUSH2 0x43 PUSH2 0x63 JUMP JUMPDEST PUSH1 0x40 MLOAD PUSH2 0x50 SWAP2 SWAP1 PUSH2 0x93 JUMP JUMPDEST PUSH1 0x40 MLOAD DUP1 SWAP2 SUB SWAP1 RETURN JUMPDEST PUSH2 0x61 PUSH2 0x69 JUMP JUMPDEST STOP JUMPDEST PUSH1 0x0 SLOAD DUP2 JUMP JUMPDEST PUSH1 0x2 PUSH1 0x0 DUP1 DUP3 DUP3 SLOAD PUSH2 0x7B SWAP2 SWAP1 PUSH2 0xAE JUMP JUMPDEST SWAP3 POP POP DUP2 SWAP1 SSTORE POP JUMP JUMPDEST PUSH2 0x8D DUP2 PUSH2 0xDF JUMP JUMPDEST DUP3 MSTORE POP POP JUMP JUMPDEST PUSH1 0x0 PUSH1 0x20 DUP3 ADD SWAP1 POP PUSH2 0xA8 PUSH1 0x0 DUP4 ADD DUP5 PUSH2 0x84 JUMP JUMPDEST SWAP3 SWAP2 POP POP JUMP JUMPDEST PUSH1 0x0 PUSH2 0xB9 DUP3 PUSH2 0xDF JUMP JUMPDEST SWAP2 POP PUSH2 0xC4 DUP4 PUSH2 0xDF JUMP JUMPDEST SWAP3 POP DUP3 PUSH2 0xD4 JUMPI PUSH2 0xD3 PUSH2 0xE9 JUMP JUMPDEST JUMPDEST DUP3 DUP3 DIV SWAP1 POP SWAP3 SWAP2 POP POP JUMP JUMPDEST PUSH1 0x0 DUP2 SWAP1 POP SWAP2 SWAP1 POP JUMP JUMPDEST PUSH32 0x4E487B7100000000000000000000000000000000000000000000000000000000 PUSH1 0x0 MSTORE PUSH1 0x12 PUSH1 0x4 MSTORE PUSH1 0x24 PUSH1 0x0 REVERT INVALID LOG2 PUSH5 0x6970667358 0x22 SLT KECCAK256 PUSH1 0xB7 0xAE 0xD 0xFB MSTORE8 NOT 0x4B ADDMOD 0xEF 0xB6 PUSH25 0x616FF6A5E8C94C6222D625FB75D37C5064EFEE6B64736F6C63 NUMBER STOP ADDMOD SMOD STOP CALLER "
				},
				"gasEstimates": {
					"creation": {
						"codeDepositCost": "66800",
						"executionCost": "22231",
						"totalCost": "89031"
					},
					"external": {
						"age()": "2407",
						"change()": "infinite"
					}
				},
				"methodIdentifiers": {
					"age()": "262a9dff",
					"change()": "2ee79ded"
				}
			},
			"storageLayout": {
				"storage": [
					{
						"astId": 3,
						"contract": "contracts/MyCoin.sol:Mycoin",
						"label": "age",
						"offset": 0,
						"slot": "0",
						"type": "t_uint256"
					}
				],
				"types": {
					"t_uint256": {
						"encoding": "inplace",
						"label": "uint256",
						"numberOfBytes": "32"
					}
				}
			},
			"userdoc": {
				"kind": "user",
				"methods": {},
				"version": 1
			}
		}
	}
}