{
	"contracts/MyCoin.sol": {
		"Mycoin": {
			"abi": [
				{
					"inputs": [],
					"name": "arr1",
					"outputs": [
						{
							"internalType": "bytes3",
							"name": "",
							"type": "bytes3"
						}
					],
					"stateMutability": "view",
					"type": "function"
				},
				{
					"inputs": [],
					"name": "arr2",
					"outputs": [
						{
							"internalType": "bytes2",
							"name": "",
							"type": "bytes2"
						}
					],
					"stateMutability": "view",
					"type": "function"
				}
			],
			"devdoc": {
				"kind": "dev",
				"methods": {},
				"version": 1
			},
			"evm": {
				"assembly": "    /* \"contracts/MyCoin.sol\":107:1071  contract Mycoin{\r... */\n  mstore(0x40, 0x80)\n  callvalue\n  dup1\n  iszero\n  tag_1\n  jumpi\n  0x00\n  dup1\n  revert\ntag_1:\n  pop\n  dataSize(sub_0)\n  dup1\n  dataOffset(sub_0)\n  0x00\n  codecopy\n  0x00\n  return\nstop\n\nsub_0: assembly {\n        /* \"contracts/MyCoin.sol\":107:1071  contract Mycoin{\r... */\n      mstore(0x40, 0x80)\n      callvalue\n      dup1\n      iszero\n      tag_1\n      jumpi\n      0x00\n      dup1\n      revert\n    tag_1:\n      pop\n      jumpi(tag_2, lt(calldatasize, 0x04))\n      shr(0xe0, calldataload(0x00))\n      dup1\n      0xbc3dee8d\n      eq\n      tag_3\n      jumpi\n      dup1\n      0xf2bf1b97\n      eq\n      tag_4\n      jumpi\n    tag_2:\n      0x00\n      dup1\n      revert\n        /* \"contracts/MyCoin.sol\":131:149  bytes3 public arr1 */\n    tag_3:\n      tag_5\n      tag_6\n      jump\t// in\n    tag_5:\n      mload(0x40)\n      tag_7\n      swap2\n      swap1\n      tag_8\n      jump\t// in\n    tag_7:\n      mload(0x40)\n      dup1\n      swap2\n      sub\n      swap1\n      return\n        /* \"contracts/MyCoin.sol\":177:195  bytes2 public arr2 */\n    tag_4:\n      tag_9\n      tag_10\n      jump\t// in\n    tag_9:\n      mload(0x40)\n      tag_11\n      swap2\n      swap1\n      tag_12\n      jump\t// in\n    tag_11:\n      mload(0x40)\n      dup1\n      swap2\n      sub\n      swap1\n      return\n        /* \"contracts/MyCoin.sol\":131:149  bytes3 public arr1 */\n    tag_6:\n      0x00\n      dup1\n      sload\n      swap1\n      0x0100\n      exp\n      swap1\n      div\n      0xe8\n      shl\n      dup2\n      jump\t// out\n        /* \"contracts/MyCoin.sol\":177:195  bytes2 public arr2 */\n    tag_10:\n      0x00\n      0x03\n      swap1\n      sload\n      swap1\n      0x0100\n      exp\n      swap1\n      div\n      0xf0\n      shl\n      dup2\n      jump\t// out\n        /* \"#utility.yul\":7:122   */\n    tag_14:\n        /* \"#utility.yul\":92:115   */\n      tag_16\n        /* \"#utility.yul\":109:114   */\n      dup2\n        /* \"#utility.yul\":92:115   */\n      tag_17\n      jump\t// in\n    tag_16:\n        /* \"#utility.yul\":87:90   */\n      dup3\n        /* \"#utility.yul\":80:116   */\n      mstore\n        /* \"#utility.yul\":7:122   */\n      pop\n      pop\n      jump\t// out\n        /* \"#utility.yul\":128:243   */\n    tag_18:\n        /* \"#utility.yul\":213:236   */\n      tag_20\n        /* \"#utility.yul\":230:235   */\n      dup2\n        /* \"#utility.yul\":213:236   */\n      tag_21\n      jump\t// in\n    tag_20:\n        /* \"#utility.yul\":208:211   */\n      dup3\n        /* \"#utility.yul\":201:237   */\n      mstore\n        /* \"#utility.yul\":128:243   */\n      pop\n      pop\n      jump\t// out\n        /* \"#utility.yul\":249:467   */\n    tag_12:\n        /* \"#utility.yul\":340:344   */\n      0x00\n        /* \"#utility.yul\":378:380   */\n      0x20\n        /* \"#utility.yul\":367:376   */\n      dup3\n        /* \"#utility.yul\":363:381   */\n      add\n        /* \"#utility.yul\":355:381   */\n      swap1\n      pop\n        /* \"#utility.yul\":391:460   */\n      tag_23\n        /* \"#utility.yul\":457:458   */\n      0x00\n        /* \"#utility.yul\":446:455   */\n      dup4\n        /* \"#utility.yul\":442:459   */\n      add\n        /* \"#utility.yul\":433:439   */\n      dup5\n        /* \"#utility.yul\":391:460   */\n      tag_14\n      jump\t// in\n    tag_23:\n        /* \"#utility.yul\":249:467   */\n      swap3\n      swap2\n      pop\n      pop\n      jump\t// out\n        /* \"#utility.yul\":473:691   */\n    tag_8:\n        /* \"#utility.yul\":564:568   */\n      0x00\n        /* \"#utility.yul\":602:604   */\n      0x20\n        /* \"#utility.yul\":591:600   */\n      dup3\n        /* \"#utility.yul\":587:605   */\n      add\n        /* \"#utility.yul\":579:605   */\n      swap1\n      pop\n        /* \"#utility.yul\":615:684   */\n      tag_25\n        /* \"#utility.yul\":681:682   */\n      0x00\n        /* \"#utility.yul\":670:679   */\n      dup4\n        /* \"#utility.yul\":666:683   */\n      add\n        /* \"#utility.yul\":657:663   */\n      dup5\n        /* \"#utility.yul\":615:684   */\n      tag_18\n      jump\t// in\n    tag_25:\n        /* \"#utility.yul\":473:691   */\n      swap3\n      swap2\n      pop\n      pop\n      jump\t// out\n        /* \"#utility.yul\":697:846   */\n    tag_17:\n        /* \"#utility.yul\":733:740   */\n      0x00\n        /* \"#utility.yul\":773:839   */\n      0xffff000000000000000000000000000000000000000000000000000000000000\n        /* \"#utility.yul\":766:771   */\n      dup3\n        /* \"#utility.yul\":762:840   */\n      and\n        /* \"#utility.yul\":751:840   */\n      swap1\n      pop\n        /* \"#utility.yul\":697:846   */\n      swap2\n      swap1\n      pop\n      jump\t// out\n        /* \"#utility.yul\":852:1001   */\n    tag_21:\n        /* \"#utility.yul\":888:895   */\n      0x00\n        /* \"#utility.yul\":928:994   */\n      0xffffff0000000000000000000000000000000000000000000000000000000000\n        /* \"#utility.yul\":921:926   */\n      dup3\n        /* \"#utility.yul\":917:995   */\n      and\n        /* \"#utility.yul\":906:995   */\n      swap1\n      pop\n        /* \"#utility.yul\":852:1001   */\n      swap2\n      swap1\n      pop\n      jump\t// out\n\n    auxdata: 0xa2646970667358221220b9ef7050fdce833be95f0e53bd1242d719124ff4cf39d3551804c2a3c99448aa64736f6c63430008070033\n}\n",
				"bytecode": {
					"linkReferences": {},
					"object": "608060405234801561001057600080fd5b5061017d806100206000396000f3fe608060405234801561001057600080fd5b50600436106100365760003560e01c8063bc3dee8d1461003b578063f2bf1b9714610059575b600080fd5b610043610077565b60405161005091906100d4565b60405180910390f35b610061610088565b60405161006e91906100b9565b60405180910390f35b60008054906101000a900460e81b81565b600060039054906101000a900460f01b81565b6100a4816100ef565b82525050565b6100b38161011b565b82525050565b60006020820190506100ce600083018461009b565b92915050565b60006020820190506100e960008301846100aa565b92915050565b60007fffff00000000000000000000000000000000000000000000000000000000000082169050919050565b60007fffffff00000000000000000000000000000000000000000000000000000000008216905091905056fea2646970667358221220b9ef7050fdce833be95f0e53bd1242d719124ff4cf39d3551804c2a3c99448aa64736f6c63430008070033",
					"opcodes": "PUSH1 0x80 PUSH1 0x40 MSTORE CALLVALUE DUP1 ISZERO PUSH2 0x10 JUMPI PUSH1 0x0 DUP1 REVERT JUMPDEST POP PUSH2 0x17D DUP1 PUSH2 0x20 PUSH1 0x0 CODECOPY PUSH1 0x0 RETURN INVALID PUSH1 0x80 PUSH1 0x40 MSTORE CALLVALUE DUP1 ISZERO PUSH2 0x10 JUMPI PUSH1 0x0 DUP1 REVERT JUMPDEST POP PUSH1 0x4 CALLDATASIZE LT PUSH2 0x36 JUMPI PUSH1 0x0 CALLDATALOAD PUSH1 0xE0 SHR DUP1 PUSH4 0xBC3DEE8D EQ PUSH2 0x3B JUMPI DUP1 PUSH4 0xF2BF1B97 EQ PUSH2 0x59 JUMPI JUMPDEST PUSH1 0x0 DUP1 REVERT JUMPDEST PUSH2 0x43 PUSH2 0x77 JUMP JUMPDEST PUSH1 0x40 MLOAD PUSH2 0x50 SWAP2 SWAP1 PUSH2 0xD4 JUMP JUMPDEST PUSH1 0x40 MLOAD DUP1 SWAP2 SUB SWAP1 RETURN JUMPDEST PUSH2 0x61 PUSH2 0x88 JUMP JUMPDEST PUSH1 0x40 MLOAD PUSH2 0x6E SWAP2 SWAP1 PUSH2 0xB9 JUMP JUMPDEST PUSH1 0x40 MLOAD DUP1 SWAP2 SUB SWAP1 RETURN JUMPDEST PUSH1 0x0 DUP1 SLOAD SWAP1 PUSH2 0x100 EXP SWAP1 DIV PUSH1 0xE8 SHL DUP2 JUMP JUMPDEST PUSH1 0x0 PUSH1 0x3 SWAP1 SLOAD SWAP1 PUSH2 0x100 EXP SWAP1 DIV PUSH1 0xF0 SHL DUP2 JUMP JUMPDEST PUSH2 0xA4 DUP2 PUSH2 0xEF JUMP JUMPDEST DUP3 MSTORE POP POP JUMP JUMPDEST PUSH2 0xB3 DUP2 PUSH2 0x11B JUMP JUMPDEST DUP3 MSTORE POP POP JUMP JUMPDEST PUSH1 0x0 PUSH1 0x20 DUP3 ADD SWAP1 POP PUSH2 0xCE PUSH1 0x0 DUP4 ADD DUP5 PUSH2 0x9B JUMP JUMPDEST SWAP3 SWAP2 POP POP JUMP JUMPDEST PUSH1 0x0 PUSH1 0x20 DUP3 ADD SWAP1 POP PUSH2 0xE9 PUSH1 0x0 DUP4 ADD DUP5 PUSH2 0xAA JUMP JUMPDEST SWAP3 SWAP2 POP POP JUMP JUMPDEST PUSH1 0x0 PUSH32 0xFFFF000000000000000000000000000000000000000000000000000000000000 DUP3 AND SWAP1 POP SWAP2 SWAP1 POP JUMP JUMPDEST PUSH1 0x0 PUSH32 0xFFFFFF0000000000000000000000000000000000000000000000000000000000 DUP3 AND SWAP1 POP SWAP2 SWAP1 POP JUMP INVALID LOG2 PUSH5 0x6970667358 0x22 SLT KECCAK256 0xB9 0xEF PUSH17 0x50FDCE833BE95F0E53BD1242D719124FF4 0xCF CODECOPY 0xD3 SSTORE XOR DIV 0xC2 LOG3 0xC9 SWAP5 BASEFEE 0xAA PUSH5 0x736F6C6343 STOP ADDMOD SMOD STOP CALLER "
				},
				"gasEstimates": {
					"creation": {
						"codeDepositCost": "76200",
						"executionCost": "123",
						"totalCost": "76323"
					},
					"external": {
						"arr1()": "2446",
						"arr2()": "2521"
					}
				},
				"methodIdentifiers": {
					"arr1()": "bc3dee8d",
					"arr2()": "f2bf1b97"
				}
			},
			"storageLayout": {
				"storage": [
					{
						"astId": 3,
						"contract": "contracts/MyCoin.sol:Mycoin",
						"label": "arr1",
						"offset": 0,
						"slot": "0",
						"type": "t_bytes3"
					},
					{
						"astId": 5,
						"contract": "contracts/MyCoin.sol:Mycoin",
						"label": "arr2",
						"offset": 3,
						"slot": "0",
						"type": "t_bytes2"
					}
				],
				"types": {
					"t_bytes2": {
						"encoding": "inplace",
						"label": "bytes2",
						"numberOfBytes": "2"
					},
					"t_bytes3": {
						"encoding": "inplace",
						"label": "bytes3",
						"numberOfBytes": "3"
					}
				}
			},
			"userdoc": {
				"kind": "user",
				"methods": {},
				"version": 1
			}
		}
	}
}